:100000000C9474000C9495000C9495000C9495003D
:100010000C9495000C9495000C9495000C9495000C
:100020000C9495000C9495000C9495000C949500FC
:100030000C9495000C9495000C9495000C949500EC
:100040000C9495000C9495000C9495000C949500DC
:100050000C9495000C9495000C9495000C949500CC
:100060000C9495000C9495000C9495000C949500BC
:100070000C9495000C9495000C9495000C949500AC
:100080000C9495000C9495000C9495000C9495009C
:100090000C9495000C9495000C9495000C9495008C
:1000A0000C9495000C9495000C9495000C9495007C
:1000B0000C9495000C9495000C9495000C9495006C
:1000C0000C9495000C9495000C9495000C9495005C
:1000D0000C9495000C9495000C9495000C9495004C
:1000E0000C9495000C94AA0011241FBECFEFD1E20E
:1000F000DEBFCDBF00E00CBF12E0A0E0B2E0EEE05A
:10010000F2E000E00BBF02C007900D92AE30B107E5
:10011000D9F722E0AEE0B2E001C01D92A631B207ED
:10012000E1F70E94FD000C9405010C9400009091F1
:100130007B00282F2870977F922B90937B008770ED
:1001400080937C0080917A00806480937A00809113
:100150007A00FDCF8A3049F09091C00095FFFCCF26
:100160008093C60080E090E008959091C00095FFD4
:10017000FCCF9DE09093C600EFCF9093C500809395
:10018000C40086E08093C20088E98093C10008958E
:100190009091C00095FFFCCF8093C6000895809198
:1001A000C00087FFFCCF8091C60008958091C000F9
:1001B000881F8827881F0895FC012081222351F081
:1001C00031969091C00095FFFCCF2093C6002191FD
:1001D0002111F7CF089580E092E09093130280936D
:1001E00012021092C50082E38093C40086E08093DF
:1001F000C20088E98093C100089580B310BA81B32A
:0E0200000E94EB0081E00E949700F894FFCF6F
:0E020E000000000200000000AA000000000036
:00000001FF
