:100000000C9472000C9493000C9493000C94930045
:100010000C9493000C9493000C9493000C94930014
:100020000C9493000C9493000C9493000C94930004
:100030000C9493000C9493000C9493000C949300F4
:100040000C9493000C9493000C9493000C949300E4
:100050000C9493000C9493000C9493000C949300D4
:100060000C9493000C9460020C9491020C949300F5
:100070000C9493000C9493000C9493000C949300B4
:100080000C9493000C9493000C9493000C949300A4
:100090000C9493000C9493000C9493000C94930094
:1000A0000C9493000C9493000C9493000C94930084
:1000B0000C9493000C9493000C9493000C94950072
:1000C0000C9493000C9493000C9493000C94930064
:1000D0000C9493000C9493000C9493000C94930054
:1000E0000C94930011241FBECFEFD1E2DEBFCDBF31
:1000F00000E00CBF13E0A0E0B2E0E0EDFCE100E0C6
:100100000BBF02C007900D92AA36B107D9F72DE0B8
:10011000AAE6B3E001C01D92AA3AB207E1F70E9435
:10012000DB060C94660E0C9400001F920F920FB623
:100130000F9211240BB60F921F932F933F934F935F
:100140005F936F937F938F939F93AF93BF93CF935F
:10015000DF93EF93FF9380916A0390916B03019675
:1001600090936B0380936A0381E080936C0380918A
:100170006D038823C9F0D0E0ED2FF0E0E050FE4F92
:10018000C08110917E0D8C2F0E948B01EC2FF0E02E
:10019000FE2FEE27E10FF11DE358FA4F8083DF5F5A
:1001A00080916D03D81740F380917F0D8F5F80930E
:1001B0007F0D80917E0D8F5F80937E0DFF91EF917B
:1001C000DF91CF91BF91AF919F918F917F916F916F
:1001D0005F914F913F912F911F910F900BBE0F9008
:1001E0000FBE0F901F901895EF92FF920F931F93E1
:1001F000CF93DF93CDB7DEB768970FB6F894DEBF25
:100200000FBECDBF7C01142FCE0102960E94190BA8
:10021000198302E028E130E040E050E0BE016F5F6A
:100220007F4FC7010E9429032FEF81EE94E02150F8
:1002300080409040E1F700C0000068960FB6F89447
:10024000DEBF0FBECDBFDF91CF911F910F91FF9009
:10025000EF900895282F30E0982F917080FF03C011
:100260001092000291E021FF07C0E92FF0E0E0507A
:10027000FE4F81E080839F5F22FF07C0E92FF0E0FF
:10028000E050FE4F82E080839F5F23FF07C0E92F8D
:10029000F0E0E050FE4F83E080839F5F24FF07C0C3
:1002A000E92FF0E0E050FE4F84E080839F5F25FF60
:1002B00007C0E92FF0E0E050FE4F85E080839F5FAC
:1002C00026FF07C0E92FF0E0E050FE4F86E0808374
:1002D0009F5F220F232F221F330B232B39F0E92F8F
:1002E000F0E0E050FE4F87E080839F5F90936D03C6
:1002F000089510927E00E4E6F0E080818E7F808396
:10030000EAE7F0E087E0808380818068808380E690
:1003100080937C00089590917C008770982B909337
:100320007C0080917A00806480937A0080917A00CA
:1003300086FDFCCF80917900089510927E00909107
:1003400064009E7F9093640090E890937A0090916F
:100350007B00282F2870977F922B90937B008770CB
:10036000806480937C0080917A00806480937A001E
:1003700080917A0086FDFCCF8091790008951092DB
:100380007E00E4E6F0E090819E7F9083EAE7F0E073
:1003900090E89083ABE7B0E09C91282F2870977F7E
:1003A000922B9C938770806480937C008081806214
:1003B00080838C91887F8C93808180648083089572
:1003C000EAE7F0E080818F758083089510927705C9
:1003D000109276051092C50080E18093C4001092BF
:1003E0006E0410926F0410927004109271051092B6
:1003F00072051092730586E08093C20088E98093AD
:10040000C10078948EE693E0089580E091E008952D
:1004100080E091E00895FC01EB5FFD4F808190E06A
:100420000895FC01EE5FFE4F808190E00895FC018D
:10043000EE5FFE4F908120E031E0A901491B510998
:10044000CA010895CF93DF93DC01AE5FBE4F2C91BC
:10045000F894FC01EF5FFE4F2081EC01C20FD11D2B
:10046000688380818F5F808380818C918F5F8C9384
:100470007894E1ECF0E0808180628083DF91CF911D
:100480000895CF93DF939C01FC01EB5FFD4F9081BA
:100490009923E9F3F894E901CD5FDD4F8881280FB6
:1004A000311DD901AD5FBE4F8C9198819F5F9883BC
:1004B00098819081915090837894DF91CF910895A5
:1004C0001F920F920FB60F9211240BB60F928F93BB
:1004D0009F93AF93BF93CF93DF93EF93FF9380915D
:1004E000C600C3E7D5E09881A2E7B5E0EC91F0E063
:1004F000EF58FB4F80838C918F5F8C938C91888118
:100500008F5F8883FF91EF91DF91CF91BF91AF9182
:100510009F918F910F900BBE0F900FBE0F901F9069
:1005200018951F920F920FB60F9211240BB60F92CF
:100530008F93EF93FF93809170048823F1F0E09103
:100540006E04F0E0E259FC4F80818093C6008091F8
:100550006E048F5F80936E0480916E0480917004AE
:10056000815080937004FF91EF918F910F900BBE9B
:100570000F900FBE0F901F9018958091C1008F7D36
:100580008093C100F0CFAF92BF92CF92DF92EF92F3
:10059000FF920F931F93CF93DF9300D01F92CDB79D
:1005A000DEB78C017A018DE0E80EF11CC7014B83A8
:1005B0005C8369837A830E94DF096C018DE0EEE33E
:1005C000F2E0D60101900D928A95E1F74B815C81B2
:1005D00069817A81C6010D960E94190BE114F1041C
:1005E00039F19601EC0CFD1CD801AE5FBE4F5D01E8
:1005F000F801EF5FFE4FD9014D919D01D5018C911E
:10060000F8948081B801680F711DDB014C939081D3
:100610009F5F90838081D5019C919F5F9C9378948C
:100620009091C10090629093C1002E153F0519F77B
:10063000C6010F900F900F900F90DF91CF911F91F7
:100640000F91FF90EF90DF90CF90BF90AF900C9400
:10065000740ACF92DF92EF92FF920F93CF93DF93C2
:10066000CDB7DEB7A0970FB6F894DEBF0FBECDBFF3
:100670007C01CE0101960E94F7048DE290E00E9479
:10068000DF092DE0EEE3F2E0DC0101900D922A9506
:10069000E1F720E2FE013196DC011D9601900D92FA
:1006A0002A95E1F79C01BC01635D7F4FA7014E5F76
:1006B0005E4F6A01F701EF5FFE4FD9010D919D0179
:1006C000D6014C91F8944081D701A40FB11D0C9331
:1006D00040814F5F40834081D6014C914F5F4C93E6
:1006E00078944091C10040624093C10026173707BB
:1006F00021F7A0960FB6F894DEBF0FBECDBFDF91F5
:10070000CF910F91FF90EF90DF90CF900C94740AEF
:10071000EF92FF920F931F93CF93DF93F89420E013
:1007200030E0FC01E20FF31FED5FFE4FE081EF349C
:1007300009F0D1C0D9011196FC01EA0FF11DED5F5E
:10074000FE4FE081E33709F0BEC0F90132967C012B
:10075000EE0EF11CF701ED5FFE4FE081E33609F08C
:10076000B2C0F9013396EC01CE0FD11DFE01ED5F51
:10077000FE4FE081E93609F0A6C0F90134967C010C
:10078000EE0EF11CF701ED5FFE4FE081EC3609F053
:100790009AC0F9013596EC01CE0FD11DFE01ED5F37
:1007A000FE4FE081EC3609F08EC0F90136967C01EF
:1007B000EE0EF11CF701ED5FFE4FE081EF3609F020
:1007C00082C0F9013796EC01CE0FD11DFE01ED5F1D
:1007D000FE4FE081E33709F076C0F90138967C01DD
:1007E000EE0EF11CF701ED5FFE4FE081E33609F0FC
:1007F0006AC0F9013996EC01CE0FD11DFE01ED5F03
:10080000FE4FE081EF3609F05EC0F9013A967C01B7
:10081000EE0EF11CF701ED5FFE4FE081E03709F0CD
:1008200052C0F9013B96EC01CE0FD11DFE01ED5FE8
:10083000FE4FE081E93609F046C0F9013C967C01A3
:10084000EE0EF11CF701ED5FFE4FE081EF36D9F5BA
:10085000235F3F4F3327DC01AC5FBD4FEC91F0E0ED
:10086000E901C40FD51FEC17FD0798F1411551059B
:10087000B1F0E0E0F0E010E0EF01C20FD31F7C0127
:10088000EC0EF11CE701CD5FDE4FC881E60FF71FCC
:10089000C0831F5FE12FF0E0E417F50768F31C92B7
:1008A000FC01ED5FFE4F80E091E0DF01EC011D9265
:1008B0002197E9F781E07894DF91CF911F910F9113
:1008C000FF90EF9008959D01211501E0300709F098
:1008D00028CF80E0F0CF2F5F3F4FF6CF109220015E
:1008E0009DE090932101682F70E088EE93E00E94D4
:1008F000A108072E000C880B990B0E94E60825E83A
:100900003BEE49E751E40E944A090E94B508709302
:100910002901609328010895892B31F48091730097
:100920008D7F80937300089580917300826080931F
:1009300073000895AF92BF92CF92DF92EF92FF9231
:100940000F931F93CF93DF937C015B018A01CA0150
:10095000880F991F0E94DF096C01A801B7010E944E
:10096000190BA801B701C601800F911F0E94190B36
:1009700001151105C9F1C0E0D0E004C02196C017EF
:10098000D10759F04DE050E06EE372E0C6018C0FE4
:100990009D1F0E940C0B892B89F70C171D0721F155
:1009A000CE010D96E8012D9779F0F501CA0DDB1DFA
:1009B000B8010E948D08D701A80FB91F2C9121936F
:1009C0000196EC17FD07A1F7C6010E94740A81E0A9
:1009D00090E0DF91CF911F910F91FF90EF90DF900A
:1009E000CF90BF90AF9008958FEF9FEFF2CFCF924F
:1009F000DF92EF92FF920F931F93CF93DF93CDB7C8
:100A0000DEB7A0970FB6F894DEBF0FBECDBF6C0166
:100A1000CE0101967C0180E2F70111928A95E9F7F7
:100A200029833A834B835C830D832115310541056E
:100A3000510599F1DA01C9010197A109B1098C01A8
:100A40000F5F1F4FA801CE0106960E94190B0B31B4
:100A5000110561F04BE150E0401B510BC8010596B8
:100A600060E070E08E0D9F1D0E94220B80E2F70176
:100A7000D60101900D928A95E1F7C601A0960FB6B6
:100A8000F894DEBF0FBECDBFDF91CF911F910F91C4
:100A9000FF90EF90DF90CF90089500E010E0DACF64
:100AA000CF92DF92EF92FF92CF93DF93EC01FB01A5
:100AB00088819981AA81BB8182179307A407B50712
:100AC000F9F4892B8A2B8B2BA1F0DE01159620E0FF
:100AD00030E08D9181932F5F3F4F6901E12CF12C24
:100AE000488159816A817B81C416D506E606F706DE
:100AF00080F3DF91CF91FF90EF90DF90CF9008953A
:100B00005F934F933F932F93BF93AF939F938F9395
:100B10008CE492E09F938F930E94B30B8DB79EB7A6
:100B20000A960FB6F8949EBF0FBE8DBFDF91CF918E
:100B3000FF90EF90DF90CF9008950F931F93CF9386
:100B4000DF93EC019C81913009F4ADC09923D1F081
:100B5000923009F45FC0933029F0DF91CF911F915B
:100B60000F9108952091A60D3091A70D4FE050E010
:100B700061E070E08AE593E0DF91CF911F910F91E2
:100B80000C94710B8EEC92E00E94C70B85E090E014
:100B90000E94DF098C0188819981AA81BB818530FF
:100BA0009105A105B10509F0BEC0FE01359685E0AD
:100BB000D80101900D928A95E1F7F8018481282FE0
:100BC000082E000C330B3F938F9383811F928F93DA
:100BD00082811F928F9381811F928F9380811F92B8
:100BE0008F938FED92E09F938F938091A70D8F93BA
:100BF0008091A60D8F930E94290B8DB79EB70E96FC
:100C00000FB6F8949EBF0FBE8DBFDF91CF911F919D
:100C10000F9108958DE293E00E94C70B88E190E068
:100C20000E94DF098C0188819981AA81BB8188316A
:100C30009105A105B10509F08EC0FE01359688E148
:100C4000D80101900D928A95E1F7E8012196209153
:100C5000A60D3091A70D4BE150E061E070E08EE30E
:100C600093E00E94710B209791F0F8018081882316
:100C700071F08E01080F111D89916091A60D709180
:100C8000A70D90E00E94390BC017D107A9F760911A
:100C9000A60D7091A70D8AE090E0DF91CF911F9192
:100CA0000F910C94390B83E792E00E94C70B85E00B
:100CB00090E00E94DF098C0188819981AA81BB8123
:100CC00085309105A105B10509F05DC0FE0135969D
:100CD00085E0D80101900D928A95E1F7F8018481B1
:100CE0001F928F9383811F928F9382811F928F9384
:100CF00081811F928F9380811F928F9384E892E06D
:100D00009F938F938091A70D8F938091A60D8F93C2
:100D10000E94290B8DB79EB70E960FB6F8949EBF12
:100D20000FBE8DBF1ACF1F921F921F9225E02F93E7
:100D3000BF93AF939F938F938CE492E09F938F9395
:100D40000E94B30BEDB7FEB73A960FB6F894FEBF0C
:100D50000FBEEDBF32CF1F921F921F9228E12F933B
:100D6000BF93AF939F938F938CE492E09F938F9365
:100D70000E94B30BEDB7FEB73A960FB6F894FEBFDC
:100D80000FBEEDBF62CF1F921F921F9225E02F93DF
:100D9000BF93AF939F938F938CE492E09F938F9335
:100DA0000E94B30B8DB79EB70A960FB6F8949EBFFC
:100DB0000FBE8DBF93CFCF93DF93CDB7DEB7A19793
:100DC0000FB6F894DEBF0FBECDBF0E94E6012C0126
:100DD00010927E0D10927D0D10927F0D0E94790170
:100DE00078942FEF81EE94E0215080409040E1F71D
:100DF00000C00000E1E12E2E40E250E060E87DE01E
:100E0000C2010E948803182F8130B1F78091840DB0
:100E1000811143C125E030E040E050E0BE01675E53
:100E20007F4F80E89DE00E945005F98C0C8D8B8DE2
:100E3000811153C12A8D10926D03622E712C20FFF7
:100E40002FC11092000210936D03A8E0AE8FB7E09F
:100E5000BF8F812C47E0942E56E0A52EB12C66E082
:100E6000C62E75E0D72EE12CE5E0E8A3F4E0F9A367
:100E7000F0E0E4E073E060E053E042E030E012E0F4
:100E800081E090E021FF1AC080509E4F33243394BC
:100E9000DC013C9210936D03152F5E2FE8A1C8A2D0
:100EA000C92C9E8C842F932F472F362F79A16F2F1B
:100EB000D9A2FE2DDA2CEB2CAF8CB82C22FF17C058
:100EC00080509E4FA2E08A2EDC018C9210936D031D
:100ED000152F5E2FE8A1C8A2C92C842F932F472F6E
:100EE000362F79A16F2FD9A2FE2DDA2CEB2C23FF00
:100EF00014C080509E4FB3E0BB2EDC01BC92109317
:100F00006D03152F5E2FE8A1C8A2842F932F472FC2
:100F1000362F79A16F2FD9A2FE2D24FF11C080504A
:100F20009E4FA4E0EA2EDC01EC9210936D03152F86
:100F30005E2FE8A1842F932F472F362F79A16F2F93
:100F400025FF0DC0DC01A050BE4FF5E0FC931093CF
:100F50006D03152F5E2F842F932F472F362F26FFDB
:100F60000AC0FC01E050FE4F26E0208310936D0381
:100F7000152F842F932F9301220F232F221F330B22
:100F8000232B39F0FC01E050FE4F27E02083109323
:100F90006D03A8E7B5E0E5E01D92EA95E9F7109248
:100FA0006B0310926A038F2D90E00E946E0481E023
:100FB00090E00E948C04F09E6001112404C0809196
:100FC0007F0D81112AC080916A0390916B038C156B
:100FD0009D05A8F380E090E00E948C04EEE0F2E032
:100FE000DE011296822D01900D928A95E1F72982F9
:100FF00002E028E130E040E050E0BE016F5F7F4F4B
:10100000C2010E942903EFEFF1EE24E0E150F0402D
:101010002040E1F700C00000EFCE80916D038823EF
:1010200089F130E0A32E32E0B32EE12CF12CD50172
:101030008D915D0190917D0DE82FF0E0FE2FEE2760
:10104000E90FF11DE358FA4F908190937905809351
:101050007A0580916A0390916B0380937C0501E08F
:1010600025E030E040E050E068E775E0C2010E9412
:101070002903BFEFEB1AFB0A80916D0390E0E8169D
:10108000F906ACF280917D0D8F5F80937D0D80918C
:101090007F0D815080937F0D96CFEDE2F2E0A0CFDF
:1010A00087E08E8F96E09F8F812CB6E09B2E85E0A7
:1010B000A82EB12C95E0C92E34E0D32EE12CA4E06B
:1010C000A8A3B3E0B9A3F0E0E3E072E060E052E08F
:1010D00041E030E080E090E0D5CEEFE1F2E0DE01EB
:1010E00012968EE001900D928A95E1F78EE0898349
:1010F00002E028E130E040E050E0BE016F5F7F4F4A
:10110000C2010E9429039FEFA1EEB4E09150A040DC
:10111000B040E1F700C000006FCEAA1BBB1B51E13D
:1011200007C0AA1FBB1FA617B70710F0A61BB70B57
:10113000881F991F5A95A9F780959095BC01CD01FC
:10114000089597FB072E16F4009407D077FD09D079
:101150000E948D0807FC05D03EF4909581959F4F25
:101160000895709561957F4F08950E94290988F030
:101170009F5798F0B92F9927B751B0F0E1F0660F5B
:10118000771F881F991F1AF0BA95C9F714C0B1309C
:1011900091F00E944309B1E008950C944309672F30
:1011A000782F8827B85F39F0B93FCCF386957795CB
:1011B0006795B395D9F73EF49095809570956195B4
:1011C0007F4F8F4F9F4F0895E89409C097FB3EF4DF
:1011D00090958095709561957F4F8F4F9F4F992384
:1011E000A9F0F92F96E9BB279395F6958795779502
:1011F0006795B795F111F8CFFAF4BB0F11F460FFC2
:101200001BC06F5F7F4F8F4F9F4F16C0882311F019
:1012100096E911C0772321F09EE8872F762F05C02D
:10122000662371F096E8862F70E060E02AF09A95C8
:10123000660F771F881FDAF7880F9695879597F9BD
:10124000089557FD9058440F551F59F05F3F71F0B6
:101250004795880F97FB991F61F09F3F79F087951D
:101260000895121613061406551FF2CF4695F1DFA6
:1012700008C0161617061806991FF1CF8695710536
:10128000610508940895E894BB2766277727CB016A
:1012900097F908950E945D090C94CE090E94C00937
:1012A00038F00E94C70920F0952311F00C94B7097B
:1012B0000C94BD0911240C9444090E94210970F377
:1012C000959FC1F3950F50E0551F629FF001729FEB
:1012D000BB27F00DB11D639FAA27F00DB11DAA1FFA
:1012E000649F6627B00DA11D661F829F2227B00D47
:1012F000A11D621F739FB00DA11D621F839FA00DD2
:10130000611D221F749F3327A00D611D231F849F21
:10131000600D211D822F762F6A2F11249F57504078
:101320009AF0F1F088234AF0EE0FFF1FBB1F661FF3
:10133000771F881F91505040A9F79E3F510580F0BC
:101340000C94B7090C9444095F3FE4F3983ED4F33E
:10135000869577956795B795F795E7959F5FC1F760
:10136000FE2B880F911D9695879597F9089597F90B
:101370009F6780E870E060E008959FEF80EC08953B
:1013800000240A9416161706180609060895002464
:101390000A9412161306140605060895092E0394DE
:1013A000000C11F4882352F0BB0F40F4BF2B11F452
:1013B00060FF04C06F5F7F4F8F4F9F4F0895CF93A3
:1013C000DF938230910510F482E090E0E091A20D6D
:1013D000F091A30D20E030E0C0E0D0E0309711F1B3
:1013E0004081518148175907C0F04817590761F4E7
:1013F00082819381209719F09B838A832BC09093DD
:10140000A30D8093A20D26C02115310519F04217B6
:10141000530718F49A01BE01DF01EF010280F38146
:10142000E02DDCCF2115310509F1281B390B2430C3
:10143000310590F412968D919C9113976115710569
:1014400021F0FB019383828304C09093A30D8093CA
:10145000A20DFD01329644C0FD01E20FF31F8193FE
:101460009193225031092D933C933AC02091A00DC5
:101470003091A10D232B41F420910A0230910B02EF
:101480003093A10D2093A00D209108023091090204
:101490002115310541F42DB73EB740910C02509112
:1014A0000D02241B350BE091A00DF091A10DE21768
:1014B000F307A0F42E1B3F0B2817390778F0AC0177
:1014C0004E5F5F4F2417350748F04E0F5F1F509354
:1014D000A10D4093A00D8193919302C0E0E0F0E054
:1014E000CF01DF91CF9108950F931F93CF93DF9397
:1014F000009709F48CC0FC0132971382128200918C
:10150000A20D1091A30D0115110581F420813181E7
:10151000820F931F2091A00D3091A10D281739073C
:1015200079F5F093A10DE093A00D71C0D80140E0D2
:1015300050E0AE17BF0750F412962D913C911397CF
:10154000AD012115310509F1D901F3CF9D01DA0172
:101550003383228360817181860F971F82179307DF
:1015600069F4EC0128813981260F371F2E5F3F4F28
:10157000318320838A819B8193838283452B29F445
:10158000F093A30DE093A20D42C01396FC93EE934B
:101590001297ED01499159919E01240F351FE217D1
:1015A000F30771F480819181840F951F0296119643
:1015B0009C938E938281938113969C938E93129722
:1015C000E0E0F0E0D80112968D919C91139700977E
:1015D00019F0F8018C01F6CF8D919C9198012E5F46
:1015E0003F4F820F931F2091A00D3091A10D28171E
:1015F000390769F4309729F41092A30D1092A20DC7
:1016000002C0138212821093A10D0093A00DDF91EE
:10161000CF911F910F910895FB01DC0104C08D91C2
:101620000190801921F441505040C8F7881B990B54
:101630000895FB01DC0102C001900D924150504021
:10164000D8F70895DC0101C06D9341505040E0F798
:101650000895CF93DF93CDB7DEB7AE01465F5F4FFE
:10166000688579858E819F810E94F70BDF91CF91EC
:1016700008950F931F93CF93DF93FB01238121FDE7
:1016800003C08FEF9FEF28C022FF16C0468157810D
:10169000248135814217530744F4A081B1819D0113
:1016A0002F5F3F4F318320838C93268137812F5FBB
:1016B0003F4F3783268310C0EB01092F182F00847A
:1016C000F185E02D1995892BE1F68E819F81019698
:1016D0009F838E83812F902FDF91CF911F910F9148
:1016E00008958F929F92AF92BF92CF92DF92EF9226
:1016F000FF920F931F93CF93DF935B014A01790110
:10170000D90113962C9121FF1DC0C0E0D0E0C8156F
:10171000D905D9F08C016C01CA0CDB1CC8010C1571
:101720001D0571F00F5F1F4FD7011896ED91FC91C9
:101730001997B701DC018C911995892B79F305C0B4
:101740002196E5CF80E090E001C0CE01DF91CF91FE
:101750001F910F91FF90EF90DF90CF90BF90AF90CF
:101760009F908F900895CF93DF93CDB7DEB7AE01F2
:101770004A5F5F4FFA0161917191AF018091A60DAF
:101780009091A70D0E94F70BDF91CF9108950F93D1
:101790001F93CF93DF93E091A60DF091A70D2381C6
:1017A00021FF1BC08C01D0E0C0E0F80181918F01C6
:1017B0006091A60D7091A70DDB011896ED91FC913B
:1017C0001997882331F01995892B79F3DFEFCFEF43
:1017D000ECCF8AE01995892B19F08FEF9FEF02C0AB
:1017E0008D2F9C2FDF91CF911F910F9108952F92F4
:1017F0003F924F925F926F927F928F929F92AF92A1
:10180000BF92CF92DF92EF92FF920F931F93CF93ED
:10181000DF93CDB7DEB72C970FB6F894DEBF0FBEBF
:10182000CDBF7C016B018A01FC0117821682838186
:1018300081FFBDC1CE0101964C01F7019381F601F4
:1018400093FD859193FF81916F01882309F4ABC1CA
:10185000853239F493FD859193FF81916F01853233
:1018600029F4B70190E00E94390BE7CF512C312CBD
:1018700020E02032A0F48B3269F030F4803259F04D
:10188000833269F420612CC08D3239F0803339F411
:10189000216026C02260246023C0286021C027FD6B
:1018A00027C030ED380F3A3078F426FF06C0FAE052
:1018B0005F9E300D1124532E13C08AE0389E300DE8
:1018C0001124332E20620CC08E3221F426FD6BC110
:1018D000206406C08C3611F4206802C0883641F4BA
:1018E000F60193FD859193FF81916F018111C1CF25
:1018F000982F9F7D9554933028F40C5F1F4FFFE382
:10190000F9830DC0833631F0833771F0833509F0E8
:101910005BC022C0F801808189830E5F1F4F442481
:101920004394512C540115C03801F2E06F0E711C24
:10193000F801A080B18026FF03C0652D70E002C0D1
:101940006FEF7FEFC5012C870E94FD0D2C018301F5
:101950002C852F77222E17C03801F2E06F0E711CF4
:10196000F801A080B18026FF03C0652D70E002C0A1
:101970006FEF7FEFC5012C870E94F20D2C012C85A3
:101980002068222E830123FC1BC0832D90E0481683
:101990005906B0F4B70180E290E00E94390B3A9406
:1019A000F4CFF50127FC859127FE81915F01B701F6
:1019B00090E00E94390B31103A94F1E04F1A51082F
:1019C0004114510471F7E5C0843611F0893639F5B8
:1019D000F80127FF07C060817181828193810C5FCC
:1019E0001F4F08C060817181072E000C880B990B76
:1019F0000E5F1F4F2F76722E97FF09C0909580952E
:101A0000709561957F4F8F4F9F4F2068722E2AE00F
:101A100030E0A4010E94080EA82EA81844C0853703
:101A200029F42F7EB22E2AE030E025C0F22FF97F74
:101A3000BF2E8F36C1F018F4883579F0B4C08037E6
:101A400019F0883721F0AFC02F2F2061B22EB4FEDD
:101A50000DC08B2D8460B82E09C024FF0AC09F2FB3
:101A60009660B92E06C028E030E005C020E130E0E5
:101A700002C020E132E0F801B7FE07C06081718149
:101A8000828193810C5F1F4F06C06081718180E06D
:101A900090E00E5F1F4FA4010E94080EA82EA81808
:101AA000FB2DFF777F2E76FE0BC0372D3E7FA514D2
:101AB00050F474FE0AC072FC08C0372D3E7E05C08B
:101AC000BA2C372D03C0BA2C01C0B52C34FF0DC081
:101AD000FE01EA0DF11D8081803311F4397E09C0C9
:101AE00032FF06C0B394B39404C0832F867809F004
:101AF000B39433FD13C030FF06C05A2CB31418F44E
:101B0000530C5B18B32CB31468F4B70180E290E077
:101B10003C870E94390BB3943C85F5CFB31410F485
:101B20003B1801C0312C34FF12C0B70180E390E0B4
:101B30003C870E94390B3C8532FF17C031FD03C042
:101B400088E790E002C088E590E0B7010CC0832FE1
:101B5000867859F031FF02C08BE201C080E237FD88
:101B60008DE2B70190E00E94390BA51438F4B7015B
:101B700080E390E00E94390B5A94F7CFAA94F401C5
:101B8000EA0DF11D8081B70190E00E94390BA11090
:101B9000F5CF332009F451CEB70180E290E00E94E6
:101BA000390B3A94F6CFF7018681978102C08FEF07
:101BB0009FEF2C960FB6F894DEBF0FBECDBFDF911E
:101BC000CF911F910F91FF90EF90DF90CF90BF903A
:101BD000AF909F908F907F906F905F904F903F90CD
:101BE0002F900895FC010590615070400110D8F7C6
:101BF000809590958E0F9F1F0895FC016150704055
:101C000001900110D8F7809590958E0F9F1F089531
:101C1000FA01AA27283051F1203181F1E8946F931D
:101C20006E7F6E5F7F4F8F4F9F4FAF4FB1E03ED0C3
:101C3000B4E03CD0670F781F891F9A1FA11D680F61
:101C4000791F8A1F911DA11D6A0F711D811D911D94
:101C5000A11D20D009F468943F912AE0269F112409
:101C60003019305D3193DEF6CF010895462F47706D
:101C7000405D4193B3E00FD0C9F7F6CF462F4F70C8
:101C8000405D4A3318F0495D31FD4052419302D026
:101C9000A9F7EACFB4E0A6959795879577956795CC
:101CA000BA95C9F700976105710508959B01AC01CC
:101CB0000A2E06945795479537952795BA95C9F7F3
:101CC000620F731F841F951FA01D0895F894FFCF06
:101CD00008080808080808080000AA0D200066691E
:101CE0006E69736865642072656164696E6700621D
:101CF00075666665726564206D6F64650072656304
:101D0000656976656420554E56414C4944004F73D1
:101D100063696C6C6F73636F70696F006578747260
:101D2000616372206572726F723A2073697A6520FE
:101D30006D69736D6174636820256420213D2025E1
:101D4000640A007072696E74696E67204441544180
:101D5000504B470044617461205061636B6167655B
:101D600020696E666F3A0A436865636B73756D3AF6
:101D70002025640A5369676E616C3A25640A5069CC
:101D80006E3A2025640A436F6D6D616E643A2025BA
:101D9000640A45706F63683A2025640A0A0070720D
:101DA000696E74696E6720494E4954504B4700492B
:101DB0006E6974205061636B61676520696E666F40
:101DC0003A0A4672657175656E63793A2025640A30
:101DD0004368616E6E656C733A2025640A4D6F64CA
:101DE000653A2025640A54696D653A2025640A54D1
:101DF0007269676765723A2025640A0A0070726921
:101E00006E74696E672054455854504B47005465B2
:101E10007874205061636B61676520696E666F3A04
:101E2000200A20746578743A2000426C616E6B2041
:0A1E30007061636B6167652E0A00A4
:00000001FF
