:100000000C9472000C9493000C9493000C94930045
:100010000C9493000C9493000C9493000C94930014
:100020000C9493000C9493000C9493000C94930004
:100030000C9493000C9493000C9493000C949300F4
:100040000C9493000C9493000C9493000C949300E4
:100050000C9493000C9493000C9493000C949300D4
:100060000C9493000C94A6010C94D7010C9493006B
:100070000C9493000C9493000C9493000C949300B4
:100080000C9493000C9493000C9493000C949300A4
:100090000C9493000C9493000C9493000C94930094
:1000A0000C9493000C9493000C9493000C94930084
:1000B0000C9493000C9493000C9493000C94950072
:1000C0000C9493000C9493000C9493000C94930064
:1000D0000C9493000C9493000C9493000C94930054
:1000E0000C94930011241FBECFEFD1E2DEBFCDBF31
:1000F00000E00CBF12E0A0E0B2E0EEE0F7E100E0CB
:100100000BBF02C007900D92A435B107D9F724E0C8
:10011000A4E5B2E001C01D92A737B207E1F70E9443
:10012000F5040C94850B0C9400001F920F920FB6EF
:100130000F9211240BB60F922F933F934F935F931F
:100140006F937F938F939F93AF93BF93EF93FF939F
:10015000809154029091550201969093550280939C
:100160005402809100028830A1F00E94DF00909339
:100170006604809365041092670480915402909104
:10018000550290936A04809369048091000288303C
:1001900061F781E080935602FF91EF91BF91AF919B
:1001A0009F918F917F916F915F914F913F912F918F
:1001B0000F900BBE0F900FBE0F901F9018951092CE
:1001C0007E00909164009E7F9093640090E89093ED
:1001D0007A0090917B00282F2870977F922B909324
:1001E0007B008770806480937C0080917A008064BB
:1001F00080937A0080917A0086FDFCCF8091780010
:100200002091790090E0922B089510927E00E4E610
:10021000F0E090819E7F9083EAE7F0E090E89083A1
:10022000ABE7B0E09C91282F2870977F922B9C938E
:100230008770806480937C008081806280838C9151
:10024000887F8C938081806480830895EAE7F0E062
:1002500080818F75808308951092600410925F04EE
:100260001092C50080E18093C40010925703109251
:1002700058031092590310925A0410925B04109282
:100280005C0486E08093C20088E98093C100789482
:1002900087E592E0089580E091E0089580E091E0A4
:1002A0000895FC01EB5FFD4F808190E00895FC0113
:1002B000EE5FFE4F808190E00895FC01EE5FFE4FFF
:1002C000908120E031E0A901491B5109CA0108953C
:1002D000CF93DF93DC01AE5FBE4F2C91F894FC010D
:1002E000EF5FFE4F2081EC01C20FD11D688380813A
:1002F0008F5F808380818C918F5F8C937894E1EC09
:10030000F0E0808180628083DF91CF910895CF9368
:10031000DF939C01FC01EB5FFD4F90819923E9F392
:10032000F894E901CD5FDD4F8881280F311DD90197
:10033000AD5FBE4F8C9198819F5F9883988190812B
:10034000915090837894DF91CF9108951F920F92EE
:100350000FB60F9211240BB60F928F939F93AF930A
:10036000BF93CF93DF93EF93FF938091C600CCE5CB
:10037000D4E09881ABE5B4E0EC91F0E0E65AFC4FB4
:1003800080838C918F5F8C938C9188818F5F888321
:10039000FF91EF91DF91CF91BF91AF919F918F919D
:1003A0000F900BBE0F900FBE0F901F9018951F92CD
:1003B0000F920FB60F9211240BB60F928F93EF93FB
:1003C000FF93809159038823F1F0E0915703F0E007
:1003D000E95AFD4F80818093C600809157038F5F5B
:1003E00080935703809157038091590381508093E4
:1003F0005903FF91EF918F910F900BBE0F900FBE9D
:100400000F901F9018958091C1008F7D8093C1003F
:10041000F0CFAF92BF92CF92DF92EF92FF920F9305
:100420001F93CF93DF9300D01F92CDB7DEB78C011F
:100430007A018DE0E80EF11CC7014B835C83698370
:100440007A830E9480076C018DE0EEE1F2E0D60134
:1004500001900D928A95E1F74B815C8169817A81E7
:10046000C6010D960E94BA08E114F10439F1960113
:10047000EC0CFD1CD801AE5FBE4F5D01F801EF5FD3
:10048000FE4FD9014D919D01D5018C91F894808149
:10049000B801680F711DDB014C9390819F5F9083C1
:1004A0008081D5019C919F5F9C9378949091C1002D
:1004B00090629093C1002E153F0519F7C6010F9069
:1004C0000F900F900F90DF91CF911F910F91FF90A0
:1004D000EF90DF90CF90BF90AF900C9415088F9263
:1004E0009F92AF92BF92CF92DF92EF92FF920F93C3
:1004F0001F93CF93DF93CDB7DEB7A5970FB6F894D0
:10050000DEBF0FBECDBF6C0149015A01CE0101967D
:100510000E944F0474016DE0E60EF11CC7010E94B9
:1005200080078C018DE0EEE1F2E0D80101900D92A0
:100530008A95E1F7A401BE016F5F7F4FC8010D9658
:100540000E94BA08E114F10439F19801E00EF11E9D
:10055000C6018E5F9E4F5C01F601EF5FFE4FD90131
:100560004D919D01D5018C91F8948081B601680F61
:10057000711DDB014C9380818F5F80838081D50169
:100580008C918F5F8C9378948091C100806280936E
:10059000C1002E153F0519F7C801A5960FB6F894AE
:1005A000DEBF0FBECDBFDF91CF911F910F91FF90A6
:1005B000EF90DF90CF90BF90AF909F908F900C9472
:1005C0001508EF92FF920F931F93CF93DF93F89448
:1005D00020E030E0FC01E20FF31FED5FFE4FE08111
:1005E000EF3409F0D1C0D9011196FC01EA0FF11DD9
:1005F000ED5FFE4FE081E33709F0BEC0F9013296AE
:100600007C01EE0EF11CF701ED5FFE4FE081E33659
:1006100009F0B2C0F9013396EC01CE0FD11DFE01F5
:10062000ED5FFE4FE081E93609F0A6C0F90134968E
:100630007C01EE0EF11CF701ED5FFE4FE081EC3620
:1006400009F09AC0F9013596EC01CE0FD11DFE01DB
:10065000ED5FFE4FE081EC3609F08EC0F901369671
:100660007C01EE0EF11CF701ED5FFE4FE081EF36ED
:1006700009F082C0F9013796EC01CE0FD11DFE01C1
:10068000ED5FFE4FE081E33709F076C0F90138965F
:100690007C01EE0EF11CF701ED5FFE4FE081E336C9
:1006A00009F06AC0F9013996EC01CE0FD11DFE01A7
:1006B000ED5FFE4FE081EF3609F05EC0F9013A963A
:1006C0007C01EE0EF11CF701ED5FFE4FE081E0379B
:1006D00009F052C0F9013B96EC01CE0FD11DFE018D
:1006E000ED5FFE4FE081E93609F046C0F9013C9626
:1006F0007C01EE0EF11CF701ED5FFE4FE081EF365D
:10070000D9F5235F3F4F3327DC01AC5FBD4FEC9140
:10071000F0E0E901C40FD51FEC17FD0798F1411572
:100720005105B1F0E0E0F0E010E0EF01C20FD31F9F
:100730007C01EC0EF11CE701CD5FDE4FC881E60FB6
:10074000F71FC0831F5FE12FF0E0E417F50768F3A0
:100750001C92FC01ED5FFE4F80E091E0DF01EC01B7
:100760001D922197E9F781E07894DF91CF911F9155
:100770000F91FF90EF9008959D01211501E0300742
:1007800009F028CF80E0F0CF2F5F3F4FF6CFBC01BC
:10079000109220018DE08093210188EE93E00E9469
:1007A0004206072E000C880B990B0E94870625E84D
:1007B0003BEE49E751E40E94EB060E945606709317
:1007C0002901609328010895892B31F480917300E9
:1007D0008D7F809373000895809173008260809371
:1007E00073000895AF92BF92CF92DF92EF92FF9283
:1007F0000F931F93CF93DF937C015B018A01CA01A2
:10080000880F991F0E9480076C01A801B7010E9400
:10081000BA08A801B701C601800F911F0E94BA084B
:1008200001151105C9F1C0E0D0E004C02196C01740
:10083000D10759F04DE050E06EE172E0C6018C0F37
:100840009D1F0E94AD08892B89F70C171D0721F108
:10085000CE010D96E8012D9779F0F501CA0DDB1D4B
:10086000B8010E942E06D701A80FB91F2C91219321
:100870000196EC17FD07A1F7C6010E94150881E05B
:1008800090E0DF91CF911F910F91FF90EF90DF905B
:10089000CF90BF90AF9008958FEF9FEFF2CFCF92A0
:1008A000DF92EF92FF920F931F93CF93DF93CDB719
:1008B000DEB7A5970FB6F894DEBF0FBECDBF6C01B3
:1008C000CE0101967C0185E2F70111928A95E9F744
:1008D00029833A834B835C830D83211531054105C0
:1008E000510599F1DA01C9010197A109B1098C01FA
:1008F0000F5F1F4FA801CE0106960E94BA08003272
:10090000110561F040E250E0401B510BC801059613
:1009100060E070E08E0D9F1D0E94C30885E2F70124
:10092000D60101900D928A95E1F7C601A5960FB602
:10093000F894DEBF0FBECDBFDF91CF911F910F9115
:10094000FF90EF90DF90CF90089500E010E0DACFB5
:10095000CF92DF92EF92FF92CF93DF93EC01FB01F6
:1009600088819981AA81BB8182179307A407B50763
:10097000F9F4892B8A2B8B2BA1F0DE01159620E050
:1009800030E08D9181932F5F3F4F6901E12CF12C75
:10099000488159816A817B81C416D506E606F7062F
:1009A00080F3DF91CF91FF90EF90DF90CF9008958B
:1009B0005F934F933F932F93BF93AF939F938F93E7
:1009C0008CE292E09F938F930E94CA088DB79EB7E6
:1009D0000A960FB6F8949EBF0FBE8DBFDF91CF91E0
:1009E000FF90EF90DF90CF900895CF93DF93CDB736
:1009F000DEB7EC970FB6F894DEBF0FBECDBF0E94F6
:100A00002C017C0178941FE037E0832E48E0D42E3F
:100A100056E0552E65E0462E74E0372E45E250E054
:100A2000BE016F5F7F4FC7010E94E102813009F074
:100A3000B3C08D818111F2CF26E030E040E050E07C
:100A4000BE016A5D7F4FCE0101960E94A8040EA1EF
:100A50004FA1B9A488A58111E1CF842F90E09CAF6C
:100A60008BAF40FDB8C0D092070254E0C12C93E098
:100A7000A92E912C22E0622E712C61E070E025E01D
:100A800030E086E090E0E0E0F0E041FDB8C080506A
:100A90009E4FDC01DC92C901252F3C2D5A2DC92C1B
:100AA000A62C972C42FDB4C080509E4FDC01DC92F6
:100AB000C901252F3C2D5A2DC92C43FDB3C08050B0
:100AC0009E4FDC01DC92C901252F3C2D44FDB3C0B3
:100AD00080509E4FDC01DC92C9019B01BF0145FDA6
:100AE000AFC0FC01E050FE4FD082C9019B0146FD22
:100AF000ADC0FC01E050FE4FD082ABADBCADAA0F43
:100B0000AB2FAA1FBB0BF901E050FE4FAB2B09F036
:100B1000A3C0D08210926104109262041092630408
:100B20001092640410926604109265041092670497
:100B30001092680410926A0410926904802F90E069
:100B40000E94C70381E090E00E94E4030B9D5001E6
:100B5000112480915402909155028A159B05B8F496
:100B6000809156028823E1F301E02AE030E040E082
:100B700050E061E674E0C7010E946F0210925602D5
:100B800080915402909155028A159B0548F380E0AC
:100B900090E00E94E40342CFEEE0F2E0DE019696A0
:100BA000812F01900D928A95E1F71AAF02E025E1BD
:100BB00030E040E050E0BE016A5D7F4FC7010E9417
:100BC0006F02BFEF23ED80E3B15020408040E1F79A
:100BD00000C0000023CF1092000255E0C12CB4E009
:100BE000AB2E912C83E0682E712C62E070E026E041
:100BF00030E087E090E0E1E0F0E041FF48CFE050F6
:100C0000FE4F222423942082FB01B30142FF4CCFEC
:100C1000E050FE4FA2E07A2E7082FB016A2D792D02
:100C200043FF4DCFE050FE4FB3E0B083FB01652F93
:100C30007C2D44FF4DCFE050FE4F308245FF51CF19
:100C4000FB01E050FE4F408246FF53CFF901E050D8
:100C5000FE4F50829C0151CF80825CCFAA1BBB1BF0
:100C600051E107C0AA1FBB1FA617B70710F0A61BAC
:100C7000B70B881F991F5A95A9F780959095BC01CD
:100C8000CD01089597FB072E16F4009407D077FD49
:100C900009D00E942E0607FC05D03EF49095819560
:100CA0009F4F0895709561957F4F08950E94CA06E1
:100CB00088F09F5798F0B92F9927B751B0F0E1F01D
:100CC000660F771F881F991F1AF0BA95C9F714C0CD
:100CD000B13091F00E94E406B1E008950C94E4066E
:100CE000672F782F8827B85F39F0B93FCCF3869506
:100CF00077956795B395D9F73EF490958095709563
:100D000061957F4F8F4F9F4F0895E89409C097FBDF
:100D10003EF490958095709561957F4F8F4F9F4FD2
:100D20009923A9F0F92F96E9BB279395F695879516
:100D300077956795B795F111F8CFFAF4BB0F11F4D9
:100D400060FF1BC06F5F7F4F8F4F9F4F16C0882380
:100D500011F096E911C0772321F09EE8872F762FB6
:100D600005C0662371F096E8862F70E060E02AF0F7
:100D70009A95660F771F881FDAF7880F96958795E3
:100D800097F9089557FD9058440F551F59F05F3F4C
:100D900071F04795880F97FB991F61F09F3F79F09D
:100DA00087950895121613061406551FF2CF46951F
:100DB000F1DF08C0161617061806991FF1CF8695A1
:100DC0007105610508940895E894BB276627772785
:100DD000CB0197F908950E94FE060C946F070E94BC
:100DE000610738F00E94680720F0952311F00C94F9
:100DF00058070C945E0711240C94E5060E94C20665
:100E000070F3959FC1F3950F50E0551F629FF0015D
:100E1000729FBB27F00DB11D639FAA27F00DB11D76
:100E2000AA1F649F6627B00DA11D661F829F2227FF
:100E3000B00DA11D621F739FB00DA11D621F839F86
:100E4000A00D611D221F749F3327A00D611D231F5C
:100E5000849F600D211D822F762F6A2F11249F57AA
:100E600050409AF0F1F088234AF0EE0FFF1FBB1FAD
:100E7000661F771F881F91505040A9F79E3F51056C
:100E800080F00C9458070C94E5065F3FE4F3983E1D
:100E9000D4F3869577956795B795F795E7959F5F16
:100EA000C1F7FE2B880F911D9695879597F90895A8
:100EB00097F99F6780E870E060E008959FEF80EC0D
:100EC000089500240A9416161706180609060895B0
:100ED00000240A9412161306140605060895092E16
:100EE0000394000C11F4882352F0BB0F40F4BF2B85
:100EF00011F460FF04C06F5F7F4F8F4F9F4F0895C5
:100F0000CF93DF938230910510F482E090E0E0917E
:100F10006F04F091700420E030E0C0E0D0E0309742
:100F200011F14081518148175907C0F048175907FE
:100F300061F482819381209719F09B838A832BC06F
:100F40009093700480936F0426C02115310519F029
:100F50004217530718F49A01BE01DF01EF01028026
:100F6000F381E02DDCCF2115310509F1281B390B68
:100F70002430310590F412968D919C911397611550
:100F8000710521F0FB019383828304C09093700468
:100F900080936F04FD01329644C0FD01E20FF31F00
:100FA00081939193225031092D933C933AC0209123
:100FB0006D0430916E04232B41F420910A0230918C
:100FC0000B0230936E0420936D042091080230913F
:100FD00009022115310541F42DB73EB740910C02AD
:100FE00050910D02241B350BE0916D04F0916E04BD
:100FF000E217F307A0F42E1B3F0B2817390778F0F0
:10100000AC014E5F5F4F2417350748F04E0F5F1F4E
:1010100050936E0440936D048193919302C0E0E07D
:10102000F0E0CF01DF91CF9108950F931F93CF93FD
:10103000DF93009709F48CC0FC013297138212826F
:1010400000916F04109170040115110581F4208145
:101050003181820F931F20916D0430916E04281707
:10106000390779F5F0936E04E0936D0471C0D801EF
:1010700040E050E0AE17BF0750F412962D913C911E
:101080001397AD012115310509F1D901F3CF9D0168
:10109000DA013383228360817181860F971F821763
:1010A000930769F4EC0128813981260F371F2E5FE1
:1010B0003F4F318320838A819B8193838283452B99
:1010C00029F4F0937004E0936F0442C01396FC93EC
:1010D000EE931297ED01499159919E01240F351F0E
:1010E000E217F30771F480819181840F951F0296B6
:1010F00011969C938E938281938113969C938E93E9
:101100001297E0E0F0E0D80112968D919C91139730
:10111000009719F0F8018C01F6CF8D919C91980100
:101120002E5F3F4F820F931F20916D0430916E040C
:101130002817390769F4309729F410927004109237
:101140006F0402C01382128210936E0400936D0428
:10115000DF91CF911F910F910895FB01DC0104C035
:101160008D910190801921F441505040C8F7881B9F
:10117000990B0895FB01DC0102C001900D924150D2
:101180005040D8F70895DC0101C06D9341505040A4
:10119000E0F70895CF93DF93CDB7DEB7AE014A5F96
:1011A0005F4FFA0161917191AF0180917304909149
:1011B00074040E94DE08DF91CF9108952F923F9230
:1011C0004F925F926F927F928F929F92AF92BF9257
:1011D000CF92DF92EF92FF920F931F93CF93DF9303
:1011E000CDB7DEB72C970FB6F894DEBF0FBECDBFDC
:1011F0007C016B018A01FC0117821682838181FFC9
:10120000BDC1CE0101964C01F7019381F60193FD1A
:10121000859193FF81916F01882309F4ABC18532D9
:1012200039F493FD859193FF81916F01853229F403
:10123000B70190E00E94EF0AE7CF512C312C20E05B
:101240002032A0F48B3269F030F4803259F08332CE
:1012500069F420612CC08D3239F0803339F421607B
:1012600026C02260246023C0286021C027FD27C03B
:1012700030ED380F3A3078F426FF06C0FAE05F9E72
:10128000300D1124532E13C08AE0389E300D1124E6
:10129000332E20620CC08E3221F426FD6BC12064F7
:1012A00006C08C3611F4206802C0883641F4F6017D
:1012B00093FD859193FF81916F018111C1CF982F8B
:1012C0009F7D9554933028F40C5F1F4FFFE3F98303
:1012D0000DC0833631F0833771F0833509F05BC080
:1012E00022C0F801808189830E5F1F4F44244394FC
:1012F000512C540115C03801F2E06F0E711CF80139
:10130000A080B18026FF03C0652D70E002C06FEFA2
:101310007FEFC5012C870E94E40A2C0183012C85F4
:101320002F77222E17C03801F2E06F0E711CF801E2
:10133000A080B18026FF03C0652D70E002C06FEF72
:101340007FEFC5012C870E94D90A2C012C852068CB
:10135000222E830123FC1BC0832D90E048165906E2
:10136000B0F4B70180E290E00E94EF0A3A94F4CF23
:10137000F50127FC859127FE81915F01B70190E07F
:101380000E94EF0A31103A94F1E04F1A51084114CB
:10139000510471F7E5C0843611F0893639F5F8014A
:1013A00027FF07C060817181828193810C5F1F4F8D
:1013B00008C060817181072E000C880B990B0E5FAD
:1013C0001F4F2F76722E97FF09C0909580957095CC
:1013D00061957F4F8F4F9F4F2068722E2AE030E03B
:1013E000A4010E94270BA82EA81844C0853729F411
:1013F0002F7EB22E2AE030E025C0F22FF97FBF2EDB
:101400008F36C1F018F4883579F0B4C0803719F000
:10141000883721F0AFC02F2F2061B22EB4FE0DC04F
:101420008B2D8460B82E09C024FF0AC09F2F9660C0
:10143000B92E06C028E030E005C020E130E002C04F
:1014400020E132E0F801B7FE07C06081718182813E
:1014500093810C5F1F4F06C06081718180E090E036
:101460000E5F1F4FA4010E94270BA82EA818FB2D6A
:10147000FF777F2E76FE0BC0372D3E7FA51450F4EC
:1014800074FE0AC072FC08C0372D3E7E05C0BA2C1F
:10149000372D03C0BA2C01C0B52C34FF0DC0FE019E
:1014A000EA0DF11D8081803311F4397E09C032FFCD
:1014B00006C0B394B39404C0832F867809F0B39424
:1014C00033FD13C030FF06C05A2CB31418F4530C6C
:1014D0005B18B32CB31468F4B70180E290E03C874A
:1014E0000E94EF0AB3943C85F5CFB31410F43B1877
:1014F00001C0312C34FF12C0B70180E390E03C877B
:101500000E94EF0A3C8532FF17C031FD03C088E717
:1015100090E002C088E590E0B7010CC0832F867888
:1015200059F031FF02C08BE201C080E237FD8DE24D
:10153000B70190E00E94EF0AA51438F4B70180E3E8
:1015400090E00E94EF0A5A94F7CFAA94F401EA0DB2
:10155000F11D8081B70190E00E94EF0AA110F5CF44
:10156000332009F451CEB70180E290E00E94EF0AE7
:101570003A94F6CFF7018681978102C08FEF9FEFF3
:101580002C960FB6F894DEBF0FBECDBFDF91CF9182
:101590001F910F91FF90EF90DF90CF90BF90AF9091
:1015A0009F908F907F906F905F904F903F902F9083
:1015B0000895FC010590615070400110D8F78095A6
:1015C00090958E0F9F1F0895FC016150704001900F
:1015D0000110D8F7809590958E0F9F1F08950F9357
:1015E0001F93CF93DF93FB01238121FD03C08FEF76
:1015F0009FEF28C022FF16C0468157812481358184
:101600004217530744F4A081B1819D012F5F3F4FE2
:10161000318320838C93268137812F5F3F4F37831F
:10162000268310C0EB01092F182F0084F185E02DCF
:101630001995892BE1F68E819F8101969F838E8378
:10164000812F902FDF91CF911F910F910895FA0173
:10165000AA27283051F1203181F1E8946F936E7FF1
:101660006E5F7F4F8F4F9F4FAF4FB1E03ED0B4E0E2
:101670003CD0670F781F891F9A1FA11D680F791F23
:101680008A1F911DA11D6A0F711D811D911DA11D34
:1016900020D009F468943F912AE0269F1124301944
:1016A000305D3193DEF6CF010895462F4770405DDF
:1016B0004193B3E00FD0C9F7F6CF462F4F70405D8E
:1016C0004A3318F0495D31FD4052419302D0A9F7E9
:1016D000EACFB4E0A6959795879577956795BA95E3
:1016E000C9F700976105710508959B01AC010A2EA9
:1016F00006945795479537952795BA95C9F7620F80
:0E170000731F841F951FA01D0895F894FFCF3E
:10170E000808080808080808000077042000657219
:10171E00726F72206E6F207061636B6574004F7311
:10172E0063696C6C6F73636F70696F006578747248
:10173E00616372206572726F723A2073697A6520E6
:10174E006D69736D6174636820256420213D2025C9
:04175E00640A000019
:00000001FF
