:100000000C9472000C9493000C9493000C94930045
:100010000C9493000C9493000C9493000C94930014
:100020000C9493000C9493000C9493000C94930004
:100030000C9493000C9493000C9493000C949300F4
:100040000C9493000C9493000C9493000C949300E4
:100050000C9493000C9493000C9493000C949300D4
:100060000C9493000C94A6010C94D7010C9493006B
:100070000C9493000C9493000C9493000C949300B4
:100080000C9493000C9493000C9493000C949300A4
:100090000C9493000C9493000C9493000C94930094
:1000A0000C9493000C9493000C9493000C94930084
:1000B0000C9493000C9493000C9493000C94950072
:1000C0000C9493000C9493000C9493000C94930064
:1000D0000C9493000C9493000C9493000C94930054
:1000E0000C94930011241FBECFEFD1E2DEBFCDBF31
:1000F00000E00CBF12E0A0E0B2E0E8E3F7E100E0CE
:100100000BBF02C007900D92A635B107D9F724E0C6
:10011000A6E5B2E001C01D92AE39B207E1F70E9438
:10012000F5040C949A0B0C9400001F920F920FB6DA
:100130000F9211240BB60F922F933F934F935F931F
:100140006F937F938F939F93AF93BF93EF93FF939F
:100150008091560290915702019690935702809396
:100160005602809100028830A1F00E94DF00909337
:1001700068048093670410926904809156029091FC
:10018000570290936C0480936B0480910002883036
:1001900061F781E080935802FF91EF91BF91AF9199
:1001A0009F918F917F916F915F914F913F912F918F
:1001B0000F900BBE0F900FBE0F901F9018951092CE
:1001C0007E00909164009E7F9093640090E89093ED
:1001D0007A0090917B00282F2870977F922B909324
:1001E0007B008770806480937C0080917A008064BB
:1001F00080937A0080917A0086FDFCCF8091780010
:100200002091790090E0922B089510927E00E4E610
:10021000F0E090819E7F9083EAE7F0E090E89083A1
:10022000ABE7B0E09C91282F2870977F922B9C938E
:100230008770806480937C008081806280838C9151
:10024000887F8C938081806480830895EAE7F0E062
:1002500080818F75808308951092620410926104EA
:100260001092C50080E18093C4001092590310924F
:100270005A0310925B0310925C0410925D0410927A
:100280005E0486E08093C20088E98093C100789480
:1002900089E592E0089580E091E0089580E091E0A2
:1002A0000895FC01EB5FFD4F808190E00895FC0113
:1002B000EE5FFE4F808190E00895FC01EE5FFE4FFF
:1002C000908120E031E0A901491B5109CA0108953C
:1002D000CF93DF93DC01AE5FBE4F2C91F894FC010D
:1002E000EF5FFE4F2081EC01C20FD11D688380813A
:1002F0008F5F808380818C918F5F8C937894E1EC09
:10030000F0E0808180628083DF91CF910895CF9368
:10031000DF939C01FC01EB5FFD4F90819923E9F392
:10032000F894E901CD5FDD4F8881280F311DD90197
:10033000AD5FBE4F8C9198819F5F9883988190812B
:10034000915090837894DF91CF9108951F920F92EE
:100350000FB60F9211240BB60F928F939F93AF930A
:10036000BF93CF93DF93EF93FF938091C600CEE5C9
:10037000D4E09881ADE5B4E0EC91F0E0E45AFC4FB4
:1003800080838C918F5F8C938C9188818F5F888321
:10039000FF91EF91DF91CF91BF91AF919F918F919D
:1003A0000F900BBE0F900FBE0F901F9018951F92CD
:1003B0000F920FB60F9211240BB60F928F93EF93FB
:1003C000FF9380915B038823F1F0E0915903F0E003
:1003D000E75AFD4F80818093C600809159038F5F5B
:1003E000809359038091590380915B0381508093DE
:1003F0005B03FF91EF918F910F900BBE0F900FBE9B
:100400000F901F9018958091C1008F7D8093C1003F
:10041000F0CFAF92BF92CF92DF92EF92FF920F9305
:100420001F93CF93DF9300D01F92CDB7DEB78C011F
:100430007A018DE0E80EF11CC7014B835C83698370
:100440007A830E9495076C018DE0E0E2F2E0D6012C
:1004500001900D928A95E1F74B815C8169817A81E7
:10046000C6010D960E94CF08E114F10439F19601FE
:10047000EC0CFD1CD801AE5FBE4F5D01F801EF5FD3
:10048000FE4FD9014D919D01D5018C91F894808149
:10049000B801680F711DDB014C9390819F5F9083C1
:1004A0008081D5019C919F5F9C9378949091C1002D
:1004B00090629093C1002E153F0519F7C6010F9069
:1004C0000F900F900F90DF91CF911F910F91FF90A0
:1004D000EF90DF90CF90BF90AF900C942A088F924E
:1004E0009F92AF92BF92CF92DF92EF92FF920F93C3
:1004F0001F93CF93DF93CDB7DEB7A5970FB6F894D0
:10050000DEBF0FBECDBF6C0149015A01CE0101967D
:100510000E944F0474016DE0E60EF11CC7010E94B9
:1005200095078C018DE0E0E2F2E0D80101900D9298
:100530008A95E1F7A401BE016F5F7F4FC8010D9658
:100540000E94CF08E114F10439F19801E00EF11E88
:10055000C6018E5F9E4F5C01F601EF5FFE4FD90131
:100560004D919D01D5018C91F8948081B601680F61
:10057000711DDB014C9380818F5F80838081D50169
:100580008C918F5F8C9378948091C100806280936E
:10059000C1002E153F0519F7C801A5960FB6F894AE
:1005A000DEBF0FBECDBFDF91CF911F910F91FF90A6
:1005B000EF90DF90CF90BF90AF909F908F900C9472
:1005C0002A08EF92FF920F931F93CF93DF93F89433
:1005D00020E030E0FC01E20FF31FED5FFE4FE08111
:1005E000EF3409F0D1C0D9011196FC01EA0FF11DD9
:1005F000ED5FFE4FE081E33709F0BEC0F9013296AE
:100600007C01EE0EF11CF701ED5FFE4FE081E33659
:1006100009F0B2C0F9013396EC01CE0FD11DFE01F5
:10062000ED5FFE4FE081E93609F0A6C0F90134968E
:100630007C01EE0EF11CF701ED5FFE4FE081EC3620
:1006400009F09AC0F9013596EC01CE0FD11DFE01DB
:10065000ED5FFE4FE081EC3609F08EC0F901369671
:100660007C01EE0EF11CF701ED5FFE4FE081EF36ED
:1006700009F082C0F9013796EC01CE0FD11DFE01C1
:10068000ED5FFE4FE081E33709F076C0F90138965F
:100690007C01EE0EF11CF701ED5FFE4FE081E336C9
:1006A00009F06AC0F9013996EC01CE0FD11DFE01A7
:1006B000ED5FFE4FE081EF3609F05EC0F9013A963A
:1006C0007C01EE0EF11CF701ED5FFE4FE081E0379B
:1006D00009F052C0F9013B96EC01CE0FD11DFE018D
:1006E000ED5FFE4FE081E93609F046C0F9013C9626
:1006F0007C01EE0EF11CF701ED5FFE4FE081EF365D
:10070000D9F5235F3F4F3327DC01AC5FBD4FEC9140
:10071000F0E0E901C40FD51FEC17FD0798F1411572
:100720005105B1F0E0E0F0E010E0EF01C20FD31F9F
:100730007C01EC0EF11CE701CD5FDE4FC881E60FB6
:10074000F71FC0831F5FE12FF0E0E417F50768F3A0
:100750001C92FC01ED5FFE4F80E091E0DF01EC01B7
:100760001D922197E9F781E07894DF91CF911F9155
:100770000F91FF90EF9008959D01211501E0300742
:1007800009F028CF80E0F0CF2F5F3F4FF6CFBC01BC
:10079000109220018DE08093210188EE93E00E9469
:1007A0005706072E000C880B990B0E949C0625E823
:1007B0003BEE49E751E40E9400070E946B067093EC
:1007C0002901609328010895892B31F480917300E9
:1007D0008D7F809373000895809173008260809371
:1007E00073000895AF92BF92CF92DF92EF92FF9283
:1007F0000F931F93CF93DF937C015B018A01CA01A2
:10080000880F991F0E9495076C01A801B7010E94EB
:10081000CF08A801B701C601800F911F0E94CF0821
:1008200001151105C9F1C0E0D0E004C02196C01740
:10083000D10759F04DE050E060E272E0C6018C0F44
:100840009D1F0E94C208892B89F70C171D0721F1F3
:10085000CE010D96E8012D9779F0F501CA0DDB1D4B
:10086000B8010E944306D701A80FB91F2C9121930C
:100870000196EC17FD07A1F7C6010E942A0881E046
:1008800090E0DF91CF911F910F91FF90EF90DF905B
:10089000CF90BF90AF9008958FEF9FEFF2CFCF92A0
:1008A000DF92EF92FF920F931F93CF93DF93CDB719
:1008B000DEB7A5970FB6F894DEBF0FBECDBF6C01B3
:1008C000CE0101967C0185E2F70111928A95E9F744
:1008D00029833A834B835C830D83211531054105C0
:1008E000510599F1DA01C9010197A109B1098C01FA
:1008F0000F5F1F4FA801CE0106960E94CF0800325D
:10090000110561F040E250E0401B510BC801059613
:1009100060E070E08E0D9F1D0E94D80885E2F7010F
:10092000D60101900D928A95E1F7C601A5960FB602
:10093000F894DEBF0FBECDBFDF91CF911F910F9115
:10094000FF90EF90DF90CF90089500E010E0DACFB5
:10095000CF92DF92EF92FF92CF93DF93EC01FB01F6
:1009600088819981AA81BB8182179307A407B50763
:10097000F9F4892B8A2B8B2BA1F0DE01159620E050
:1009800030E08D9181932F5F3F4F6901E12CF12C75
:10099000488159816A817B81C416D506E606F7062F
:1009A00080F3DF91CF91FF90EF90DF90CF9008958B
:1009B0005F934F933F932F93BF93AF939F938F93E7
:1009C0008EE292E09F938F930E94DF088DB79EB7CF
:1009D0000A960FB6F8949EBF0FBE8DBFDF91CF91E0
:1009E000FF90EF90DF90CF900895CF93DF93CDB736
:1009F000DEB76D970FB6F894DEBF0FBECDBF0E9475
:100A00002C017C0178942FEF81EE94E021508040FE
:100A10009040E1F700C0000032E1D32E47E0842E81
:100A200058E0C52E66E0562E75E0472EE4E03E2ED7
:100A300045E250E06DE674E0C7010E94E1028130BA
:100A4000B9F7809171048111F3CFEEE0F2E0DE019D
:100A500011968D2D01900D928A95E1F7DD8A02E0C5
:100A600025E130E040E050E0BE016F5F7F4FC701FD
:100A70000E946F02AFEFB1EE24E0A150B0402040E1
:100A8000E1F700C0000026E030E040E050E0BE01A9
:100A90006A5E7F4F8DE694E00E94A80400E026E0A5
:100AA00030E040E050E0BE016A5E7F4FC7010E9427
:100AB0006F028FEF91EEA4E081509040A040E1F7EB
:100AC00000C000001E894F89B98C888D8111B0CF7C
:100AD000842F90E09D8F8C8F40FDC2C0C092070292
:100AE00054E093E0A92E912C22E0622E712C61E05B
:100AF00070E085E090E026E030E0E0E0F0E041FDED
:100B0000A7C020503E4FD901CC929C01852F902F39
:100B10005A2D092DA62C972C42FD91C020503E4FF6
:100B2000D901CC929C01852F902F5A2D092D43FD80
:100B30007EC020503E4FD901CC929C01852F902F32
:100B400044FD71C020503E4FD901CC929C01CB0195
:100B5000BF0145FD63C0F901E050FE4FC0829C011A
:100B6000CB0146FD55C0F901E050FE4FC082AC8D6F
:100B7000BD8DAA0FAB2FAA1FBB0BFC01E050FE4F8F
:100B8000AB2B09F043C0C08210926304109264043E
:100B90001092650410926604109268041092670423
:100BA0001092690410926A0410926C0410926B0403
:100BB000812F90E00E94C70381E090E00E94E4034F
:100BC0001B9D5001112480915602909157028A1565
:100BD0009B05B8F4809158028823E1F301E02AE0F4
:100BE00030E040E050E063E674E0C7010E946F022D
:100BF0001092580280915602909157028A159B05D7
:100C000048F380E090E00E94E40312CF8082BCCFE2
:100C1000FC01E050FE4F5082C901A9CFFB01E0501A
:100C2000FE4F40829ECFE050FE4F308292CFE05088
:100C3000FE4FB3E0B083FB01652F702F81CFE050F2
:100C4000FE4FA2E07A2E7082FB016A2D792D6FCFC4
:100C5000E050FE4F222423942082FB01B3015CCF9D
:100C60001092000255E000E0B4E0AB2E912C83E03E
:100C7000682E712C62E070E086E090E027E030E0C2
:100C8000E1E0F0E03CCFAA1BBB1B51E107C0AA1F6B
:100C9000BB1FA617B70710F0A61BB70B881F991F1D
:100CA0005A95A9F780959095BC01CD01089597FBC1
:100CB000072E16F4009407D077FD09D00E94430652
:100CC00007FC05D03EF4909581959F4F089570954F
:100CD00061957F4F08950E94DF0688F09F5798F036
:100CE000B92F9927B751B0F0E1F0660F771F881F31
:100CF000991F1AF0BA95C9F714C0B13091F00E944B
:100D0000F906B1E008950C94F906672F782F88272B
:100D1000B85F39F0B93FCCF3869577956795B39571
:100D2000D9F73EF490958095709561957F4F8F4FE0
:100D30009F4F0895E89409C097FB3EF490958095E5
:100D4000709561957F4F8F4F9F4F9923A9F0F92F91
:100D500096E9BB279395F695879577956795B7950F
:100D6000F111F8CFFAF4BB0F11F460FF1BC06F5FF5
:100D70007F4F8F4F9F4F16C0882311F096E911C007
:100D8000772321F09EE8872F762F05C0662371F028
:100D900096E8862F70E060E02AF09A95660F771F3C
:100DA000881FDAF7880F9695879597F9089557FD6C
:100DB0009058440F551F59F05F3F71F04795880FC9
:100DC00097FB991F61F09F3F79F087950895121660
:100DD00013061406551FF2CF4695F1DF08C016160C
:100DE00017061806991FF1CF8695710561050894BD
:100DF0000895E894BB2766277727CB0197F90895D4
:100E00000E9413070C9484070E94760738F00E9412
:100E10007D0720F0952311F00C946D070C94730757
:100E200011240C94FA060E94D70670F3959FC1F323
:100E3000950F50E0551F629FF001729FBB27F00D88
:100E4000B11D639FAA27F00DB11DAA1F649F6627DD
:100E5000B00DA11D661F829F2227B00DA11D621F2C
:100E6000739FB00DA11D621F839FA00D611D221FE6
:100E7000749F3327A00D611D231F849F600D211DCA
:100E8000822F762F6A2F11249F5750409AF0F1F04D
:100E900088234AF0EE0FFF1FBB1F661F771F881FB6
:100EA00091505040A9F79E3F510580F00C946D077A
:100EB0000C94FA065F3FE4F3983ED4F38695779559
:100EC0006795B795F795E7959F5FC1F7FE2B880F5C
:100ED000911D9695879597F9089597F99F6780E8F2
:100EE00070E060E008959FEF80EC089500240A947C
:100EF0001616170618060906089500240A941216F5
:100F00001306140605060895092E0394000C11F427
:100F1000882352F0BB0F40F4BF2B11F460FF04C0D4
:100F20006F5F7F4F8F4F9F4F0895CF93DF93823036
:100F3000910510F482E090E0E0919604F09197041E
:100F400020E030E0C0E0D0E0309711F140815181E5
:100F500048175907C0F04817590761F482819381F7
:100F6000209719F09B838A832BC0909397048093DA
:100F7000960426C02115310519F04217530718F4BD
:100F80009A01BE01DF01EF010280F381E02DDCCF89
:100F90002115310509F1281B390B2430310590F456
:100FA00012968D919C9113976115710521F0FB01AB
:100FB0009383828304C09093970480939604FD01E9
:100FC000329644C0FD01E20FF31F819391932250AA
:100FD00031092D933C933AC02091940430919504AB
:100FE000232B41F420910A0230910B023093950497
:100FF00020939404209108023091090221153105B3
:1010000041F42DB73EB740910C0250910D02241BC4
:10101000350BE0919404F0919504E217F307A0F4E6
:101020002E1B3F0B2817390778F0AC014E5F5F4F3E
:101030002417350748F04E0F5F1F509395044093D7
:1010400094048193919302C0E0E0F0E0CF01DF913E
:10105000CF9108950F931F93CF93DF93009709F4D7
:101060008CC0FC0132971382128200919604109179
:1010700097040115110581F420813181820F931F9E
:1010800020919404309195042817390779F5F0934D
:101090009504E093940471C0D80140E050E0AE178D
:1010A000BF0750F412962D913C911397AD01211575
:1010B000310509F1D901F3CF9D01DA013383228390
:1010C00060817181860F971F8217930769F4EC0185
:1010D00028813981260F371F2E5F3F4F31832083B0
:1010E0008A819B8193838283452B29F4F093970413
:1010F000E093960442C01396FC93EE931297ED0191
:10110000499159919E01240F351FE217F30771F49D
:1011100080819181840F951F029611969C938E93E6
:101120008281938113969C938E931297E0E0F0E076
:10113000D80112968D919C911397009719F0F801A0
:101140008C01F6CF8D919C9198012E5F3F4F820FBD
:10115000931F20919404309195042817390769F45E
:10116000309729F4109297041092960402C01382CB
:1011700012821093950400939404DF91CF911F91F4
:101180000F910895FB01DC0104C08D91019080193D
:1011900021F441505040C8F7881B990B0895FB017A
:1011A000DC0102C001900D9241505040D8F70895E3
:1011B000DC0101C06D9341505040E0F70895CF939A
:1011C000DF93CDB7DEB7AE014A5F5F4FFA016191A1
:1011D0007191AF0180919A0490919B040E94F30851
:1011E000DF91CF9108952F923F924F925F926F922D
:1011F0007F928F929F92AF92BF92CF92DF92EF92A7
:10120000FF920F931F93CF93DF93CDB7DEB72C9749
:101210000FB6F894DEBF0FBECDBF7C016B018A0113
:10122000FC0117821682838181FFBDC1CE01019628
:101230004C01F7019381F60193FD859193FF819114
:101240006F01882309F4ABC1853239F493FD859190
:1012500093FF81916F01853229F4B70190E00E94DC
:10126000040BE7CF512C312C20E02032A0F48B323C
:1012700069F030F4803259F0833269F420612CC077
:101280008D3239F0803339F4216026C02260246029
:1012900023C0286021C027FD27C030ED380F3A3029
:1012A00078F426FF06C0FAE05F9E300D1124532E1D
:1012B00013C08AE0389E300D1124332E20620CC0FA
:1012C0008E3221F426FD6BC1206406C08C3611F4E9
:1012D000206802C0883641F4F60193FD859193FFA2
:1012E00081916F018111C1CF982F9F7D95549330CB
:1012F00028F40C5F1F4FFFE3F9830DC0833631F0F4
:10130000833771F0833509F05BC022C0F80180811A
:1013100089830E5F1F4F44244394512C540115C000
:101320003801F2E06F0E711CF801A080B18026FF39
:1013300003C0652D70E002C06FEF7FEFC5012C8701
:101340000E94F90A2C0183012C852F77222E17C0C9
:101350003801F2E06F0E711CF801A080B18026FF09
:1013600003C0652D70E002C06FEF7FEFC5012C87D1
:101370000E94EE0A2C012C852068222E830123FC7A
:101380001BC0832D90E048165906B0F4B70180E2E7
:1013900090E00E94040B3A94F4CFF50127FC85916C
:1013A00027FE81915F01B70190E00E94040B31108C
:1013B0003A94F1E04F1A51084114510471F7E5C015
:1013C000843611F0893639F5F80127FF07C06081AE
:1013D0007181828193810C5F1F4F08C06081718190
:1013E000072E000C880B990B0E5F1F4F2F76722E65
:1013F00097FF09C090958095709561957F4F8F4FAD
:101400009F4F2068722E2AE030E0A4010E943C0B1E
:10141000A82EA81844C0853729F42F7EB22E2AE0C2
:1014200030E025C0F22FF97FBF2E8F36C1F018F4BF
:10143000883579F0B4C0803719F0883721F0AFC013
:101440002F2F2061B22EB4FE0DC08B2D8460B82EDC
:1014500009C024FF0AC09F2F9660B92E06C028E05D
:1014600030E005C020E130E002C020E132E0F801C8
:10147000B7FE07C060817181828193810C5F1F4F2D
:1014800006C06081718180E090E00E5F1F4FA40173
:101490000E943C0BA82EA818FB2DFF777F2E76FE0E
:1014A0000BC0372D3E7FA51450F474FE0AC072FCA9
:1014B00008C0372D3E7E05C0BA2C372D03C0BA2C8C
:1014C00001C0B52C34FF0DC0FE01EA0DF11D808175
:1014D000803311F4397E09C032FF06C0B394B3944F
:1014E00004C0832F867809F0B39433FD13C030FF16
:1014F00006C05A2CB31418F4530C5B18B32CB31455
:1015000068F4B70180E290E03C870E94040BB3943A
:101510003C85F5CFB31410F43B1801C0312C34FFD7
:1015200012C0B70180E390E03C870E94040B3C8529
:1015300032FF17C031FD03C088E790E002C088E5A4
:1015400090E0B7010CC0832F867859F031FF02C0BC
:101550008BE201C080E237FD8DE2B70190E00E948E
:10156000040BA51438F4B70180E390E00E94040B4B
:101570005A94F7CFAA94F401EA0DF11D8081B701C6
:1015800090E00E94040BA110F5CF332009F451CE56
:10159000B70180E290E00E94040B3A94F6CFF70185
:1015A0008681978102C08FEF9FEF2C960FB6F8943B
:1015B000DEBF0FBECDBFDF91CF911F910F91FF9086
:1015C000EF90DF90CF90BF90AF909F908F907F90E3
:1015D0006F905F904F903F902F900895FC01059081
:1015E000615070400110D8F7809590958E0F9F1F25
:1015F0000895FC016150704001900110D8F780956A
:1016000090958E0F9F1F08950F931F93CF93DF9395
:10161000FB01238121FD03C08FEF9FEF28C022FF34
:1016200016C046815781248135814217530744F4FF
:10163000A081B1819D012F5F3F4F318320838C9327
:10164000268137812F5F3F4F3783268310C0EB0100
:10165000092F182F0084F185E02D1995892BE1F6CB
:101660008E819F8101969F838E83812F902FDF91A2
:10167000CF911F910F910895FA01AA27283051F1B7
:10168000203181F1E8946F936E7F6E5F7F4F8F4FB3
:101690009F4FAF4FB1E03ED0B4E03CD0670F781F12
:1016A000891F9A1FA11D680F791F8A1F911DA11DF7
:1016B0006A0F711D811D911DA11D20D009F4689430
:1016C0003F912AE0269F11243019305D3193DEF6D8
:1016D000CF010895462F4770405D4193B3E00FD08E
:1016E000C9F7F6CF462F4F70405D4A3318F0495D79
:1016F00031FD4052419302D0A9F7EACFB4E0A6955C
:101700009795879577956795BA95C9F7009761057D
:10171000710508959B01AC010A2E069457954795D3
:1017200037952795BA95C9F7620F731F841F951FC8
:08173000A01D0895F894FFCFFD
:10173800080808080808080800009E042000666FCA
:10174800756E6420696E6974207061636B657400DE
:101758004F7363696C6C6F73636F70696F00657842
:101768007472616372206572726F723A2073697A5B
:1017780065206D69736D6174636820256420213D5F
:061788002025640A0000A8
:00000001FF
