:100000000C9472000C9493000C9493000C94930045
:100010000C9493000C9493000C9493000C94930014
:100020000C9493000C9493000C9493000C94930004
:100030000C9493000C9493000C9493000C949300F4
:100040000C9493000C9493000C9493000C949300E4
:100050000C9493000C9493000C9493000C949300D4
:100060000C9493000C94A6010C94D7010C9493006B
:100070000C9493000C9493000C9493000C949300B4
:100080000C9493000C9493000C9493000C949300A4
:100090000C9493000C9493000C9493000C94930094
:1000A0000C9493000C9493000C9493000C94930084
:1000B0000C9493000C9493000C9493000C94950072
:1000C0000C9493000C9493000C9493000C94930064
:1000D0000C9493000C9493000C9493000C94930054
:1000E0000C94930011241FBECFEFD1E2DEBFCDBF31
:1000F00000E00CBF12E0A0E0B2E0E2E6F7E100E0D1
:100100000BBF02C007900D92A436B107D9F724E0C7
:10011000A4E6B2E001C01D92A738B207E1F70E9441
:10012000F5040C94AF0B0C9400001F920F920FB6C5
:100130000F9211240BB60F922F933F934F935F931F
:100140006F937F938F939F93AF93BF93EF93FF939F
:10015000809164029091650201969093650280936C
:100160006402809100028830A1F00E94DF00909329
:1001700076048093750410927704809164029091C4
:10018000650290937A04809379048091000288300C
:1001900061F781E080936602FF91EF91BF91AF918B
:1001A0009F918F917F916F915F914F913F912F918F
:1001B0000F900BBE0F900FBE0F901F9018951092CE
:1001C0007E00909164009E7F9093640090E89093ED
:1001D0007A0090917B00282F2870977F922B909324
:1001E0007B008770806480937C0080917A008064BB
:1001F00080937A0080917A0086FDFCCF8091780010
:100200002091790090E0922B089510927E00E4E610
:10021000F0E090819E7F9083EAE7F0E090E89083A1
:10022000ABE7B0E09C91282F2870977F922B9C938E
:100230008770806480937C008081806280838C9151
:10024000887F8C938081806480830895EAE7F0E062
:1002500080818F75808308951092700410926F04CE
:100260001092C50080E18093C40010926703109241
:1002700068031092690310926A0410926B04109242
:100280006C0486E08093C20088E98093C100789472
:1002900087E692E0089580E091E0089580E091E0A3
:1002A0000895FC01EB5FFD4F808190E00895FC0113
:1002B000EE5FFE4F808190E00895FC01EE5FFE4FFF
:1002C000908120E031E0A901491B5109CA0108953C
:1002D000CF93DF93DC01AE5FBE4F2C91F894FC010D
:1002E000EF5FFE4F2081EC01C20FD11D688380813A
:1002F0008F5F808380818C918F5F8C937894E1EC09
:10030000F0E0808180628083DF91CF910895CF9368
:10031000DF939C01FC01EB5FFD4F90819923E9F392
:10032000F894E901CD5FDD4F8881280F311DD90197
:10033000AD5FBE4F8C9198819F5F9883988190812B
:10034000915090837894DF91CF9108951F920F92EE
:100350000FB60F9211240BB60F928F939F93AF930A
:10036000BF93CF93DF93EF93FF938091C600CCE6CA
:10037000D4E09881ABE6B4E0EC91F0E0E659FC4FB4
:1003800080838C918F5F8C938C9188818F5F888321
:10039000FF91EF91DF91CF91BF91AF919F918F919D
:1003A0000F900BBE0F900FBE0F901F9018951F92CD
:1003B0000F920FB60F9211240BB60F928F93EF93FB
:1003C000FF93809169038823F1F0E0916703F0E0E7
:1003D000E959FD4F80818093C600809167038F5F4C
:1003E00080936703809167038091690381508093B4
:1003F0006903FF91EF918F910F900BBE0F900FBE8D
:100400000F901F9018958091C1008F7D8093C1003F
:10041000F0CFAF92BF92CF92DF92EF92FF920F9305
:100420001F93CF93DF9300D01F92CDB7DEB78C011F
:100430007A018DE0E80EF11CC7014B835C83698370
:100440007A830E94AA076C018DE0EEE2F2E0D60109
:1004500001900D928A95E1F74B815C8169817A81E7
:10046000C6010D960E94E408E114F10439F19601E9
:10047000EC0CFD1CD801AE5FBE4F5D01F801EF5FD3
:10048000FE4FD9014D919D01D5018C91F894808149
:10049000B801680F711DDB014C9390819F5F9083C1
:1004A0008081D5019C919F5F9C9378949091C1002D
:1004B00090629093C1002E153F0519F7C6010F9069
:1004C0000F900F900F90DF91CF911F910F91FF90A0
:1004D000EF90DF90CF90BF90AF900C943F088F9239
:1004E0009F92AF92BF92CF92DF92EF92FF920F93C3
:1004F0001F93CF93DF93CDB7DEB7A5970FB6F894D0
:10050000DEBF0FBECDBF6C0149015A01CE0101967D
:100510000E944F0474016DE0E60EF11CC7010E94B9
:10052000AA078C018DE0EEE2F2E0D80101900D9275
:100530008A95E1F7A401BE016F5F7F4FC8010D9658
:100540000E94E408E114F10439F19801E00EF11E73
:10055000C6018E5F9E4F5C01F601EF5FFE4FD90131
:100560004D919D01D5018C91F8948081B601680F61
:10057000711DDB014C9380818F5F80838081D50169
:100580008C918F5F8C9378948091C100806280936E
:10059000C1002E153F0519F7C801A5960FB6F894AE
:1005A000DEBF0FBECDBFDF91CF911F910F91FF90A6
:1005B000EF90DF90CF90BF90AF909F908F900C9472
:1005C0003F08EF92FF920F931F93CF93DF93F8941E
:1005D00020E030E0FC01E20FF31FED5FFE4FE08111
:1005E000EF3409F0D1C0D9011196FC01EA0FF11DD9
:1005F000ED5FFE4FE081E33709F0BEC0F9013296AE
:100600007C01EE0EF11CF701ED5FFE4FE081E33659
:1006100009F0B2C0F9013396EC01CE0FD11DFE01F5
:10062000ED5FFE4FE081E93609F0A6C0F90134968E
:100630007C01EE0EF11CF701ED5FFE4FE081EC3620
:1006400009F09AC0F9013596EC01CE0FD11DFE01DB
:10065000ED5FFE4FE081EC3609F08EC0F901369671
:100660007C01EE0EF11CF701ED5FFE4FE081EF36ED
:1006700009F082C0F9013796EC01CE0FD11DFE01C1
:10068000ED5FFE4FE081E33709F076C0F90138965F
:100690007C01EE0EF11CF701ED5FFE4FE081E336C9
:1006A00009F06AC0F9013996EC01CE0FD11DFE01A7
:1006B000ED5FFE4FE081EF3609F05EC0F9013A963A
:1006C0007C01EE0EF11CF701ED5FFE4FE081E0379B
:1006D00009F052C0F9013B96EC01CE0FD11DFE018D
:1006E000ED5FFE4FE081E93609F046C0F9013C9626
:1006F0007C01EE0EF11CF701ED5FFE4FE081EF365D
:10070000D9F5235F3F4F3327DC01AC5FBD4FEC9140
:10071000F0E0E901C40FD51FEC17FD0798F1411572
:100720005105B1F0E0E0F0E010E0EF01C20FD31F9F
:100730007C01EC0EF11CE701CD5FDE4FC881E60FB6
:10074000F71FC0831F5FE12FF0E0E417F50768F3A0
:100750001C92FC01ED5FFE4F80E091E0DF01EC01B7
:100760001D922197E9F781E07894DF91CF911F9155
:100770000F91FF90EF9008959D01211501E0300742
:1007800009F028CF80E0F0CF2F5F3F4FF6CFBC01BC
:10079000109220018DE08093210188EE93E00E9469
:1007A0006C06072E000C880B990B0E94B10625E8F9
:1007B0003BEE49E751E40E9415070E9480067093C2
:1007C0002901609328010895892B31F480917300E9
:1007D0008D7F809373000895809173008260809371
:1007E00073000895AF92BF92CF92DF92EF92FF9283
:1007F0000F931F93CF93DF937C015B018A01CA01A2
:10080000880F991F0E94AA076C01A801B7010E94D6
:10081000E408A801B701C601800F911F0E94E408F7
:1008200001151105C9F1C0E0D0E004C02196C01740
:10083000D10759F04DE050E06EE272E0C6018C0F36
:100840009D1F0E94D708892B89F70C171D0721F1DE
:10085000CE010D96E8012D9779F0F501CA0DDB1D4B
:10086000B8010E945806D701A80FB91F2C912193F7
:100870000196EC17FD07A1F7C6010E943F0881E031
:1008800090E0DF91CF911F910F91FF90EF90DF905B
:10089000CF90BF90AF9008958FEF9FEFF2CFCF92A0
:1008A000DF92EF92FF920F931F93CF93DF93CDB719
:1008B000DEB7A5970FB6F894DEBF0FBECDBF6C01B3
:1008C000CE0101967C0185E2F70111928A95E9F744
:1008D00029833A834B835C830D83211531054105C0
:1008E000510599F1DA01C9010197A109B1098C01FA
:1008F0000F5F1F4FA801CE0106960E94E408003248
:10090000110561F040E250E0401B510BC801059613
:1009100060E070E08E0D9F1D0E94ED0885E2F701FA
:10092000D60101900D928A95E1F7C601A5960FB602
:10093000F894DEBF0FBECDBFDF91CF911F910F9115
:10094000FF90EF90DF90CF90089500E010E0DACFB5
:10095000CF92DF92EF92FF92CF93DF93EC01FB01F6
:1009600088819981AA81BB8182179307A407B50763
:10097000F9F4892B8A2B8B2BA1F0DE01159620E050
:1009800030E08D9181932F5F3F4F6901E12CF12C75
:10099000488159816A817B81C416D506E606F7062F
:1009A00080F3DF91CF91FF90EF90DF90CF9008958B
:1009B0005F934F933F932F93BF93AF939F938F93E7
:1009C0008CE392E09F938F930E94F4088DB79EB7BB
:1009D0000A960FB6F8949EBF0FBE8DBFDF91CF91E0
:1009E000FF90EF90DF90CF900895CF93DF93CDB736
:1009F000DEB7C755D1090FB6F894DEBF0FBECDBF25
:100A00000E942C017C0178941FE097E0892E28E059
:100A1000D22E36E0532E45E0442E54E0352E45E2EA
:100A200050E0BE016F5F7F4FC7010E94E10281303D
:100A3000B1F7EEE0F2E0DE01DB96812F01900D923E
:100A40008A95E1F760961FAF609702E025E130E0FC
:100A500040E050E0BE01655C7F4FC7010E946F021D
:100A60008D818111DCCFEEE1F2E0DE019696812FDF
:100A700001900D928A95E1F71AAF25E130E040E050
:100A800050E0BE016A5D7F4FC7010E946F0226E001
:100A900030E040E050E0BE01605B7F4FCE01019648
:100AA0000E94A80461960FAD619762964FAD629760
:100AB0006496CFAC649763968FAD63978111AFCF87
:100AC000A42EB12C40FDDCC0D092070254E0679602
:100AD0005FAF679750E083E068968FAF6897912C7F
:100AE00082E0682E712C61E070E085E090E026E005
:100AF00030E0E0E0F0E041FDBBC020503E4FD901C6
:100B0000DC929C0167968FAD6797952F6896BFAD75
:100B100068976796BFAF6797592D68966FAE6897CD
:100B2000972C42FD9AC020503E4FD901DC929C0187
:100B300067968FAD6797952F6896BFAD6897679654
:100B4000BFAF6797592D43FD7EC020503E4FD9015E
:100B5000DC929C0167968FAD6797952F44FD6FC01F
:100B6000D901A050BE4FDC929C01CB01BF0145FDD5
:100B700061C0F901E050FE4FD0829C01CB0146FDDF
:100B800053C0F901E050FE4FD082AA0CAB2CAA1C36
:100B9000BB08FC01E050FE4FAB2809F043C0D082F7
:100BA00010927104109272041092730410927404E3
:100BB00010927604109275041092770410927804C3
:100BC00010927A0410927904802F90E00E94C7035B
:100BD00081E090E00E94E4030C9D5001112480917B
:100BE0006402909165028A159B05B8F480916602B3
:100BF0008823E1F301E02AE030E040E050E061E7E3
:100C000074E0C7010E946F02109266028091640234
:100C1000909165028A159B0548F380E090E00E9460
:100C2000E403FDCE8082BCCFFC01E050FE4F508239
:100C3000C901ABCFFB01E050FE4F4082A0CFE05096
:100C4000FE4F308294CFE050FE4FB3E0B083FB0103
:100C500067966FAD6797752F81CFE050FE4FA2E08A
:100C60007A2E7082FB0168966FAD6897792D6BCFF5
:100C7000E050FE4F222423942082FB01B30151CF88
:100C800010920002A5E06796AFAF679750E0B4E01E
:100C90006896BFAF6897912CB3E06B2E712C62E021
:100CA00070E086E090E027E030E0E1E0F0E023CF84
:100CB000AA1BBB1B51E107C0AA1FBB1FA617B70782
:100CC00010F0A61BB70B881F991F5A95A9F780959E
:100CD0009095BC01CD01089597FB072E16F4009462
:100CE00007D077FD09D00E94580607FC05D03EF4D6
:100CF000909581959F4F0895709561957F4F0895C8
:100D00000E94F40688F09F5798F0B92F9927B751A1
:100D1000B0F0E1F0660F771F881F991F1AF0BA959F
:100D2000C9F714C0B13091F00E940E07B1E00895E8
:100D30000C940E07672F782F8827B85F39F0B93FDA
:100D4000CCF3869577956795B395D9F73EF4909552
:100D50008095709561957F4F8F4F9F4F0895E894D0
:100D600009C097FB3EF490958095709561957F4FF3
:100D70008F4F9F4F9923A9F0F92F96E9BB279395A1
:100D8000F695879577956795B795F111F8CFFAF4B1
:100D9000BB0F11F460FF1BC06F5F7F4F8F4F9F4FE2
:100DA00016C0882311F096E911C0772321F09EE840
:100DB000872F762F05C0662371F096E8862F70E0A6
:100DC00060E02AF09A95660F771F881FDAF7880F80
:100DD0009695879597F9089557FD9058440F551F9C
:100DE00059F05F3F71F04795880F97FB991F61F0AD
:100DF0009F3F79F087950895121613061406551F24
:100E0000F2CF4695F1DF08C0161617061806991F8F
:100E1000F1CF86957105610508940895E894BB2784
:100E200066277727CB0197F908950E9428070C942D
:100E300099070E948B0738F00E94920720F09523B3
:100E400011F00C9482070C94880711240C940F075E
:100E50000E94EC0670F3959FC1F3950F50E0551F6B
:100E6000629FF001729FBB27F00DB11D639FAA27FF
:100E7000F00DB11DAA1F649F6627B00DA11D661F4E
:100E8000829F2227B00DA11D621F739FB00DA11D6F
:100E9000621F839FA00D611D221F749F3327A00D29
:100EA000611D231F849F600D211D822F762F6A2FC5
:100EB00011249F5750409AF0F1F088234AF0EE0F2A
:100EC000FF1FBB1F661F771F881F91505040A9F757
:100ED0009E3F510580F00C9482070C940F075F3FF2
:100EE000E4F3983ED4F3869577956795B795F79593
:100EF000E7959F5FC1F7FE2B880F911D969587950B
:100F000097F9089597F99F6780E870E060E0089589
:100F10009FEF80EC089500240A9416161706180611
:100F20000906089500240A941216130614060506ED
:100F30000895092E0394000C11F4882352F0BB0F7E
:100F400040F4BF2B11F460FF04C06F5F7F4F8F4FE1
:100F50009F4F0895CF93DF938230910510F482E084
:100F600090E0E0917F04F091800420E030E0C0E068
:100F7000D0E0309711F14081518148175907C0F0F6
:100F80004817590761F482819381209719F09B8358
:100F90008A832BC09093800480937F0426C0211500
:100FA000310519F04217530718F49A01BE01DF0109
:100FB000EF010280F381E02DDCCF2115310509F12D
:100FC000281B390B2430310590F412968D919C9199
:100FD00013976115710521F0FB019383828304C08F
:100FE0009093800480937F04FD01329644C0FD01FC
:100FF000E20FF31F81939193225031092D933C937B
:101000003AC020917D0430917E04232B41F420913D
:101010000A0230910B0230937E0420937D042091CC
:101020000802309109022115310541F42DB73EB770
:1010300040910C0250910D02241B350BE0917D0470
:10104000F0917E04E217F307A0F42E1B3F0B281744
:10105000390778F0AC014E5F5F4F2417350748F031
:101060004E0F5F1F50937E0440937D0481939193B4
:1010700002C0E0E0F0E0CF01DF91CF9108950F933F
:101080001F93CF93DF93009709F48CC0FC01329734
:101090001382128200917F041091800401151105C2
:1010A00081F420813181820F931F20917D04309142
:1010B0007E042817390779F5F0937E04E0937D04C8
:1010C00071C0D80140E050E0AE17BF0750F412964F
:1010D0002D913C911397AD012115310509F1D901ED
:1010E000F3CF9D01DA013383228360817181860F02
:1010F000971F8217930769F4EC0128813981260F25
:10110000371F2E5F3F4F318320838A819B819383DA
:101110008283452B29F4F0938004E0937F0442C03E
:101120001396FC93EE931297ED01499159919E010C
:10113000240F351FE217F30771F480819181840F2A
:10114000951F029611969C938E938281938113969C
:101150009C938E931297E0E0F0E0D80112968D9167
:101160009C911397009719F0F8018C01F6CF8D919F
:101170009C9198012E5F3F4F820F931F20917D0419
:1011800030917E042817390769F4309729F41092BA
:10119000800410927F0402C01382128210937E0496
:1011A00000937D04DF91CF911F910F910895FB0172
:1011B000DC0104C08D910190801921F44150504010
:1011C000C8F7881B990B0895FB01DC0102C0019050
:1011D0000D9241505040D8F70895DC0101C06D9345
:1011E00041505040E0F70895CF93DF93CDB7DEB77D
:1011F000AE014A5F5F4FFA0161917191AF01809139
:101200008304909184040E940809DF91CF9108958E
:101210002F923F924F925F926F927F928F929F9206
:10122000AF92BF92CF92DF92EF92FF920F931F93F4
:10123000CF93DF93CDB7DEB72C970FB6F894DEBF10
:101240000FBECDBF7C016B018A01FC0117821682A3
:10125000838181FFBDC1CE0101964C01F7019381CD
:10126000F60193FD859193FF81916F01882309F425
:10127000ABC1853239F493FD859193FF81916F0164
:10128000853229F4B70190E00E94190BE7CF512C69
:10129000312C20E02032A0F48B3269F030F480321F
:1012A00059F0833269F420612CC08D3239F08033DB
:1012B00039F4216026C02260246023C0286021C048
:1012C00027FD27C030ED380F3A3078F426FF06C0EE
:1012D000FAE05F9E300D1124532E13C08AE0389E31
:1012E000300D1124332E20620CC08E3221F426FDE5
:1012F0006BC1206406C08C3611F4206802C08836A9
:1013000041F4F60193FD859193FF81916F01811165
:10131000C1CF982F9F7D9554933028F40C5F1F4FB9
:10132000FFE3F9830DC0833631F0833771F08335E5
:1013300009F05BC022C0F801808189830E5F1F4FD6
:1013400044244394512C540115C03801F2E06F0E2F
:10135000711CF801A080B18026FF03C0652D70E0EC
:1013600002C06FEF7FEFC5012C870E940E0B2C018E
:1013700083012C852F77222E17C03801F2E06F0EE3
:10138000711CF801A080B18026FF03C0652D70E0BC
:1013900002C06FEF7FEFC5012C870E94030B2C0169
:1013A0002C852068222E830123FC1BC0832D90E016
:1013B00048165906B0F4B70180E290E00E94190B7C
:1013C0003A94F4CFF50127FC859127FE81915F01C6
:1013D000B70190E00E94190B31103A94F1E04F1AD6
:1013E00051084114510471F7E5C0843611F0893673
:1013F00039F5F80127FF07C06081718182819381EF
:101400000C5F1F4F08C060817181072E000C880B94
:10141000990B0E5F1F4F2F76722E97FF09C0909584
:101420008095709561957F4F8F4F9F4F2068722EEA
:101430002AE030E0A4010E94510BA82EA81844C055
:10144000853729F42F7EB22E2AE030E025C0F22F16
:10145000F97FBF2E8F36C1F018F4883579F0B4C00B
:10146000803719F0883721F0AFC02F2F2061B22EBE
:10147000B4FE0DC08B2D8460B82E09C024FF0AC0B5
:101480009F2F9660B92E06C028E030E005C020E10D
:1014900030E002C020E132E0F801B7FE07C0608111
:1014A0007181828193810C5F1F4F06C060817181C1
:1014B00080E090E00E5F1F4FA4010E94510BA82E08
:1014C000A818FB2DFF777F2E76FE0BC0372D3E7FB1
:1014D000A51450F474FE0AC072FC08C0372D3E7E7D
:1014E00005C0BA2C372D03C0BA2C01C0B52C34FF6F
:1014F0000DC0FE01EA0DF11D8081803311F4397EAB
:1015000009C032FF06C0B394B39404C0832F867819
:1015100009F0B39433FD13C030FF06C05A2CB31446
:1015200018F4530C5B18B32CB31468F4B70180E2C1
:1015300090E03C870E94190BB3943C85F5CFB3141F
:1015400010F43B1801C0312C34FF12C0B70180E306
:1015500090E03C870E94190B3C8532FF17C031FD9B
:1015600003C088E790E002C088E590E0B7010CC0B6
:10157000832F867859F031FF02C08BE201C080E2F0
:1015800037FD8DE2B70190E00E94190BA51438F4E5
:10159000B70180E390E00E94190B5A94F7CFAA9408
:1015A000F401EA0DF11D8081B70190E00E94190B52
:1015B000A110F5CF332009F451CEB70180E290E0BD
:1015C0000E94190B3A94F6CFF7018681978102C0E9
:1015D0008FEF9FEF2C960FB6F894DEBF0FBECDBFF6
:1015E000DF91CF911F910F91FF90EF90DF90CF90FF
:1015F000BF90AF909F908F907F906F905F904F9033
:101600003F902F900895FC010590615070400110AB
:10161000D8F7809590958E0F9F1F0895FC0161501B
:10162000704001900110D8F7809590958E0F9F1F04
:1016300008950F931F93CF93DF93FB01238121FD27
:1016400003C08FEF9FEF28C022FF16C0468157814D
:10165000248135814217530744F4A081B1819D0153
:101660002F5F3F4F318320838C93268137812F5FFB
:101670003F4F3783268310C0EB01092F182F0084BA
:10168000F185E02D1995892BE1F68E819F810196D8
:101690009F838E83812F902FDF91CF911F910F9188
:1016A0000895FA01AA27283051F1203181F1E894F8
:1016B0006F936E7F6E5F7F4F8F4F9F4FAF4FB1E045
:1016C0003ED0B4E03CD0670F781F891F9A1FA11D40
:1016D000680F791F8A1F911DA11D6A0F711D811D41
:1016E000911DA11D20D009F468943F912AE0269F06
:1016F00011243019305D3193DEF6CF010895462F65
:101700004770405D4193B3E00FD0C9F7F6CF462F45
:101710004F70405D4A3318F0495D31FD40524193AE
:1017200002D0A9F7EACFB4E0A6959795879577956B
:101730006795BA95C9F700976105710508959B01F2
:10174000AC010A2E06945795479537952795BA957B
:10175000C9F7620F731F841F951FA01D0895F89489
:02176000FFCFB9
:1017620008080808080808080000870420006D73AC
:101772006720666F756E647061636B6574006D736C
:101782006720494E4954207061636B6574004F7342
:1017920063696C6C6F73636F70696F0065787472E4
:1017A200616372206572726F723A2073697A652082
:1017B2006D69736D6174636820256420213D202565
:0417C200640A0000B5
:00000001FF
