:100000000C9472000C9493000C9493000C94930045
:100010000C9493000C9493000C9493000C94930014
:100020000C9493000C9493000C9493000C94930004
:100030000C9493000C9493000C9493000C949300F4
:100040000C9493000C9493000C9493000C949300E4
:100050000C9493000C9493000C9493000C949300D4
:100060000C9493000C94A5010C94D6010C9493006D
:100070000C9493000C9493000C9493000C949300B4
:100080000C9493000C9493000C9493000C949300A4
:100090000C9493000C9493000C9493000C94930094
:1000A0000C9493000C9493000C9493000C94930084
:1000B0000C9493000C9493000C9493000C94950072
:1000C0000C9493000C9493000C9493000C94930064
:1000D0000C9493000C9493000C9493000C94930054
:1000E0000C94930011241FBECFEFD1E2DEBFCDBF31
:1000F00000E00CBF12E0A0E0B2E0EAE8FEE000E0C1
:100100000BBF02C007900D92AA31B107D9F724E0C6
:10011000AAE1B2E001C01D92AF32B207E1F70E943E
:10012000D4030C9443070C9400001F920F920FB657
:100130000F9211240BB60F922F933F934F935F931F
:100140006F937F938F939F93AF93BF93EF93FF939F
:1001500080911A0290911B02019690931B0280934A
:100160001A0280910002883099F00E94DE00E0912E
:100170002704F091280495838483168280911A02C3
:1001800090911B029187808780910002883069F7E7
:1001900081E080931C02FF91EF91BF91AF919F91FD
:1001A0008F917F916F915F914F913F912F910F9020
:1001B0000BBE0F900FBE0F901F90189510927E00EF
:1001C000909164009E7F9093640090E890937A00F1
:1001D00090917B00282F2870977F922B90937B0023
:1001E0008770806480937C0080917A008064809323
:1001F0007A0080917A0086FDFCCF80917800209172
:10020000790090E0922B089510927E00E4E6F0E0F1
:1002100090819E7F9083EAE7F0E090E89083ABE7DF
:10022000B0E09C91282F2870977F922B9C93877029
:10023000806480937C008081806280838C91887F41
:100240008C938081806480830895EAE7F0E0808168
:100250008F758083089510922604109225041092C1
:10026000C50087E08093C40010921D0310921E0306
:1002700010921F0310922004109221041092220465
:1002800086E08093C20088E98093C10078948DE174
:1002900092E0089580E091E0089580E091E0089573
:1002A000FC01EB5FFD4F808190E00895FC01EE5F63
:1002B000FE4F808190E00895FC01EE5FFE4F90813B
:1002C00020E031E0A901491B5109CA010895CF93EB
:1002D000DF93DC01AE5FBE4F2C91F894FC01EF5F21
:1002E000FE4F2081EC01C20FD11D688380818F5F9A
:1002F000808380818C918F5F8C937894E1ECF0E027
:10030000808180628083DF91CF910895CF93DF93C6
:100310009C01FC01EB5FFD4F90819923E9F3F89478
:10032000E901CD5FDD4F8881280F311DD901AD5F17
:10033000BE4F8C9198819F5F988398819081915056
:1003400090837894DF91CF9108951F920F920FB60A
:100350000F9211240BB60F928F939F93AF93BF937D
:10036000CF93DF93EF93FF938091C600C2E2D4E076
:100370009881A1E2B4E0EC91F0E0E05EFC4F808374
:100380008C918F5F8C938C9188818F5F8883FF9194
:10039000EF91DF91CF91BF91AF919F918F910F908E
:1003A0000BBE0F900FBE0F901F9018951F920F92CB
:1003B0000FB60F9211240BB60F928F93EF93FF930A
:1003C00080911F038823F1F0E0911D03F0E0E35ECC
:1003D000FD4F80818093C60080911D038F5F8093C5
:1003E0001D0380911D0380911F03815080931F0383
:1003F000FF91EF918F910F900BBE0F900FBE0F905A
:100400001F9018958091C1008F7D8093C100F0CF1F
:10041000AF92BF92CF92DF92EF92FF920F931F9312
:10042000CF93DF9300D01F92CDB7DEB78C017A0156
:100430008BE0E80EF11CC7014B835C8369837A83F0
:100440000E940D066C018BE0EEE0F2E0D601019017
:100450000D928A95E1F74B815C8169817A81C601B1
:100460000B960E943A07E114F10439F19601EC0C65
:10047000FD1CD801AE5FBE4F5D01F801EF5FFE4F7E
:10048000D9014D919D01D5018C91F8948081B801DD
:10049000680F711DDB014C9390819F5F9083808179
:1004A000D5019C919F5F9C9378949091C10090623C
:1004B0009093C1002E153F0519F7C6010F900F90BC
:1004C0000F900F90DF91CF911F910F91FF90EF90C0
:1004D000DF90CF90BF90AF900C94A2064F925F92A6
:1004E0006F927F92AF92BF92CF92DF92EF92FF9284
:1004F0000F931F93CF93DF9300D01F92CDB7DEB73A
:100500005C0129013A01C9016B837C830E940D06BD
:100510008C0189831A83A2016B817C810E943A0736
:1005200062016BE0C60ED11CC6010E940D067C0163
:100530008BE0EEE0F2E0D70101900D928A95E1F7B1
:10054000A201BE016F5F7F4FC7010B960E943A0761
:10055000C114D10441F19701CE0CDF1C85010E5F5F
:100560001E4FF501EF5FFE4FD9014D919D01D8015E
:100570008C91F8948081B501680F711DDB014C935B
:1005800080818F5F80838081D8018C918F5F8C9375
:1005900078948091C10080628093C1002C153D0544
:1005A00019F709811A81C7010E94A206C8010F909C
:1005B0000F900F900F90DF91CF911F910F91FF90AF
:1005C000EF90DF90CF90BF90AF907F906F905F9053
:1005D0004F900C94A206CF92DF92FF920F931F933D
:1005E000CF93DF93F8946C010DEFC01A0EEFD00A91
:1005F000D60120E030E0ED91E9012196E93409F0DF
:10060000A1C0FC01EC0FF11DED5FFE4FE081EE3665
:1006100009F098C0F90132968C010E0F111DF801F6
:10062000ED5FFE4FE081E93609F08CC0F9013396A9
:100630008C010E0F111DF801ED5FFE4FE081E437D4
:1006400009F080C0F90134968C010E0F111DF801DC
:10065000ED5FFE4FE081E83409F074C0F901359692
:100660008C010E0F111DF801ED5FFE4FE081E536A4
:1006700009F068C0F90136968C010E0F111DF801C2
:10068000ED5FFE4FE081E13609F05CC0F90137967D
:100690008C010E0F111DF801ED5FFE4FE081E43675
:1006A00009F050C0F90138968C010E0F111DF801A8
:1006B000ED5FFE4FE081E53609F044C0F90139965F
:1006C0008C010E0F111DF801ED5FFE4FE081E23746
:1006D000C9F5265F3F4F3327EC01CC5FDD4FE88142
:1006E000F0E08901040F151FE017F10780F14115B3
:1006F0005105A9F0E0E0F0E0F12C8F01020F131F8B
:10070000DC01A00FB11DAD5FBE4F1C91E60FF71FBE
:100710001083F394EF2DF0E0E417F50770F31882DF
:1007200080E091E0F6018C01119201501040E1F758
:1007300081E07894DF91CF911F910F91FF90DF902E
:10074000CF9008959E01C115D14009F054CF80E0AB
:10075000F0CFBC01109220018DE08093210188EE42
:1007600093E00E94BB04072E000C880B990B0E949B
:10077000140525E83BEE49E751E40E9478050E9404
:10078000E30470932901609328010895892B31F4C3
:10079000809173008D7F8093730008958091730022
:1007A0008260809373000895CF93DF93CDB7DEB757
:1007B0002D970FB6F894DEBF0FBECDBF1F820E94EB
:1007C0002B018C0147E050E0BE016F5F7F4FC801F5
:1007D0000E94EB028823B1F387E0FE013196DE012F
:1007E000189601900D928A95E1F7F8848985EB843B
:1007F0009A85911179C0482F50E080FDB5C088E0FE
:100800008093070286E090E020E030E041FDA4C044
:10081000FC01E050FE4F68E06083019742FD94C008
:10082000FC01E050FE4F68E06083019743FD84C007
:10083000FC01E050FE4F68E06083019744FD74C006
:10084000FC01E050FE4F68E06083019745FD64C005
:10085000FC01E050FE4F68E06083019746FD54C004
:10086000FC01E050FE4F68E060830197440F452F84
:10087000441F550B452B09F441C0F901E050FE4FD0
:1008800087E080838AE090E00E940D069093280420
:10089000809327048F2D90E00E94A90381E090E0CF
:1008A0000E94C603FE9C7001112480911A0290914F
:1008B0001B028E159F05A0F480911C028823E1F392
:1008C00060912704709128044AE050E0C8010E941A
:1008D000080280911A0290911B028E159F0560F309
:1008E00080E090E00E94C603609127047091280484
:1008F0004AE050E0C8010E940802F6CFFC01E05037
:10090000FE4F28E02083BECFF901E050FE4F66E0A5
:1009100060832F5F3F4FAACFF901E050FE4F65E0A3
:1009200060832F5F3F4F9ACFF901E050FE4F64E0A4
:1009300060832F5F3F4F8ACFF901E050FE4F63E0A5
:1009400060832F5F3F4F7ACFF901E050FE4F62E0A6
:1009500060832F5F3F4F6ACFF901E050FE4F61E0A7
:1009600060832F5F3F4F5ACF1092000287E090E0E4
:1009700021E030E04BCF97FB072E16F4009407D010
:1009800077FD09D00E94CF0407FC05D03EF4909576
:1009900081959F4F0895709561957F4F0895AA1B8B
:1009A000BB1B51E107C0AA1FBB1FA617B70710F05A
:1009B000A61BB70B881F991F5A95A9F7809590958C
:1009C000BC01CD0108950E94570588F09F5798F00B
:1009D000B92F9927B751B0F0E1F0660F771F881F44
:1009E000991F1AF0BA95C9F714C0B13091F00E945E
:1009F0007105B1E008950C947105672F782F882751
:100A0000B85F39F0B93FCCF3869577956795B39584
:100A1000D9F73EF490958095709561957F4F8F4FF3
:100A20009F4F0895E89409C097FB3EF490958095F8
:100A3000709561957F4F8F4F9F4F9923A9F0F92FA4
:100A400096E9BB279395F695879577956795B79522
:100A5000F111F8CFFAF4BB0F11F460FF1BC06F5F08
:100A60007F4F8F4F9F4F16C0882311F096E911C01A
:100A7000772321F09EE8872F762F05C0662371F03B
:100A800096E8862F70E060E02AF09A95660F771F4F
:100A9000881FDAF7880F9695879597F9089557FD7F
:100AA0009058440F551F59F05F3F71F04795880FDC
:100AB00097FB991F61F09F3F79F087950895121673
:100AC00013061406551FF2CF4695F1DF08C016161F
:100AD00017061806991FF1CF8695710561050894D0
:100AE0000895E894BB2766277727CB0197F90895E7
:100AF0000E948B050C94FC050E94EE0538F00E94C4
:100B0000F50520F0952311F00C94E5050C94EB0508
:100B100011240C9472050E944F0570F3959FC1F348
:100B2000950F50E0551F629FF001729FBB27F00D9B
:100B3000B11D639FAA27F00DB11DAA1F649F6627F0
:100B4000B00DA11D661F829F2227B00DA11D621F3F
:100B5000739FB00DA11D621F839FA00D611D221FF9
:100B6000749F3327A00D611D231F849F600D211DDD
:100B7000822F762F6A2F11249F5750409AF0F1F060
:100B800088234AF0EE0FFF1FBB1F661F771F881FC9
:100B900091505040A9F79E3F510580F00C94E50517
:100BA0000C9472055F3FE4F3983ED4F386957795F5
:100BB0006795B795F795E7959F5FC1F7FE2B880F6F
:100BC000911D9695879597F9089597F99F6780E805
:100BD00070E060E008959FEF80EC089500240A948F
:100BE0001616170618060906089500240A94121608
:100BF0001306140605060895092E0394000C11F43B
:100C0000882352F0BB0F40F4BF2B11F460FF04C0E7
:100C10006F5F7F4F8F4F9F4F0895CF93DF93823049
:100C2000910510F482E090E0E0912D04F0912E0403
:100C300020E030E0C0E0D0E0309711F140815181F8
:100C400048175907C0F04817590761F4828193810A
:100C5000209719F09B838A832BC090932E04809356
:100C60002D0426C02115310519F04217530718F439
:100C70009A01BE01DF01EF010280F381E02DDCCF9C
:100C80002115310509F1281B390B2430310590F469
:100C900012968D919C9113976115710521F0FB01BE
:100CA0009383828304C090932E0480932D04FD01CE
:100CB000329644C0FD01E20FF31F819391932250BD
:100CC00031092D933C933AC020912B0430912C0490
:100CD000232B41F420910A0230910B0230932C0413
:100CE00020932B042091080230910902211531052F
:100CF00041F42DB73EB740910C0250910D02241BD8
:100D0000350BE0912B04F0912C04E217F307A0F4CB
:100D10002E1B3F0B2817390778F0AC014E5F5F4F51
:100D20002417350748F04E0F5F1F50932C04409353
:100D30002B048193919302C0E0E0F0E0CF01DF91BA
:100D4000CF9108950F931F93CF93DF93009709F4EA
:100D50008CC0FC0132971382128200912D041091F5
:100D60002E040115110581F420813181820F931F1A
:100D700020912B0430912C042817390779F5F09332
:100D80002C04E0932B0471C0D80140E050E0AE1772
:100D9000BF0750F412962D913C911397AD01211588
:100DA000310509F1D901F3CF9D01DA0133832283A3
:100DB00060817181860F971F8217930769F4EC0198
:100DC00028813981260F371F2E5F3F4F31832083C3
:100DD0008A819B8193838283452B29F4F0932E048F
:100DE000E0932D0442C01396FC93EE931297ED010D
:100DF000499159919E01240F351FE217F30771F4B1
:100E000080819181840F951F029611969C938E93F9
:100E10008281938113969C938E931297E0E0F0E089
:100E2000D80112968D919C911397009719F0F801B3
:100E30008C01F6CF8D919C9198012E5F3F4F820FD0
:100E4000931F20912B0430912C042817390769F443
:100E5000309729F410922E0410922D0402C01382B0
:100E6000128210932C0400932B04DF91CF911F91D9
:100E70000F910895FB01DC0102C001900D924150D9
:0A0E80005040D8F70895F894FFCF12
:100E8A00080808080808080800002F042000446120
:0A0E9A007461486561646572000030
:00000001FF
