:100000000C9472000C9493000C9493000C94930045
:100010000C9493000C9493000C9493000C94930014
:100020000C9493000C9493000C9493000C94930004
:100030000C9493000C9493000C9493000C949300F4
:100040000C9493000C9493000C9493000C949300E4
:100050000C9493000C9493000C9493000C949300D4
:100060000C9493000C94D5010C9406020C9493000C
:100070000C9493000C9493000C9493000C949300B4
:100080000C9493000C9493000C9493000C949300A4
:100090000C9493000C9493000C9493000C94930094
:1000A0000C9493000C9493000C9493000C94930084
:1000B0000C9493000C9493000C9493000C94950072
:1000C0000C9493000C9493000C9493000C94930064
:1000D0000C9493000C9493000C9493000C94930054
:1000E0000C94930011241FBECFEFD1E2DEBFCDBF31
:1000F00000E00CBF13E0A0E0B2E0E0E8FBE100E0CC
:100100000BBF02C007900D92AA36B107D9F725E0C0
:10011000AAE6B3E001C01D92AD3AB207E1F70E9432
:100120005A060C94BE0D0C9400001F920F920FB64D
:100130000F9211240BB60F922F933F934F935F931F
:100140006F937F938F939F93AF93BF93EF93FF939F
:1001500080916A0390916B03019690936B03809357
:100160006A0380910002883071F00E940F01809331
:1001700078051092790580916A0380937B058091C0
:100180000002883091F781E080936C03FF91EF913A
:10019000BF91AF919F918F917F916F915F914F919F
:1001A0003F912F910F900BBE0F900FBE0F901F909D
:1001B0001895EF92FF920F931F93CF93DF93CDB7D4
:1001C000DEB765970FB6F894DEBF0FBECDBF7C01DA
:1001D000142FCE0102960E945E0A198302E025E1E7
:1001E00030E040E050E0BE016F5F7F4FC7010E94EA
:1001F00093022FEF81EE94E0215080409040E1F790
:1002000000C0000065960FB6F894DEBF0FBECDBFEC
:10021000DF91CF911F910F91FF90EF900895109271
:100220007E00909164009E7F9093640090E890938C
:100230007A0090917B00282F2870977F922B9093C3
:100240007B008770806480937C0080917A0080645A
:1002500080937A0080917A0086FDFCCF80917800AF
:100260002091790090E0922B089510927E00E4E6B0
:10027000F0E090819E7F9083EAE7F0E090E8908341
:10028000ABE7B0E09C91282F2870977F922B9C932E
:100290008770806480937C008081806280838C91F1
:1002A000887F8C938081806480830895EAE7F0E002
:1002B00080818F7580830895109276051092750560
:1002C0001092C50080E18093C40010926D041092DA
:1002D0006E0410926F0410927005109271051092C6
:1002E000720586E08093C20088E98093C10078940B
:1002F0008DE693E0089580E091E0089580E091E03C
:1003000008958B5F9D4FFC01808190E008958E5F82
:100310009E4FFC01808190E008958E5F9E4FFC010E
:10032000908120E031E0A901491B5109CA010895DB
:10033000CF93DF93DC01AE5FBE4F2C91F894FC01AC
:10034000EF5FFE4F2081EC01C20FD11D68838081D9
:100350008F5F808380818C918F5F8C937894E1ECA8
:10036000F0E0808180628083DF91CF910895CF9308
:10037000DF93EC01CB5FDD4F28812223E9F3F89472
:10038000DC01AD5FBD4F2C91820F911DFC01ED5F33
:10039000FE4F80819C919F5F9C939C91988191508E
:1003A00098837894DF91CF9108951F920F920FB6A2
:1003B0000F9211240BB60F928F939F93AF93BF931D
:1003C000CF93DF93EF93FF938091C600C2E7D5E010
:1003D0009881A1E7B5E0EC91F0E0E059FB4F808314
:1003E0008C918F5F8C938C9188818F5F8883FF9134
:1003F000EF91DF91CF91BF91AF919F918F910F902E
:100400000BBE0F900FBE0F901F9018951F920F926A
:100410000FB60F9211240BB60F928F93EF93FF93A9
:1004200080916F048823F1F0E0916D04F0E0E359CE
:10043000FC4F80818093C60080916D048F5F809314
:100440006D0480916D0480916F04815080936F04DE
:10045000FF91EF918F910F900BBE0F900FBE0F90F9
:100460001F9018958091C1008F7D8093C100F0CFBF
:100470008F929F92AF92BF92CF92DF92EF92FF92B4
:100480000F931F93CF93DF934C015B016A017A01B5
:100490008DE0E80EF11CC7010E9430098C018DE04F
:1004A000E9E3F2E0D80101900D928A95E1F7A60107
:1004B000B501C8010D960E945E0AE114F10421F114
:1004C0009801A8014E0D5F1DD401AE5FBE4FF4012F
:1004D000EF5FFE4FE90169919E018C91F894808154
:1004E000E401C80FD11D688390819F5F9083808154
:1004F0009C919F5F9C9378949091C100906290939F
:10050000C1002417350731F7C801DF91CF911F9142
:100510000F91FF90EF90DF90CF90BF90AF909F90A2
:100520008F900C94C8098F929F92AF92BF92CF92F6
:10053000DF92EF92FF920F931F93CF93DF93CDB78C
:10054000DEB7A5970FB6F894DEBF0FBECDBF7C0116
:1005500049015A01CE0101960E94760464018DE0A2
:10056000C80ED11CC6010E9430098C018DE0E9E360
:10057000F2E0D80101900D928A95E1F7A401BE0145
:100580006F5F7F4FC8010D960E945E0AC114D104AF
:1005900039F19801A8014C0D5D1DD701AE5FBE4F2A
:1005A0006D01F701EF5FFE4FD9016D919D01D601FD
:1005B0008C91F8948081D701A80FB11D6C93908124
:1005C0009F5F90838081D6019C919F5F9C937894DC
:1005D0009091C10090629093C1002417350721F7D4
:1005E000C801A5960FB6F894DEBF0FBECDBFDF9150
:1005F000CF911F910F91FF90EF90DF90CF90BF9020
:10060000AF909F908F900C94C809DF92EF92FF9269
:100610000F931F93CF93DF93F89420E030E0FC0119
:10062000E20FF31FED5FFE4FE081EF3409F0D3C01E
:10063000D9011196FC01EA0FF11DED5FFE4FE0813B
:10064000E33709F0C0C0F90132967C01EE0EF11CCF
:10065000F701ED5FFE4FE081E33609F0B4C0F90128
:100660003396EC01CE0FD11DFE01ED5FFE4FE08110
:10067000E93609F0A8C0F90134967C01EE0EF11CB0
:10068000F701ED5FFE4FE081EC3609F09CC0F90107
:100690003596EC01CE0FD11DFE01ED5FFE4FE081DE
:1006A000EC3609F090C0F90136967C01EE0EF11C93
:1006B000F701ED5FFE4FE081EF3609F084C0F901EC
:1006C0003796EC01CE0FD11DFE01ED5FFE4FE081AC
:1006D000E33709F078C0F90138967C01EE0EF11C81
:1006E000F701ED5FFE4FE081E33609F06CC0F901E0
:1006F0003996EC01CE0FD11DFE01ED5FFE4FE0817A
:10070000EF3609F060C0F9013A967C01EE0EF11C5B
:10071000F701ED5FFE4FE081E03709F054C0F901C9
:100720003B96EC01CE0FD11DFE01ED5FFE4FE08147
:10073000E93609F048C0F9013C967C01EE0EF11C47
:10074000F701ED5FFE4FE081EF36E9F5235F3F4FA4
:100750003327DC01AC5FBD4FEC91F0E0E901C40F41
:10076000D51FEC17FD07A8F141155105B9F0E0E0E0
:10077000F0E0D12C89010E0F1F1F7C01E00EF11C4F
:1007800087010D5F1E4FE8011881E60FF71F1083E8
:10079000D394ED2DF0E0E417F50760F31C92FC0113
:1007A000ED5FFE4F20E031E0DF01E9011D9221976E
:1007B000E9F781E07894DF91CF911F910F91FF903D
:1007C000EF90DF9008959D012115A1E03A0709F00F
:1007D00026CF80E0EFCF2F5F3F4FF6CFBC011092C6
:1007E00020018DE08093210188EE93E00E94F207C2
:1007F000072E000C880B990B0E94370825E83BEE6A
:1008000049E751E40E949B080E9406087093290161
:10081000609328010895892B31F4809173008D7FB6
:1008200080937300089580917300826080937300B9
:100830000895AF92BF92CF92DF92EF92FF920F9303
:100840001F93CF93DF937C015B018A01CA01880F5C
:10085000991F0E9430096C01A801B7010E945E0A2D
:10086000A801B701C601800F911F0E945E0A011501
:100870001105C9F1C0E0D0E004C02196C017D1072E
:1008800059F04DE050E069E372E0C6018C0F9D1F06
:100890000E94510A892B89F70C171D0721F1CE01FF
:1008A0000D96E8012D9779F0F501CA0DDB1DB80111
:1008B0000E94DE07D701A80FB91F2C912193019642
:1008C000CE17DF07A1F7C6010E94C80981E090E0BA
:1008D000DF91CF911F910F91FF90EF90DF90CF901C
:1008E000BF90AF9008958FEF9FEFF2CFCF92DF923E
:1008F000EF92FF920F931F93CF93DF93CDB7DEB7A5
:10090000A5970FB6F894DEBF0FBECDBF6C01CE0128
:1009100001967C0185E2F70111928A95E9F7298316
:100920003A834B835C830D832115310541055105C5
:1009300099F1DA01C9010197A109B1098C010F5F91
:100940001F4FA801CE0106960E945E0A00321105D3
:1009500061F040E250E0401B510BC801059660E099
:1009600070E08E0D9F1D0E94670A85E2F701D60197
:1009700001900D928A95E1F7C601A5960FB6F894FD
:10098000DEBF0FBECDBFDF91CF911F910F91FF90C2
:10099000EF90DF90CF90089500E010E0DACFCF9293
:1009A000DF92EF92FF92CF93DF93EC01FB018881FE
:1009B0009981AA81BB8182179307A407B507F9F42F
:1009C000892B8A2B8B2BA1F0DE01159620E030E0DD
:1009D0008D9181932F5F3F4F6901E12CF12C48816C
:1009E00059816A817B81C416D506E606F70680F335
:1009F000DF91CF91FF90EF90DF90CF9008955F93BC
:100A00004F933F932F93BF93AF939F938F9387E41D
:100A100092E09F938F930E94FC0A8DB79EB70A962F
:100A20000FB6F8949EBF0FBE8DBFDF91CF91FF90A0
:100A3000EF90DF90CF9008950F931F93CF93DF93A4
:100A4000EC018C81813009F4ADC08823D1F0823073
:100A500009F45FC0833029F0DF91CF911F910F918E
:100A600008952091A9053091AA054FE050E061E07A
:100A700070E089E593E0DF91CF911F910F910C9485
:100A8000BA0A8DEC92E00E94100B85E090E00E9483
:100A900030098C0188819981AA81BB8185309105BB
:100AA000A105B10509F0BEC0FE01359685E0D8016B
:100AB00001900D928A95E1F7F8018481282F082E84
:100AC000000C330B3F938F9383811F928F9382810E
:100AD0001F928F9381811F928F9380811F928F939A
:100AE0008EED92E09F938F938091AA058F938091D2
:100AF000A9058F930E946E0A8DB79EB70E960FB60A
:100B0000F8949EBF0FBE8DBFDF91CF911F910F91C3
:100B100008958CE293E00E94100B85E190E00E9422
:100B200030098C0188819981AA81BB818531910529
:100B3000A105B10509F08EC0FE01359685E1D80109
:100B400001900D928A95E1F7E80121962091A9057F
:100B50003091AA054BE150E061E070E08DE393E055
:100B60000E94BA0A209791F0F8018081882371F0E1
:100B70008E01080F111D89916091A9057091AA0538
:100B800090E00E947E0A0C171D07A9F76091A90545
:100B90007091AA058AE090E0DF91CF911F910F91AB
:100BA0000C947E0A8EE692E00E94100B85E090E0A5
:100BB0000E9430098C0188819981AA81BB8185308E
:100BC0009105A105B10509F05DC0FE01359685E0EE
:100BD000D80101900D928A95E1F7F80184811F9266
:100BE0008F9383811F928F9382811F928F93818134
:100BF0001F928F9380811F928F938FE792E09F9334
:100C00008F938091AA058F938091A9058F930E945D
:100C10006E0A8DB79EB70E960FB6F8949EBF0FBEA4
:100C20008DBF1ACF1F921F921F9225E02F93BF9363
:100C3000AF939F938F9387E492E09F938F930E944B
:100C4000FC0AEDB7FEB73A960FB6F894FEBF0FBE9A
:100C5000EDBF32CF1F921F921F9225E12F93BF93BA
:100C6000AF939F938F9387E492E09F938F930E941B
:100C7000FC0AEDB7FEB73A960FB6F894FEBF0FBE6A
:100C8000EDBF62CF1F921F921F9225E02F93BF935B
:100C9000AF939F938F9387E492E09F938F930E94EB
:100CA000FC0A8DB79EB70A960FB6F8949EBF0FBE8A
:100CB0008DBF93CFCF93DF93CDB7DEB767970FB6D6
:100CC000F894DEBF0FBECDBF0E945C017C0178941A
:100CD0002FEF71EE84E0215070408040E1F700C0BA
:100CE00000003FE0932E1EE047E0542E58E0D52E42
:100CF00066E0462E75E0372E45E250E06CE775E081
:100D0000C7010E9405038130B9F7809180058111E8
:100D1000F3CF85E090E00E9430095C018FE0EEE0C7
:100D2000F2E0DE01129601900D928A95E1F7998228
:100D300002E025E130E040E050E0BE016F5F7F4F10
:100D4000C7010E9493029FEFA1EEB4E09150A04032
:100D5000B040E1F700C0000025E030E040E050E0A6
:100D6000B5018CE795E00E94CF048EE0EDE1F2E062
:100D7000DE01129601900D928A95E1F7198325E123
:100D800030E040E050E0BE016F5F7F4FC7010E943E
:100D90009302EFEFF1EE24E0E150F0402040E1F764
:100DA00000C0000000E025E030E040E050E0B50188
:100DB000C7010E9493027FEF81EE94E07150804062
:100DC0009040E1F700C00000EBE2F2E0DE01129695
:100DD000812F01900D928A95E1F7198302E025E1B8
:100DE00030E040E050E0BE016F5F7F4FC7010E94DE
:100DF0009302AFEFB1EEE4E0A150B040E040E1F784
:100E000000C00000D50112968C911297811174CF09
:100E1000CC9011966C91119713968C90E62FF0E080
:100E2000FF8BEE8B60FDB7C0D092070204E070E04C
:100E300093E0A92EB12C22E0622E712C41E050E00B
:100E400085E090E026E030E0E0E0F0E061FD9BC06E
:100E500020503E4FD901DC929C01802F972F0A2D04
:100E60007B2D530162FD87C020503E4FD901DC929B
:100E70009C01802F972F0A2D7B2D63FD74C020507D
:100E80003E4FD901DC929C01802F972F64FD66C0F4
:100E900020503E4FD901DC929C01CA01AF0165FD93
:100EA00058C0F901E050FE4FD0829C01CA0166FD96
:100EB0004AC0F901E050FE4FD082AE89BF89AA0F27
:100EC000AB2FAA1FBB0BFC01E050FE4FAB2BC9F5AB
:100ED000D0821092770510927805109279051092C1
:100EE0007A0510927B058C2D90E00E94EE0381E044
:100EF00090E00E940B04C89C5001112480916A0369
:100F000090916B038A159B05B8F480916C0388233C
:100F1000E1F301E025E030E040E050E067E775E014
:100F2000C7010E94930210926C0380916A03909112
:100F30006B038A159B0548F380E090E00E940B0448
:100F4000DBCE5082C6CFFC01E050FE4F4082C9018B
:100F5000B4CFFA01E050FE4F3082A9CFE050FE4FEF
:100F6000B4E0B0839CCFE050FE4FB3E0B083FA0111
:100F7000402F572F8BCFE050FE4FA2E07A2E708289
:100F8000FA01A5017ACFE050FE4F2224239420825B
:100F9000FA01A30167CF1092000205E070E0B4E00F
:100FA000AB2EB12C83E0682E712C42E050E086E03D
:100FB00090E027E030E0E1E0F0E048CFAA1BBB1B67
:100FC00051E107C0AA1FBB1FA617B70710F0A61B49
:100FD000B70B881F991F5A95A9F780959095BC016A
:100FE000CD01089597FB072E16F4009407D077FDE6
:100FF00009D00E94DE0707FC05D03EF4909581954C
:101000009F4F0895709561957F4F08950E947A08CB
:1010100088F09F5798F0B92F9927B751B0F0E1F0B9
:10102000660F771F881F991F1AF0BA95C9F714C069
:10103000B13091F00E949408B1E008950C949408A6
:10104000672F782F8827B85F39F0B93FCCF38695A2
:1010500077956795B395D9F73EF4909580957095FF
:1010600061957F4F8F4F9F4F0895E89409C097FB7C
:101070003EF490958095709561957F4F8F4F9F4F6F
:101080009923A9F0F92F96E9BB279395F6958795B3
:1010900077956795B795F111F8CFFAF4BB0F11F476
:1010A00060FF1BC06F5F7F4F8F4F9F4F16C088231D
:1010B00011F096E911C0772321F09EE8872F762F53
:1010C00005C0662371F096E8862F70E060E02AF094
:1010D0009A95660F771F881FDAF7880F9695879580
:1010E00097F9089557FD9058440F551F59F05F3FE9
:1010F00071F04795880F97FB991F61F09F3F79F03A
:1011000087950895121613061406551FF2CF4695BB
:10111000F1DF08C0161617061806991FF1CF86953D
:101120007105610508940895E894BB276627772721
:10113000CB0197F908950E94AE080C941F090E94F4
:10114000110938F00E94180920F0952311F00C9431
:1011500008090C940E0911240C9495080E94720839
:1011600070F3959FC1F3950F50E0551F629FF001FA
:10117000729FBB27F00DB11D639FAA27F00DB11D13
:10118000AA1F649F6627B00DA11D661F829F22279C
:10119000B00DA11D621F739FB00DA11D621F839F23
:1011A000A00D611D221F749F3327A00D611D231FF9
:1011B000849F600D211D822F762F6A2F11249F5747
:1011C00050409AF0F1F088234AF0EE0FFF1FBB1F4A
:1011D000661F771F881F91505040A9F79E3F510509
:1011E00080F00C9408090C9495085F3FE4F3983E56
:1011F000D4F3869577956795B795F795E7959F5FB3
:10120000C1F7FE2B880F911D9695879597F9089544
:1012100097F99F6780E870E060E008959FEF80ECA9
:10122000089500240A94161617061806090608954C
:1012300000240A9412161306140605060895092EB2
:101240000394000C11F4882352F0BB0F40F4BF2B21
:1012500011F460FF04C06F5F7F4F8F4F9F4F089561
:101260000F931F93CF93DF938230910510F482E0A8
:1012700090E0E091A505F091A60520E030E0A0E027
:10128000B0E0309719F140815181028113814817F4
:101290005907C8F08417950769F4109731F0129632
:1012A0000C93129713961C9327C00093A5051093D7
:1012B000A60522C02115310519F04217530718F46D
:1012C0009A01BD01EF01DF01F801DBCF21153105E6
:1012D000F9F0281B390B2430310580F48A819B8179
:1012E0006115710521F0FB019383828304C0909303
:1012F000A6058093A505FE01329644C0FE01E20FCB
:10130000F31F8193919322503109398328833AC086
:101310002091A3053091A405232B41F420910A02CA
:1013200030910B023093A4052093A305209108026D
:10133000309109022115310541F42DB73EB7409196
:101340000C0250910D02241B350BE091A305F09186
:10135000A405E217F307A0F42E1B3F0B281739074B
:1013600078F0AC014E5F5F4F2417350748F04E0F01
:101370005F1F5093A4054093A3058193919302C0EE
:10138000E0E0F0E0CF01DF91CF911F910F91089540
:10139000CF93DF93009709F481C0FC013297138249
:1013A0001282A091A505B091A605109781F4208125
:1013B0003181820F931F2091A3053091A405281736
:1013C000390751F5F093A405E093A30567C0ED013B
:1013D00020E030E0CE17DF0740F44A815B819E01B8
:1013E00041155105F1F0EA01F5CFD383C283408165
:1013F0005181840F951FC817D90759F488819981A5
:10140000840F951F0296918380838A819B819383A9
:1014100082832115310529F4F093A605E093A505F3
:101420003DC0E901FB83EA8349915991C40FD51F5F
:10143000EC17FD0761F480819181840F951F02965E
:10144000E90199838883828193819B838A83E0E089
:10145000F0E012968D919C911397009719F0FD0181
:10146000DC01F7CF8D919C9111979D012E5F3F4F2D
:10147000820F931F2091A3053091A40528173907E7
:1014800069F4309729F41092A6051092A50502C0C0
:1014900013821282B093A405A093A305DF91CF918C
:1014A0000895FB01DC0104C08D910190801921F4A5
:1014B00041505040C8F7881B990B0895FB01DC018F
:1014C00002C001900D9241505040D8F70895DC01C0
:1014D00001C06D9341505040E0F70895CF93DF93E2
:1014E000CDB7DEB7AE01465F5F4F688579858E81E7
:1014F0009F810E94400BDF91CF9108950F931F931E
:10150000CF93DF93FB01238121FD03C08FEF9FEF7A
:101510002CC022FF16C04681578124813581421795
:10152000530744F4A081B1819D012F5F3F4F318368
:1015300020838C93268137812F5F3F4F378326830B
:1015400014C08B01EC01FB010084F185E02D19959D
:10155000892BE1F6D80116968D919C9117970196EB
:1015600017969C938E931697CE01DF91CF911F9182
:101570000F9108958F929F92AF92BF92CF92DF9278
:10158000EF92FF920F931F93CF93DF935B014A017A
:101590007901D90113962C9121FF1DC0C0E0D0E044
:1015A000C815D905D9F08C016C01CA0CDB1CC80127
:1015B0000C151D0571F00F5F1F4FD7011896ED91A7
:1015C000FC911997B701DC018C911995892B79F35E
:1015D00005C02196E5CF80E090E001C0CE01DF910B
:1015E000CF911F910F91FF90EF90DF90CF90BF9020
:1015F000AF909F908F900895CF93DF93CDB7DEB7D4
:10160000AE014A5F5F4FFA0161917191AF01809124
:10161000A9059091AA050E94400BDF91CF910895F2
:101620000F931F93CF93DF93E091A905F091AA0543
:10163000238121FF1BC08C01D0E0C0E0F801819123
:101640008F016091A9057091AA05DB011896ED91B3
:10165000FC911997882331F01995892B79F3DFEFE5
:10166000CFEFECCF8AE01995892B19F08FEF9FEF20
:1016700002C08D2F9C2FDF91CF911F910F91089564
:101680002F923F924F925F926F927F928F929F9292
:10169000AF92BF92CF92DF92EF92FF920F931F9380
:1016A000CF93DF93CDB7DEB72B970FB6F894DEBF9D
:1016B0000FBECDBF6C017B018A01FC01178216822F
:1016C000838181FFCCC1CE0101963C01F60193815B
:1016D000F70193FD859193FF81917F01882309F4A0
:1016E000BAC1853239F493FD859193FF81917F01D1
:1016F000853229F4B60190E00E947E0AE7CF912C52
:10170000212C312CFFE1F315D8F08B3279F038F42D
:10171000803279F08332A1F4232D20611DC08D32F7
:1017200061F0803369F4232D216016C0832D82601F
:10173000382EE32DE4603E2E2AC0F32DF8601DC044
:1017400037FC2DC020ED280F2A3040F08E32B9F43E
:1017500036FC81C1232D2064322E19C036FE06C00E
:101760008AE0989E200D1124922E11C0EAE02E9E50
:10177000200D1124222EF32DF0623F2E08C08C364E
:1017800021F4832D8068382E02C0883641F4F70199
:1017900093FD859193FF81917F018111B3CF982FA4
:1017A0009F7D9554933028F40C5F1F4F9FE39983DE
:1017B0000DC0833631F0833771F0833509F059C09D
:1017C00021C0F801808189830E5F1F4F8824839494
:1017D000912C530113C02801F2E04F0E511CF80167
:1017E000A080B18036FE03C0692D70E002C06FEFAB
:1017F0007FEFC5010E94550D4C018201F32DFF774B
:101800003F2E16C0280122E0420E511CF801A08094
:10181000B18036FE03C0692D70E002C06FEF7FEF2C
:10182000C5010E944A0D4C01F32DF0683F2E820144
:1018300033FC1BC0822D90E088169906B0F4B601E7
:1018400080E290E00E947E0A2A94F4CFF50137FCF2
:10185000859137FE81915F01B60190E00E947E0A7A
:1018600021102A9421E0821A91088114910471F7C1
:10187000E8C0843611F0893641F5F80137FE07C01B
:1018800060817181828193810C5F1F4F08C06081EC
:101890007181072E000C880B990B0E5F1F4FF32DE3
:1018A000FF763F2E97FF09C09095809570956195C2
:1018B0007F4F8F4F9F4FF0683F2E2AE030E0A3010B
:1018C0000E94600D882E861845C0853731F4232D7F
:1018D0002F7EB22E2AE030E025C0932D997FB92EBD
:1018E0008F36C1F018F4883579F0B5C0803719F01B
:1018F000883721F0B0C0E92FE061BE2EB4FE0DC0E4
:10190000FB2DF460BF2E09C034FE0AC0292F2660CB
:10191000B22E06C028E030E005C020E130E002C071
:1019200020E132E0F801B7FE07C060817181828159
:1019300093810C5F1F4F06C06081718180E090E051
:101940000E5F1F4FA3010E94600D882E8618FB2D8D
:10195000FF773F2E36FE0DC0232D2E7FA22E891439
:1019600058F434FE0BC032FC09C0832D8E7EA82EA5
:1019700005C0B82CA32C03C0B82C01C0B92CA4FE00
:101980000FC0FE01E80DF11D8081803321F49A2DF6
:10199000997EA92E09C0A2FE06C0B394B39404C0D8
:1019A0008A2D867809F0B394A3FC11C0A0FE06C06E
:1019B000B21488F4280C922C9B180EC0B21460F458
:1019C000B60180E290E00E947E0AB394F7CFB21491
:1019D00018F42B1802C0982C212CA4FE10C0B601BC
:1019E00080E390E00E947E0AA2FE17C0A1FC03C023
:1019F00088E790E002C088E590E0B6010CC08A2D2F
:101A0000867859F0A1FE02C08BE201C080E2A7FCFB
:101A10008DE2B60190E00E947E0A891438F4B60186
:101A200080E390E00E947E0A9A94F7CF8A94F301B3
:101A3000E80DF11D8081B60190E00E947E0A8110C0
:101A4000F5CF222009F442CEB60180E290E00E9458
:101A50007E0A2A94F6CFF6018681978102C08FEF25
:101A60009FEF2B960FB6F894DEBF0FBECDBFDF9170
:101A7000CF911F910F91FF90EF90DF90CF90BF908B
:101A8000AF909F908F907F906F905F904F903F901E
:101A90002F900895FC010590615070400110D8F717
:101AA000809590958E0F9F1F0895FC0161507040A6
:101AB00001900110D8F7809590958E0F9F1F089583
:101AC000FA01AA27283051F1203181F1E8946F936F
:101AD0006E7F6E5F7F4F8F4F9F4FAF4FB1E03ED015
:101AE000B4E03CD0670F781F891F9A1FA11D680FB3
:101AF000791F8A1F911DA11D6A0F711D811D911DE6
:101B0000A11D20D009F468943F912AE0269F11245A
:101B10003019305D3193DEF6CF010895462F4770BE
:101B2000405D4193B3E00FD0C9F7F6CF462F4F7019
:101B3000405D4A3318F0495D31FD4052419302D077
:101B4000A9F7EACFB4E0A69597958795779567951D
:101B5000BA95C9F700976105710508959B01AC011D
:101B60000A2E06945795479537952795BA95C9F744
:101B7000620F731F841F951FA01D0895F894FFCF57
:101B800008080808080808080000AD052000666F6E
:101B9000756E6420696E697420706B670065787477
:101BA00072616374656420706B670073656E742086
:101BB000696E697420706B67004F7363696C6C6F3A
:101BC00073636F70696F006578747261637220650A
:101BD00072726F723A2073697A65206D69736D61F4
:101BE00074636820256420213D2025640A007072FA
:101BF000696E74696E672044415441504B470044FC
:101C0000617461205061636B61676520696E666F06
:101C10003A0A436865636B73756D3A2025640A530D
:101C200069676E616C3A25640A50696E3A202568CE
:101C300068750A436F6D6D616E643A20256868753A
:101C40000A45706F63683A2025640A0A0070726959
:101C50006E74696E6720494E4954504B4700496E77
:101C60006974205061636B61676520696E666F3AC5
:101C70000A4672657175656E63793A2025630A4379
:101C800068616E6E656C733A2025630A4D6F6465FA
:101C90003A2025630A54696D653A2025630A547217
:101CA00069676765723A2025640A0A007072696E76
:101CB00074696E672054455854504B4700546578FA
:101CC00074205061636B61676520696E666F3A20AE
:101CD0000A20746578743A2000426C616E6B207043
:0A1CE00061636B6167652E0A000066
:00000001FF
