:100000000C9472000C9493000C9493000C94930045
:100010000C9493000C9493000C9493000C94930014
:100020000C9493000C9493000C9493000C94930004
:100030000C9493000C9493000C9493000C949300F4
:100040000C9493000C9493000C9493000C949300E4
:100050000C9493000C9493000C9493000C949300D4
:100060000C9493000C94DC010C940D020C949300FE
:100070000C9493000C9493000C9493000C949300B4
:100080000C9493000C9493000C9493000C949300A4
:100090000C9493000C9493000C9493000C94930094
:1000A0000C9493000C9493000C9493000C94930084
:1000B0000C9493000C9493000C9493000C94950072
:1000C0000C9493000C9493000C9493000C94930064
:1000D0000C9493000C9493000C9493000C94930054
:1000E0000C94930011241FBECFEFD1E2DEBFCDBF31
:1000F00000E00CBF13E0A0E0B2E0ECEAFBE100E0BE
:100100000BBF02C007900D92AA36B107D9F725E0C0
:10011000AAE6B3E001C01D92A23BB207E1F70E943C
:1001200069060C94D40D0C9400001F920F920FB628
:100130000F9211240BB60F922F933F934F935F931F
:100140006F937F938F939F93AF93BF93EF93FF939F
:1001500080916A0390916B03019690936B03809357
:100160006A03809100028830A1F00E9415019093EB
:100170007C0580937B0510927D0580916A039091A8
:100180006B039093800580937F05809100028830F7
:1001900061F781E080936C03FF91EF91BF91AF9184
:1001A0009F918F917F916F915F914F913F912F918F
:1001B0000F900BBE0F900FBE0F901F901895EF92EF
:1001C000FF920F931F93CF93DF93CDB7DEB7659761
:1001D0000FB6F894DEBF0FBECDBF7C01142FCE0149
:1001E00001960E94870A1D8B02E025E130E040E085
:1001F00050E0BE016F5F7F4FC7010E94A5022FEF45
:1002000081EE94E0215080409040E1F700C0000072
:1002100065960FB6F894DEBF0FBECDBFDF91CF91CC
:100220001F910F91FF90EF90089510927E00909192
:1002300064009E7F9093640090E890937A00909180
:100240007B00282F2870977F922B90937B008770DC
:10025000806480937C0080917A00806480937A002F
:1002600080917A0086FDFCCF809178002091790002
:1002700090E0922B089510927E00E4E6F0E09081E9
:100280009E7F9083EAE7F0E090E89083ABE7B0E0F0
:100290009C91282F2870977F922B9C938770806465
:1002A00080937C008081806280838C91887F8C9396
:1002B0008081806480830895EAE7F0E080818F7513
:1002C0008083089510927605109275051092C500EE
:1002D00080E18093C40010926D0410926E0410921D
:1002E0006F0410927005109271051092720586E0ED
:1002F0008093C20088E98093C10078948DE693E0F2
:10030000089580E091E0089580E091E00895FC0177
:10031000EB5FFD4F808190E00895FC01EE5FFE4FA2
:10032000808190E00895FC01EE5FFE4F908120E017
:1003300031E0A901491B5109CA010895CF93DF9308
:10034000DC01AE5FBE4F2C91F894FC01EF5FFE4FD5
:100350002081EC01C20FD11D688380818F5F808373
:1003600080818C918F5F8C937894E1ECF0E08081B8
:1003700080628083DF91CF910895CF93DF939C01BA
:10038000FC01EB5FFD4F90819923E9F3F894E901BB
:10039000CD5FDD4F8881280F311DD901AD5FBE4F84
:1003A0008C9198819F5F98839881908191509083E0
:1003B0007894DF91CF9108951F920F920FB60F920C
:1003C00011240BB60F928F939F93AF93BF93CF934C
:1003D000DF93EF93FF938091C600C2E7D5E0988149
:1003E000A1E7B5E0EC91F0E0E059FB4F80838C9100
:1003F0008F5F8C938C9188818F5F8883FF91EF91C1
:10040000DF91CF91BF91AF919F918F910F900BBED4
:100410000F900FBE0F901F9018951F920F920FB65E
:100420000F9211240BB60F928F93EF93FF9380914D
:100430006F048823F1F0E0916D04F0E0E359FC4F84
:1004400080818093C60080916D048F5F80936D04DE
:1004500080916D0480916F04815080936F04FF91AF
:10046000EF918F910F900BBE0F900FBE0F901F90CA
:1004700018958091C1008F7D8093C100F0CFAF921D
:10048000BF92CF92DF92EF92FF920F931F93CF9381
:10049000DF9300D01F92CDB7DEB78C017A018DE0DB
:1004A000E80EF11CC7014B835C8369837A830E9449
:1004B0004D096C018DE0E9E3F2E0D60101900D9267
:1004C0008A95E1F74B815C8169817A81C6010D963D
:1004D0000E94870AE114F10439F19601EC0CFD1C2D
:1004E000D801AE5FBE4F5D01F801EF5FFE4FD9014D
:1004F0004D919D01D5018C91F8948081B801680FD0
:10050000711DDB014C9390819F5F90838081D501A9
:100510009C919F5F9C9378949091C100906290937E
:10052000C1002E153F0519F7C6010F900F900F90CF
:100530000F90DF91CF911F910F91FF90EF90DF907F
:10054000CF90BF90AF900C94E2098F929F92AF92A0
:10055000BF92CF92DF92EF92FF920F931F93CF93B0
:10056000DF93CDB7DEB7A5970FB6F894DEBF0FBE09
:10057000CDBF6C0149015A01CE0101960E9485044C
:1005800074016DE0E60EF11CC7010E944D098C015B
:100590008DE0E9E3F2E0D80101900D928A95E1F750
:1005A000A401BE016F5F7F4FC8010D960E94870AAC
:1005B000E114F10439F19801E00EF11EC6018E5FDD
:1005C0009E4F5C01F601EF5FFE4FD9014D919D01F9
:1005D000D5018C91F8948081B601680F711DDB0103
:1005E0004C9380818F5F80838081D5018C918F5F58
:1005F0008C9378948091C10080628093C1002E1505
:100600003F0519F7C801A5960FB6F894DEBF0FBED7
:10061000CDBFDF91CF911F910F91FF90EF90DF90B1
:10062000CF90BF90AF909F908F900C94E209EF9283
:10063000FF920F931F93CF93DF93F89420E030E065
:10064000FC01E20FF31FED5FFE4FE081EF3409F094
:10065000D1C0D9011196FC01EA0FF11DED5FFE4FEB
:10066000E081E33709F0BEC0F90132967C01EE0E5D
:10067000F11CF701ED5FFE4FE081E33609F0B2C0F7
:10068000F9013396EC01CE0FD11DFE01ED5FFE4F57
:10069000E081E93609F0A6C0F90134967C01EE0E3E
:1006A000F11CF701ED5FFE4FE081EC3609F09AC0D6
:1006B000F9013596EC01CE0FD11DFE01ED5FFE4F25
:1006C000E081EC3609F08EC0F90136967C01EE0E21
:1006D000F11CF701ED5FFE4FE081EF3609F082C0BB
:1006E000F9013796EC01CE0FD11DFE01ED5FFE4FF3
:1006F000E081E33709F076C0F90138967C01EE0E0F
:10070000F11CF701ED5FFE4FE081E33609F06AC0AE
:10071000F9013996EC01CE0FD11DFE01ED5FFE4FC0
:10072000E081EF3609F05EC0F9013A967C01EE0EE9
:10073000F11CF701ED5FFE4FE081E03709F052C098
:10074000F9013B96EC01CE0FD11DFE01ED5FFE4F8E
:10075000E081E93609F046C0F9013C967C01EE0ED5
:10076000F11CF701ED5FFE4FE081EF36D9F5235F15
:100770003F4F3327DC01AC5FBD4FEC91F0E0E90166
:10078000C40FD51FEC17FD0798F141155105B1F0C5
:10079000E0E0F0E010E0EF01C20FD31F7C01EC0EAF
:1007A000F11CE701CD5FDE4FC881E60FF71FC08364
:1007B0001F5FE12FF0E0E417F50768F31C92FC01DE
:1007C000ED5FFE4F80E091E0DF01EC011D9221978B
:1007D000E9F781E07894DF91CF911F910F91FF901D
:1007E000EF9008959D01211501E0300709F028CF11
:1007F00080E0F0CF2F5F3F4FF6CFBC011092200179
:100800008DE08093210188EE93E00E940F08072E6F
:10081000000C880B990B0E94540825E83BEE49E731
:1008200051E40E94B8080E94230870932901609344
:1008300028010895892B31F4809173008D7F809376
:10084000730008958091730082608093730008950F
:10085000AF92BF92CF92DF92EF92FF920F931F93CE
:10086000CF93DF937C015B018A01CA01880F991F36
:100870000E944D096C01A801B7010E94870AA801D6
:10088000B701C601800F911F0E94870A011511054B
:10089000C9F1C0E0D0E004C02196C017D10759F0DB
:1008A0004DE050E069E372E0C6018C0F9D1F0E948D
:1008B0007A0A892B89F70C171D0721F1CE010D96B5
:1008C000E8012D9779F0F501CA0DDB1DB8010E94F2
:1008D000FB07D701A80FB91F2C9121930196EC17A4
:1008E000FD07A1F7C6010E94E20981E090E0DF91D7
:1008F000CF911F910F91FF90EF90DF90CF90BF901D
:10090000AF9008958FEF9FEFF2CFCF92DF92EF92EB
:10091000FF920F931F93CF93DF93CDB7DEB7A597C9
:100920000FB6F894DEBF0FBECDBF6C01CE010196AD
:100930007C0185E2F70111928A95E9F729833A83D0
:100940004B835C830D83211531054105510599F1D8
:10095000DA01C9010197A109B1098C010F5F1F4F8D
:10096000A801CE0106960E94870A0032110561F0A7
:1009700040E250E0401B510BC801059660E070E07A
:100980008E0D9F1D0E94900A85E2F701D60101900D
:100990000D928A95E1F7C601A5960FB6F894DEBFD1
:1009A0000FBECDBFDF91CF911F910F91FF90EF90C0
:1009B000DF90CF90089500E010E0DACFCF92DF9281
:1009C000EF92FF92CF93DF93EC01FB018881998135
:1009D000AA81BB8182179307A407B507F9F4892B75
:1009E0008A2B8B2BA1F0DE01159620E030E08D9153
:1009F00081932F5F3F4F6901E12CF12C4881598190
:100A00006A817B81C416D506E606F70680F3DF917E
:100A1000CF91FF90EF90DF90CF9008955F934F9329
:100A20003F932F93BF93AF939F938F9387E492E06D
:100A30009F938F930E94210B8DB79EB70A960FB696
:100A4000F8949EBF0FBE8DBFDF91CF91FF90EF90C6
:100A5000DF90CF9008950F931F93CF93DF938C0176
:100A6000FC019481913009F4A6C09923D1F0923011
:100A700009F45BC0933029F0DF91CF911F910F9162
:100A800008952091AE053091AF054FE050E061E050
:100A900070E089E593E0DF91CF911F910F910C9465
:100AA000DF0A8DEC92E00E94350B86E090E00E9418
:100AB0004D09EC01F80180819181A281B3818630DA
:100AC0009105A105B10509F0BCC0359686E0DE01AF
:100AD00001900D928A95E1F78D818F938C818F9390
:100AE0008B811F928F938A811F928F9389811F928E
:100AF0008F9388811F928F938EED92E09F938F93B7
:100B00008091AF058F938091AE058F930E94970AD5
:100B1000EDB7FEB73E960FB6F894FEBF0FBEEDBF21
:100B2000DF91CF911F910F9108958CE293E00E9485
:100B3000350B85E190E00E944D09EC01F8018081C0
:100B40009181A281B38185319105A105B10509F09B
:100B500090C0359685E1DE0101900D928A95E1F70E
:100B60002091AE053091AF054BE150E061E070E0BF
:100B70008DE393E00E94DF0A209789F08C89882317
:100B800071F08E01080F111D89916091AE05709171
:100B9000AF0590E00E94A70AC017D107A9F760919E
:100BA000AE057091AF058AE090E0DF91CF911F9183
:100BB0000F910C94A70A8EE692E00E94350B8AE012
:100BC00090E00E944D09EC01F80180819181A281A1
:100BD000B3818A309105A105B10509F062C035964F
:100BE0008AE0DE0101900D928A95E1F789858F9365
:100BF00088858F938F811F928F938E811F928F9301
:100C00008D818F938C818F938B818F938A818F932A
:100C100089818F9388818F938FE792E09F938F9341
:100C20008091AF058F938091AE058F930E94970AB4
:100C3000EDB7FEB770960FB6F894FEBF0FBEEDBFCE
:100C40001BCF1F921F921F9226E02F93BF93AF934B
:100C50009F938F9387E492E09F938F930E94210B41
:100C60008DB79EB70A960FB6F8949EBF0FBE8DBF84
:100C700033CF1F921F921F9225E12F93BF93AF9303
:100C80009F938F9387E492E09F938F930E94210B11
:100C90008DB79EB70A960FB6F8949EBF0FBE8DBF54
:100CA0005FCF1F921F921F922AE02F93BF93AF93A3
:100CB0009F938F9387E492E09F938F930E94210BE1
:100CC0008DB79EB70A960FB6F8949EBF0FBE8DBF24
:100CD0008DCFCF93DF93CDB7DEB767970FB6F8947C
:100CE000DEBF0FBECDBF0E9462017C0178942FEF62
:100CF00051EE84E0215050408040E1F700C00000F8
:100D00004FE0D42E1EE057E0552E68E0C62E76E068
:100D1000472EE5E03E2E48E250E061E875E0C7016D
:100D20000E9417038130B9F7809185058111F3CFB7
:100D30008AE090E00E944D095C01EEE0F2E0DE0105
:100D400011968D2D01900D928A95E1F7DD8A02E0D2
:100D500025E130E040E050E0BE016F5F7F4FC7010A
:100D60000E94A5029FEFA1EEB4E09150A040B040D8
:100D7000E1F700C0000028E030E040E050E0B501BD
:100D800081E895E00E94DE04EDE1F2E0DE011196DB
:100D9000812F01900D928A95E1F71D8B25E130E0BE
:100DA00040E050E0BE016F5F7F4FC7010E94A50287
:100DB000EFEFF1EE24E0E150F0402040E1F700C019
:100DC000000000E028E030E040E050E0B501C7015D
:100DD0000E94A5025FEF81EE94E051508040904068
:100DE000E1F700C00000EBE2F2E0DE011196812F96
:100DF00001900D928A95E1F71D8B02E025E130E02C
:100E000040E050E0BE016F5F7F4FC7010E94A50226
:100E1000AFEFB1EEE4E0A150B040E040E1F700C038
:100E20000000D5010C9111964C91119713969C904E
:100E3000139712968C9181116ECFE42FF0E0FF8B07
:100E4000EE8B40FDC5C0C092070254E0B12C23E0F8
:100E5000A22E812C32E0632E712C61E070E085E0DF
:100E600090E026E030E0E0E0F0E041FDA9C0205055
:100E70003E4FD901CC929C01852F9B2D5A2DB82C29
:100E8000A62C872C42FD93C020503E4FD901CC9216
:100E90009C01852F9B2D5A2DB82C43FD7FC02050DF
:100EA0003E4FD901CC929C01852F9B2D44FD71C0F2
:100EB00020503E4FD901CC929C01CB01BF0145FD92
:100EC00063C0F901E050FE4FC0829C01CB0146FD9A
:100ED00055C0F901E050FE4FC082AE89BF89AA0F0C
:100EE000AB2FAA1FBB0BFC01E050FE4FAB2B09F050
:100EF00043C0C08210927705109278051092790550
:100F000010927A0510927C0510927B0510927D0557
:100F100010927E051092800510927F05802F90E040
:100F20000E94FD0381E090E00E941A04099D500197
:100F3000112480916A0390916B038A159B05B8F484
:100F400080916C038823E1F301E02AE030E040E087
:100F500050E067E775E0C7010E94A50210926C039C
:100F600080916A0390916B038A159B0548F380E09A
:100F700090E00E941A04CFCE5082BCCFFC01E0501A
:100F8000FE4F4082C901A9CFFB01E050FE4F3082E5
:100F90009ECFE050FE4FB4E0B08391CFE050FE4FC3
:100FA000A3E0AA2EA082FB01652F7B2D7FCFE0500E
:100FB000FE4FB2E07B2E7082FB016A2D782D6DCF43
:100FC000E050FE4F222423942082FB01B3015ACF2C
:100FD0001092000255E0B12C84E0A82E812C93E001
:100FE000692E712C62E070E086E090E027E030E04E
:100FF000E1E0F0E03ACFAA1BBB1B51E107C0AA1FFA
:10100000BB1FA617B70710F0A61BB70B881F991FA9
:101010005A95A9F780959095BC01CD01089597FB4D
:10102000072E16F4009407D077FD09D00E94FB0725
:1010300007FC05D03EF4909581959F4F08957095DB
:1010400061957F4F08950E94970888F09F5798F008
:10105000B92F9927B751B0F0E1F0660F771F881FBD
:10106000991F1AF0BA95C9F714C0B13091F00E94D7
:10107000B108B1E008950C94B108672F782F882744
:10108000B85F39F0B93FCCF3869577956795B395FE
:10109000D9F73EF490958095709561957F4F8F4F6D
:1010A0009F4F0895E89409C097FB3EF49095809572
:1010B000709561957F4F8F4F9F4F9923A9F0F92F1E
:1010C00096E9BB279395F695879577956795B7959C
:1010D000F111F8CFFAF4BB0F11F460FF1BC06F5F82
:1010E0007F4F8F4F9F4F16C0882311F096E911C094
:1010F000772321F09EE8872F762F05C0662371F0B5
:1011000096E8862F70E060E02AF09A95660F771FC8
:10111000881FDAF7880F9695879597F9089557FDF8
:101120009058440F551F59F05F3F71F04795880F55
:1011300097FB991F61F09F3F79F0879508951216EC
:1011400013061406551FF2CF4695F1DF08C0161698
:1011500017061806991FF1CF869571056105089449
:101160000895E894BB2766277727CB0197F9089560
:101170000E94CB080C943C090E942E0938F00E9472
:10118000350920F0952311F00C9425090C942B09B6
:1011900011240C94B2080E948F0870F3959FC1F33C
:1011A000950F50E0551F629FF001729FBB27F00D15
:1011B000B11D639FAA27F00DB11DAA1F649F66276A
:1011C000B00DA11D661F829F2227B00DA11D621FB9
:1011D000739FB00DA11D621F839FA00D611D221F73
:1011E000749F3327A00D611D231F849F600D211D57
:1011F000822F762F6A2F11249F5750409AF0F1F0DA
:1012000088234AF0EE0FFF1FBB1F661F771F881F42
:1012100091505040A9F79E3F510580F00C9425094C
:101220000C94B2085F3FE4F3983ED4F3869577952B
:101230006795B795F795E7959F5FC1F7FE2B880FE8
:10124000911D9695879597F9089597F99F6780E87E
:1012500070E060E008959FEF80EC089500240A9408
:101260001616170618060906089500240A94121681
:101270001306140605060895092E0394000C11F4B4
:10128000882352F0BB0F40F4BF2B11F460FF04C061
:101290006F5F7F4F8F4F9F4F0895CF93DF938230C3
:1012A000910510F482E090E0E091AA05F091AB0581
:1012B00020E030E0C0E0D0E0309711F14081518172
:1012C00048175907C0F04817590761F48281938184
:1012D000209719F09B838A832BC09093AB05809352
:1012E000AA0526C02115310519F04217530718F435
:1012F0009A01BE01DF01EF010280F381E02DDCCF16
:101300002115310509F1281B390B2430310590F4E2
:1013100012968D919C9113976115710521F0FB0137
:101320009383828304C09093AB058093AA05FD014B
:10133000329644C0FD01E20FF31F81939193225036
:1013400031092D933C933AC02091A8053091A9050D
:10135000232B41F420910A0230910B023093A9050E
:101360002093A8052091080230910902211531052A
:1013700041F42DB73EB740910C0250910D02241B51
:10138000350BE091A805F091A905E217F307A0F449
:101390002E1B3F0B2817390778F0AC014E5F5F4FCB
:1013A0002417350748F04E0F5F1F5093A90540934F
:1013B000A8058193919302C0E0E0F0E0CF01DF91B6
:1013C000CF9108950F931F93CF93DF93009709F464
:1013D0008CC0FC013297138212820091AA051091F1
:1013E000AB050115110581F420813181820F931F16
:1013F0002091A8053091A9052817390779F5F093B0
:10140000A905E093A80571C0D80140E050E0AE17EF
:10141000BF0750F412962D913C911397AD01211501
:10142000310509F1D901F3CF9D01DA01338322831C
:1014300060817181860F971F8217930769F4EC0111
:1014400028813981260F371F2E5F3F4F318320833C
:101450008A819B8193838283452B29F4F093AB058A
:10146000E093AA0542C01396FC93EE931297ED0108
:10147000499159919E01240F351FE217F30771F42A
:1014800080819181840F951F029611969C938E9373
:101490008281938113969C938E931297E0E0F0E003
:1014A000D80112968D919C911397009719F0F8012D
:1014B0008C01F6CF8D919C9198012E5F3F4F820F4A
:1014C000931F2091A8053091A9052817390769F4C1
:1014D000309729F41092AB051092AA0502C013822E
:1014E00012821093A9050093A805DF91CF911F9157
:1014F0000F910895FB01DC0104C08D9101908019CA
:1015000021F441505040C8F7881B990B0895FB0106
:10151000DC0102C001900D9241505040D8F708956F
:10152000DC0101C06D9341505040E0F70895CF9326
:10153000DF93CDB7DEB7AE01465F5F4F6885798533
:101540008E819F810E94650BDF91CF9108950F934B
:101550001F93CF93DF93FB01238121FD03C08FEF06
:101560009FEF28C022FF16C0468157812481358114
:101570004217530744F4A081B1819D012F5F3F4F73
:10158000318320838C93268137812F5F3F4F3783B0
:10159000268310C0EB01092F182F0084F185E02D60
:1015A0001995892BE1F68E819F8101969F838E8309
:1015B000812F902FDF91CF911F910F9108958F92DE
:1015C0009F92AF92BF92CF92DF92EF92FF920F93D2
:1015D0001F93CF93DF935B014A017901D9011396E1
:1015E0002C9121FF1DC0C0E0D0E0C815D905D9F06D
:1015F0008C016C01CA0CDB1CC8010C151D0571F0B7
:101600000F5F1F4FD7011896ED91FC911997B70105
:10161000DC018C911995892B79F305C02196E5CFD2
:1016200080E090E001C0CE01DF91CF911F910F913A
:10163000FF90EF90DF90CF90BF90AF909F908F90F2
:101640000895CF93DF93CDB7DEB7AE014A5F5F4F0A
:10165000FA0161917191AF018091AE059091AF0552
:101660000E94650BDF91CF9108950F931F93CF9345
:10167000DF93E091AE05F091AF05238121FF1BC000
:101680008C01D0E0C0E0F80181918F016091AE053E
:101690007091AF05DB011896ED91FC9119978823A5
:1016A00031F01995892B79F3DFEFCFEFECCF8AE09A
:1016B0001995892B19F08FEF9FEF02C08D2F9C2F6A
:1016C000DF91CF911F910F9108952F923F924F92EA
:1016D0005F926F927F928F929F92AF92BF92CF92C2
:1016E000DF92EF92FF920F931F93CF93DF93CDB7CB
:1016F000DEB72C970FB6F894DEBF0FBECDBF7C01CE
:101700006B018A01FC0117821682838181FFBDC1B2
:10171000CE0101964C01F7019381F60193FD85916D
:1017200093FF81916F01882309F4ABC1853239F4AD
:1017300093FD859193FF81916F01853229F4B70163
:1017400090E00E94A70AE7CF512C312C20E02032F4
:10175000A0F48B3269F030F4803259F0833269F4AE
:1017600020612CC08D3239F0803339F4216026C0DD
:101770002260246023C0286021C027FD27C030EDEF
:10178000380F3A3078F426FF06C0FAE05F9E300D3D
:101790001124532E13C08AE0389E300D1124332EAD
:1017A00020620CC08E3221F426FD6BC1206406C07D
:1017B0008C3611F4206802C0883641F4F60193FD9E
:1017C000859193FF81916F018111C1CF982F9F7DEA
:1017D0009554933028F40C5F1F4FFFE3F9830DC03D
:1017E000833631F0833771F0833509F05BC022C056
:1017F000F801808189830E5F1F4F44244394512C4C
:10180000540115C03801F2E06F0E711CF801A08080
:10181000B18026FF03C0652D70E002C06FEF7FEF3F
:10182000C5012C870E946B0D2C0183012C852F771D
:10183000222E17C03801F2E06F0E711CF801A08053
:10184000B18026FF03C0652D70E002C06FEF7FEF0F
:10185000C5012C870E94600D2C012C852068222E4A
:10186000830123FC1BC0832D90E048165906B0F479
:10187000B70180E290E00E94A70A3A94F4CFF50104
:1018800027FC859127FE81915F01B70190E00E94BE
:10189000A70A31103A94F1E04F1A5108411451044B
:1018A00071F7E5C0843611F0893639F5F80127FF64
:1018B00007C060817181828193810C5F1F4F08C0D6
:1018C00060817181072E000C880B990B0E5F1F4FF2
:1018D0002F76722E97FF09C090958095709561952F
:1018E0007F4F8F4F9F4F2068722E2AE030E0A40177
:1018F0000E94760DA82EA81844C0853729F42F7EA3
:10190000B22E2AE030E025C0F22FF97FBF2E8F36AD
:10191000C1F018F4883579F0B4C0803719F08837F1
:1019200021F0AFC02F2F2061B22EB4FE0DC08B2D41
:101930008460B82E09C024FF0AC09F2F9660B92E7C
:1019400006C028E030E005C020E130E002C020E120
:1019500032E0F801B7FE07C0608171818281938116
:101960000C5F1F4F06C06081718180E090E00E5FC8
:101970001F4FA4010E94760DA82EA818FB2DFF77FB
:101980007F2E76FE0BC0372D3E7FA51450F474FEDB
:101990000AC072FC08C0372D3E7E05C0BA2C372D18
:1019A00003C0BA2C01C0B52C34FF0DC0FE01EA0DF6
:1019B000F11D8081803311F4397E09C032FF06C0E9
:1019C000B394B39404C0832F867809F0B39433FDA5
:1019D00013C030FF06C05A2CB31418F4530C5B1814
:1019E000B32CB31468F4B70180E290E03C870E9406
:1019F000A70AB3943C85F5CFB31410F43B1801C08B
:101A0000312C34FF12C0B70180E390E03C870E9484
:101A1000A70A3C8532FF17C031FD03C088E790E07C
:101A200002C088E590E0B7010CC0832F867859F09A
:101A300031FF02C08BE201C080E237FD8DE2B701C9
:101A400090E00E94A70AA51438F4B70180E390E063
:101A50000E94A70A5A94F7CFAA94F401EA0DF11D47
:101A60008081B70190E00E94A70AA110F5CF332032
:101A700009F451CEB70180E290E00E94A70A3A949F
:101A8000F6CFF7018681978102C08FEF9FEF2C96EA
:101A90000FB6F894DEBF0FBECDBFDF91CF911F917F
:101AA0000F91FF90EF90DF90CF90BF90AF909F90FD
:101AB0008F907F906F905F904F903F902F90089500
:101AC000FC010590615070400110D8F78095909509
:101AD0008E0F9F1F0895FC0161507040019001100E
:101AE000D8F7809590958E0F9F1F0895FA01AA2729
:101AF000283051F1203181F1E8946F936E7F6E5F51
:101B00007F4F8F4F9F4FAF4FB1E03ED0B4E03CD0FE
:101B1000670F781F891F9A1FA11D680F791F8A1FE1
:101B2000911DA11D6A0F711D811D911DA11D20D048
:101B300009F468943F912AE0269F11243019305D02
:101B40003193DEF6CF010895462F4770405D4193F3
:101B5000B3E00FD0C9F7F6CF462F4F70405D4A3340
:101B600018F0495D31FD4052419302D0A9F7EACF08
:101B7000B4E0A6959795879577956795BA95C9F737
:101B800000976105710508959B01AC010A2E06942A
:101B90005795479537952795BA95C9F7620F731FE3
:0C1BA000841F951FA01D0895F894FFCF2E
:101BAC0008080808080808080000B2052000666F3D
:101BBC00756E6420696E697420706B67006578744B
:101BCC0072616374656420706B670073656E74205A
:101BDC00696E697420706B67004F7363696C6C6F0E
:101BEC0073636F70696F00657874726163722065DE
:101BFC0072726F723A2073697A65206D69736D61C8
:101C0C0074636820256420213D2025640A007072CD
:101C1C00696E74696E672044415441504B470044CF
:101C2C00617461205061636B61676520696E666FDA
:101C3C003A0A436865636B73756D3A2025640A53E1
:101C4C0069676E616C3A25640A50696E3A202568A2
:101C5C0068750A436F6D6D616E643A20256868750E
:101C6C000A45706F63683A2025640A0A007072692D
:101C7C006E74696E6720494E4954504B4700496E4B
:101C8C006974205061636B61676520696E666F3A99
:101C9C000A4672657175656E63793A2025630A434D
:101CAC0068616E6E656C733A2025630A4D6F6465CE
:101CBC003A2025630A54696D653A2025630A5472EB
:101CCC0069676765723A2025640A0A007072696E4A
:101CDC0074696E672054455854504B4700546578CE
:101CEC0074205061636B61676520696E666F3A2082
:101CFC000A20746578743A2000426C616E6B207017
:0A1D0C0061636B6167652E0A000039
:00000001FF
