:100000000C9472000C9493000C9493000C94930045
:100010000C9493000C9493000C9493000C94930014
:100020000C9493000C9493000C9493000C94930004
:100030000C9493000C9493000C9493000C949300F4
:100040000C9493000C9493000C9493000C949300E4
:100050000C9493000C9493000C9493000C949300D4
:100060000C9493000C945E020C948F020C949300F9
:100070000C9493000C9493000C9493000C949300B4
:100080000C9493000C9493000C9493000C949300A4
:100090000C9493000C9493000C9493000C94930094
:1000A0000C9493000C9493000C9493000C94930084
:1000B0000C9493000C9493000C9493000C94950072
:1000C0000C9493000C9493000C9493000C94930064
:1000D0000C9493000C9493000C9493000C94930054
:1000E0000C94930011241FBECFEFD1E2DEBFCDBF31
:1000F00000E00CBF13E0A0E0B2E0E8E9FDE100E0C1
:100100000BBF02C007900D92AA36B107D9F72DE0B8
:10011000AAE6B3E001C01D92AA3AB207E1F70E9435
:10012000D5060C94CA0E0C9400001F920F920FB6C5
:100130000F9211240BB60F921F932F933F934F935F
:100140005F936F937F938F939F93AF93BF93CF935F
:10015000DF93EF93FF9380916A0390916B03019675
:1001600090936B0380936A0381E080936C0380918A
:100170006D038823C1F010E0C12FD0E0C050DE4FE6
:1001800088810E948A0190917E0DE881F0E0FE2F27
:10019000EE27E358FA4FE90FF11D80831F5F80912E
:1001A0006D03181748F380917F0D8F5F80937F0D4B
:1001B00080917E0D8F5F80937E0DFF91EF91DF9197
:1001C000CF91BF91AF919F918F917F916F915F91EF
:1001D0004F913F912F911F910F900BBE0F900FBE2B
:1001E0000F901F901895EF92FF920F931F93CF934C
:1001F000DF93CDB7DEB768970FB6F894DEBF0FBEBA
:10020000CDBF7C01142FCE0102960E946A0B198388
:1002100002E028E130E040E050E0BE016F5F7F4F38
:10022000C7010E941C032FEF81EE94E02150804013
:100230009040E1F700C0000068960FB6F894DEBF6A
:100240000FBECDBFDF91CF911F910F91FF90EF9027
:100250000895282F30E0982F917080FF03C01092EE
:10026000000291E021FF07C0E92FF0E0E050FE4FCF
:1002700081E080839F5F22FF07C0E92FF0E0E0501C
:10028000FE4F82E080839F5F23FF07C0E92FF0E0ED
:10029000E050FE4F83E080839F5F24FF07C0E92F7B
:1002A000F0E0E050FE4F84E080839F5F25FF07C0B1
:1002B000E92FF0E0E050FE4F85E080839F5F26FF4E
:1002C00007C0E92FF0E0E050FE4F86E080839F5F9B
:1002D000220F232F221F330B232B39F0E92FF0E0BD
:1002E000E050FE4F87E080839F5F90936D030895F9
:1002F00010927E00E4E6F0E080818E7F8083EAE762
:10030000F0E087E0808380818068808380E680934E
:100310007C00089590917C008770982B90937C00CE
:1003200080917A00806480937A0080917A0086FDC3
:10033000FCCF80917900089510927E009091640026
:100340009E7F9093640090E890937A0090917B0058
:10035000282F2870977F922B90937B008770806462
:1003600080937C0080917A00806480937A008091F1
:100370007A0086FDFCCF80917900089510927E006E
:10038000E4E6F0E090819E7F9083EAE7F0E090E879
:100390009083ABE7B0E09C91282F2870977F922B39
:1003A0009C938770806480937C00808180628083CE
:1003B0008C91887F8C938081806480830895EAE7A4
:1003C000F0E080818F7580830895109277051092F8
:1003D00076051092C50080E18093C40010926E04EF
:1003E00010926F04109270041092710510927205B1
:1003F0001092730586E08093C20088E98093C10063
:1004000078948EE693E0089580E091E0089580E08E
:1004100091E008958B5F9D4FFC01808190E00895ED
:100420008E5F9E4FFC01808190E008958E5F9E4F0D
:10043000FC01908120E031E0A901491B5109CA016A
:100440000895CF93DF93DC01AE5FBE4F2C91F894FB
:10045000FC01EF5FFE4F2081EC01C20FD11D6883CC
:1004600080818F5F808380818C918F5F8C93789463
:10047000E1ECF0E0808180628083DF91CF9108958C
:10048000CF93DF93EC01CB5FDD4F28812223E9F38B
:10049000F894DC01AD5FBD4F2C91820F911DFC01E2
:1004A000ED5FFE4F80819C919F5F9C939C91988112
:1004B000915098837894DF91CF9108951F920F9275
:1004C0000FB60F9211240BB60F928F939F93AF9399
:1004D000BF93CF93DF93EF93FF938091C600C3E761
:1004E000D5E09881A2E7B5E0EC91F0E0EF58FB4F42
:1004F00080838C918F5F8C938C9188818F5F8883B0
:10050000FF91EF91DF91CF91BF91AF919F918F912B
:100510000F900BBE0F900FBE0F901F9018951F925B
:100520000F920FB60F9211240BB60F928F93EF9389
:10053000FF93809170048823F1F0E0916E04F0E065
:10054000E259FC4F80818093C60080916E048F5FDA
:1005500080936E0480916E0480917004815080932A
:100560007004FF91EF918F910F900BBE0F900FBE13
:100570000F901F9018958091C1008F7D8093C100CE
:10058000F0CF8F929F92AF92BF92CF92DF92EF9275
:10059000FF920F931F93CF93DF934C015B016A018E
:1005A0007A018DE0E80EF11CC7010E943C0A8C0123
:1005B0008DE0EEE3F2E0D80101900D928A95E1F72B
:1005C000A601B501C8010D960E946A0BE114F10461
:1005D00021F19801A8014E0D5F1DD401AE5FBE4F01
:1005E000F401EF5FFE4FE90169919E018C91F8944F
:1005F0008081E401C80FD11D688390819F5F908343
:1006000080819C919F5F9C9378949091C1009062AF
:100610009093C1002417350731F7C801DF91CF91BE
:100620001F910F91FF90EF90DF90CF90BF90AF9010
:100630009F908F900C94D40ACF92DF92EF92FF920A
:100640000F931F93CF93DF93CDB7DEB7A0970FB66D
:10065000F894DEBF0FBECDBF7C01CE0101960E9493
:10066000F1048DE290E00E943C0AAC018DE0EEE3E3
:10067000F2E0DA0101900D928A95E1F780E2FE0145
:100680003196DA011D9601900D928A95E1F79A0153
:10069000BA01635D7F4FC7018E5F9E4F6C01F7010A
:1006A000EF5FFE4FD9011D919D01D6018C91F89409
:1006B0008081D701A80FB11D1C9390819F5F90830B
:1006C0008081D6019C919F5F9C9378949091C1000A
:1006D00090629093C1002617370721F7CA01A096B0
:1006E0000FB6F894DEBF0FBECDBFDF91CF911F9143
:1006F0000F91FF90EF90DF90CF900C94D40ADF928F
:10070000EF92FF920F931F93CF93DF93F89420E023
:1007100030E0FC01E20FF31FED5FFE4FE081EF34AC
:1007200009F0D3C0D9011196FC01EA0FF11DED5F6C
:10073000FE4FE081E33709F0C0C0F90132967C0139
:10074000EE0EF11CF701ED5FFE4FE081E33609F09C
:10075000B4C0F9013396EC01CE0FD11DFE01ED5F5F
:10076000FE4FE081E93609F0A8C0F90134967C011A
:10077000EE0EF11CF701ED5FFE4FE081EC3609F063
:100780009CC0F9013596EC01CE0FD11DFE01ED5F45
:10079000FE4FE081EC3609F090C0F90136967C01FD
:1007A000EE0EF11CF701ED5FFE4FE081EF3609F030
:1007B00084C0F9013796EC01CE0FD11DFE01ED5F2B
:1007C000FE4FE081E33709F078C0F90138967C01EB
:1007D000EE0EF11CF701ED5FFE4FE081E33609F00C
:1007E0006CC0F9013996EC01CE0FD11DFE01ED5F11
:1007F000FE4FE081EF3609F060C0F9013A967C01C6
:10080000EE0EF11CF701ED5FFE4FE081E03709F0DD
:1008100054C0F9013B96EC01CE0FD11DFE01ED5FF6
:10082000FE4FE081E93609F048C0F9013C967C01B1
:10083000EE0EF11CF701ED5FFE4FE081EF36E9F5BA
:10084000235F3F4F3327DC01AC5FBD4FEC91F0E0FD
:10085000E901C40FD51FEC17FD07A8F1411551059B
:10086000B9F0E0E0F0E0D12C89010E0F1F1F7C01F0
:10087000E00EF11C87010D5F1E4FE8011881E60FA5
:10088000F71F1083D394ED2DF0E0E417F50760F324
:100890001C92FC01ED5FFE4F20E031E0DF01E90139
:1008A0001D922197E9F781E07894DF91CF911F9114
:1008B0000F91FF90EF90DF9008959D012115A1E029
:1008C0003A0709F026CF80E0EFCF2F5F3F4FF6CFFA
:1008D000109220019DE090932101682F70E088EE36
:1008E00093E00E94FE08072E000C880B990B0E94D3
:1008F000430925E83BEE49E751E40E94A7090E941D
:10090000120970932901609328010895892B31F40D
:10091000809173008D7F80937300089580917300A0
:100920008260809373000895AF92BF92CF92DF925E
:10093000EF92FF920F931F93CF93DF937C015B01A4
:100940008A01CA01880F991F0E943C0A6C01A80104
:10095000B7010E946A0BA801B701C601800F911F61
:100960000E946A0B01151105C9F1C0E0D0E004C076
:100970002196C017D10759F04DE050E06EE372E0C8
:10098000C6018C0F9D1F0E945D0B892B89F70C17E8
:100990001D0721F1CE010D96E8012D9779F0F501A3
:1009A000CA0DDB1DB8010E94EA08D701A80FB91FC4
:1009B0002C9121930196CE17DF07A1F7C6010E9463
:1009C000D40A81E090E0DF91CF911F910F91FF90C9
:1009D000EF90DF90CF90BF90AF9008958FEF9FEF93
:1009E000F2CFCF92DF92EF92FF920F931F93CF93AC
:1009F000DF93CDB7DEB7A0970FB6F894DEBF0FBE7A
:100A0000CDBF6C01CE0101967C0180E2F70111920D
:100A10008A95E9F729833A834B835C830D832115FB
:100A200031054105510599F1DA01C9010197A10983
:100A3000B1098C010F5F1F4FA801CE0106960E94DD
:100A40006A0B0B31110561F04BE150E0401B510B7B
:100A5000C801059660E070E08E0D9F1D0E94730B2B
:100A600080E2F701D60101900D928A95E1F7C60167
:100A7000A0960FB6F894DEBF0FBECDBFDF91CF9129
:100A80001F910F91FF90EF90DF90CF90089500E0BD
:100A900010E0DACFCF92DF92EF92FF92CF93DF9305
:100AA000EC01FB0188819981AA81BB8182179307A0
:100AB000A407B507F9F4892B8A2B8B2BA1F0DE0153
:100AC000159620E030E08D9181932F5F3F4F6901B3
:100AD000E12CF12C488159816A817B81C416D506AD
:100AE000E606F70680F3DF91CF91FF90EF90DF905D
:100AF000CF9008955F934F933F932F93BF93AF93FE
:100B00009F938F938CE492E09F938F930E94080CA5
:100B10008DB79EB70A960FB6F8949EBF0FBE8DBFD5
:100B2000DF91CF91FF90EF90DF90CF9008950F93DA
:100B30001F93CF93DF93EC018C81813009F4ADC01A
:100B40008823D1F0823009F45FC0833029F0DF912F
:100B5000CF911F910F9108952091A60D3091A70D6F
:100B60004FE050E061E070E08AE593E0DF91CF91E3
:100B70001F910F910C94C60B8EEC92E00E941C0CFE
:100B800085E090E00E943C0A8C0188819981AA81CD
:100B9000BB8185309105A105B10509F0BEC0FE01FC
:100BA000359685E0D80101900D928A95E1F7F8011C
:100BB0008481282F082E000C330B3F938F93838161
:100BC0001F928F9382811F928F9381811F928F93A7
:100BD00080811F928F938FED92E09F938F938091EE
:100BE000A70D8F938091A60D8F930E947A0B8DB7DE
:100BF0009EB70E960FB6F8949EBF0FBE8DBFDF91C5
:100C0000CF911F910F9108958DE293E00E941C0CEB
:100C100088E190E00E943C0A8C0188819981AA8138
:100C2000BB8188319105A105B10509F08EC0FE0197
:100C3000359688E1D80101900D928A95E1F7E80197
:100C400021962091A60D3091A70D4BE150E061E077
:100C500070E08EE393E00E94C60B209791F0F801BC
:100C60008081882371F08E01080F111D8991609198
:100C7000A60D7091A70D90E00E948A0B0C171D071E
:100C8000A9F76091A60D7091A70D8AE090E0DF9121
:100C9000CF911F910F910C948A0B83E792E00E94F1
:100CA0001C0C85E090E00E943C0A8C0188819981AF
:100CB000AA81BB8185309105A105B10509F05DC010
:100CC000FE01359685E0D80101900D928A95E1F7F5
:100CD000F80184811F928F9383811F928F93828169
:100CE0001F928F9381811F928F9380811F928F9388
:100CF00084E892E09F938F938091A70D8F938091CA
:100D0000A60D8F930E947A0B8DB79EB70E960FB6E5
:100D1000F8949EBF0FBE8DBF1ACF1F921F921F92D5
:100D200025E02F93BF93AF939F938F938CE492E032
:100D30009F938F930E94080CEDB7FEB73A960FB6BB
:100D4000F894FEBF0FBEEDBF32CF1F921F921F92CD
:100D500028E12F93BF93AF939F938F938CE492E0FE
:100D60009F938F930E94080CEDB7FEB73A960FB68B
:100D7000F894FEBF0FBEEDBF62CF1F921F921F926D
:100D800025E02F93BF93AF939F938F938CE492E0D2
:100D90009F938F930E94080C8DB79EB70A960FB64B
:100DA000F8949EBF0FBE8DBF93CFCF93DF93CDB787
:100DB000DEB7A2970FB6F894DEBF0FBECDBF0E947C
:100DC000E5012C0110927E0D10927D0D10927F0D89
:100DD0000E94780178942FEF81EE94E021508040BA
:100DE0009040E1F700C00000E1E13E2EF4E12F2E3B
:100DF00040E250E060E87DE0C2010E947F03182FCE
:100E00008130B1F78091840D81119BC125E030E0E4
:100E100040E050E0BE01675E7F4F80E89DE00E94A9
:100E20004A058B8D8111B6C1F98C0C8D48E050E0DC
:100E300068E070E080E092E00E94730B2A8D1092CF
:100E40006D03622E712C20FF88C110920002109356
:100E50006D03A8E0AE8FB7E0BF8F1AA247E0942ED3
:100E600056E0A52EB12C66E0C62E75E0D72EE12CFB
:100E7000E5E0E8A3F4E0F9A3F0E0E4E073E060E08B
:100E800053E042E030E012E081E090E021FF1AC040
:100E900080509E4F88248394DC018C9210936D03C4
:100EA000152F5E2FE8A1C8A2C92C9E8C842F932FEA
:100EB000472F362F79A16F2FD9A2FE2DDA2CEB2CDC
:100EC000AF8CBAA022FF17C080509E4FA2E08A2E9E
:100ED000DC018C9210936D03152F5E2FE8A1C8A240
:100EE000C92C842F932F472F362F79A16F2FD9A28A
:100EF000FE2DDA2CEB2C23FF14C080509E4FB3E064
:100F0000BB2EDC01BC9210936D03152F5E2FE8A160
:100F1000C8A2842F932F472F362F79A16F2FD9A2E4
:100F2000FE2D24FF11C080509E4FA4E0EA2EDC016C
:100F3000EC9210936D03152F5E2FE8A1842F932F51
:100F4000472F362F79A16F2F25FF0DC0DC01A05050
:100F5000BE4FF5E0FC9310936D03152F5E2F842F89
:100F6000932F472F362F26FF0BC0FC01E050FE4F7A
:100F700066E0862E808210936D03152F842F932FA9
:100F80009301220F232F221F330B232B39F0FC0157
:100F9000E050FE4F27E0208310936D03A8E7B5E0F3
:100FA000E5E01D92EA95E9F710926B0310926A034F
:100FB0008F2D90E00E94680481E090E00E948604FA
:100FC000F09E8001112404C080917F0D811182C0A8
:100FD00080916A0390916B0380179107A8F380E0DA
:100FE00090E00E94860481E1EEE0F2E0DE011296DC
:100FF00001900D928A95E1F7398202E028E130E014
:1010000040E050E0BE016F5F7F4FC2010E941C03B1
:101010009FEFA1EEB4E09150A040B040E1F700C0D6
:10102000000088E0E0E0F2E0DE01129601900D920F
:101030008A95E1F7E8E0E98328E130E040E050E01C
:10104000BE016F5F7F4FC2010E941C03FFEF21EEC4
:1010500084E0F15020408040E1F700C0000084E1CE
:10106000EDE7F5E0DE01129601900D928A95E1F729
:10107000298228E130E040E050E0BE016F5F7F4F01
:10108000C2010E941C039FEFA1EEB4E09150A0406A
:10109000B040E1F700C00000EDE7F6E0DE01129697
:1010A000822D01900D928A95E1F7298228E130E0A6
:1010B00040E050E0BE016F5F7F4FC2010E941C0301
:1010C000EFEFF1EE24E0E150F0402040E1F700C006
:1010D00000008ECE80916D03882341F1A0E0B2E044
:1010E00020E030E08D9190917D0DE82FF0E0FE2F13
:1010F000EE27E358FA4FE90FF11D9081909379059F
:1011000080937A0580916A0390916B0380937C05AC
:101110008FE39CE90197F1F700C000002F5F3F4F7C
:1011200080916D0390E028173907E4F280917D0DDE
:101130008F5F80937D0D80917F0D815080937F0D17
:1011400047CF81E1EDE2F2E0DE01129601900D92CF
:101150008A95E1F7398202E0A9CF87E08E8F96E089
:101160009F8F1AA2B6E09B2E85E0A82EB12C95E0A9
:10117000C92E34E0D32EE12CA4E0A8A3B3E0B9A398
:10118000F0E0E3E072E060E052E041E030E080E077
:1011900090E07CCE8EE0EFE1F2E0DE01129601906D
:1011A0000D928A95E1F78EE0898302E028E130E034
:1011B00040E050E0BE016F5F7F4FC2010E941C0300
:1011C0009FEFA1EEB4E09150A040B040E1F700C025
:1011D00000000ECEAA1BBB1B51E107C0AA1FBB1FFC
:1011E000A617B70710F0A61BB70B881F991F5A95B3
:1011F000A9F780959095BC01CD01089597FB072E26
:1012000016F4009407D077FD09D00E94EA0807FC85
:1012100005D03EF4909581959F4F08957095619506
:101220007F4F08950E94860988F09F5798F0B92F44
:101230009927B751B0F0E1F0660F771F881F991F0B
:101240001AF0BA95C9F714C0B13091F00E94A00904
:10125000B1E008950C94A009672F782F8827B85F14
:1012600039F0B93FCCF3869577956795B395D9F763
:101270003EF490958095709561957F4F8F4F9F4F6D
:101280000895E89409C097FB3EF490958095709579
:1012900061957F4F8F4F9F4F9923A9F0F92F96E9C2
:1012A000BB279395F695879577956795B795F11137
:1012B000F8CFFAF4BB0F11F460FF1BC06F5F7F4FD4
:1012C0008F4F9F4F16C0882311F096E911C07723E6
:1012D00021F09EE8872F762F05C0662371F096E8EF
:1012E000862F70E060E02AF09A95660F771F881FBE
:1012F000DAF7880F9695879597F9089557FD9058D6
:10130000440F551F59F05F3F71F04795880F97FBC9
:10131000991F61F09F3F79F0879508951216130683
:101320001406551FF2CF4695F1DF08C016161706B2
:101330001806991FF1CF86957105610508940895E7
:10134000E894BB2766277727CB0197F908950E9479
:10135000BA090C942B0A0E941D0A38F00E94240A34
:1013600020F0952311F00C94140A0C941A0A1124FD
:101370000C94A1090E947E0970F3959FC1F3950F0B
:1013800050E0551F629FF001729FBB27F00DB11D09
:10139000639FAA27F00DB11DAA1F649F6627B00D99
:1013A000A11D661F829F2227B00DA11D621F739F82
:1013B000B00DA11D621F839FA00D611D221F749F90
:1013C0003327A00D611D231F849F600D211D822FD7
:1013D000762F6A2F11249F5750409AF0F1F08823FE
:1013E0004AF0EE0FFF1FBB1F661F771F881F91502B
:1013F0005040A9F79E3F510580F00C94140A0C94BC
:10140000A1095F3FE4F3983ED4F3869577956795FD
:10141000B795F795E7959F5FC1F7FE2B880F911D54
:101420009695879597F9089597F99F6780E870E0FA
:1014300060E008959FEF80EC089500240A9416164A
:10144000170618060906089500240A9412161306B2
:10145000140605060895092E0394000C11F4882340
:1014600052F0BB0F40F4BF2B11F460FF04C06F5F5C
:101470007F4F8F4F9F4F08950F931F93CF93DF930D
:101480008230910510F482E090E0E091A20DF0919D
:10149000A30D20E030E0A0E0B0E0309719F14081EA
:1014A00051810281138148175907C8F084179507A5
:1014B00069F4109731F012960C93129713961C93BF
:1014C00027C00093A20D1093A30D22C02115310552
:1014D00019F04217530718F49A01BD01EF01DF011B
:1014E000F801DBCF21153105F9F0281B390B243029
:1014F000310580F48A819B816115710521F0FB0122
:101500009383828304C09093A30D8093A20DFE0168
:10151000329644C0FE01E20FF31F81939193225053
:101520003109398328833AC02091A00D3091A10D53
:10153000232B41F420910A0230910B023093A10D2C
:101540002093A00D20910802309109022115310548
:1015500041F42DB73EB740910C0250910D02241B6F
:10156000350BE091A00DF091A10DE217F307A0F467
:101570002E1B3F0B2817390778F0AC014E5F5F4FE9
:101580002417350748F04E0F5F1F5093A10D40936D
:10159000A00D8193919302C0E0E0F0E0CF01DF91D4
:1015A000CF911F910F910895CF93DF93009709F486
:1015B00081C0FC01329713821282A091A20DB091DA
:1015C000A30D109781F420813181820F931F209108
:1015D000A00D3091A10D2817390751F5F093A10DF9
:1015E000E093A00D67C0ED0120E030E0CE17DF07EB
:1015F00040F44A815B819E0141155105F1F0EA01F9
:10160000F5CFD383C28340815181840F951FC817C2
:10161000D90759F488819981840F951F0296918387
:1016200080838A819B81938382832115310529F4EC
:10163000F093A30DE093A20D3DC0E901FB83EA8383
:1016400049915991C40FD51FEC17FD0761F48081B2
:101650009181840F951F0296E90199838883828185
:1016600093819B838A83E0E0F0E012968D919C91B8
:101670001397009719F0FD01DC01F7CF8D919C9134
:1016800011979D012E5F3F4F820F931F2091A00D58
:101690003091A10D2817390769F4309729F4109279
:1016A000A30D1092A20D02C013821282B093A10D5D
:1016B000A093A00DDF91CF910895FB01DC0104C040
:1016C0008D910190801921F441505040C8F7881B3A
:1016D000990B0895FB01DC0102C001900D9241506D
:1016E0005040D8F70895DC0101C06D93415050403F
:1016F000E0F70895CF93DF93CDB7DEB7AE01465F35
:101700005F4F688579858E819F810E944C0CDF91A7
:10171000CF9108950F931F93CF93DF93FB01238104
:1017200021FD03C08FEF9FEF2CC022FF16C0468122
:101730005781248135814217530744F4A081B18138
:101740009D012F5F3F4F318320838C93268137810A
:101750002F5F3F4F3783268314C08B01EC01FB01C1
:101760000084F185E02D1995892BE1F6D8011696B4
:101770008D919C911797019617969C938E9316972F
:10178000CE01DF91CF911F910F9108958F929F927B
:10179000AF92BF92CF92DF92EF92FF920F931F937F
:1017A000CF93DF935B014A017901D90113962C9104
:1017B00021FF1DC0C0E0D0E0C815D905D9F08C01CB
:1017C0006C01CA0CDB1CC8010C151D0571F00F5F04
:1017D0001F4FD7011896ED91FC911997B701DC01C5
:1017E0008C911995892B79F305C02196E5CF80E07E
:1017F00090E001C0CE01DF91CF911F910F91FF903A
:10180000EF90DF90CF90BF90AF909F908F90089512
:10181000CF93DF93CDB7DEB7AE014A5F5F4FFA01DA
:1018200061917191AF018091A60D9091A70D0E94D9
:101830004C0CDF91CF9108950F931F93CF93DF93BB
:10184000E091A60DF091A70D238121FF1BC08C0113
:10185000D0E0C0E0F80181918F016091A60D7091F8
:10186000A70DDB011896ED91FC911997882331F0B3
:101870001995892B79F3DFEFCFEFECCF8AE019953B
:10188000892B19F08FEF9FEF02C08D2F9C2FDF91D6
:10189000CF911F910F9108952F923F924F925F9297
:1018A0006F927F928F929F92AF92BF92CF92DF9270
:1018B000EF92FF920F931F93CF93DF93CDB7DEB7D5
:1018C0002B970FB6F894DEBF0FBECDBF6C017B0126
:1018D0008A01FC0117821682838181FFCCC1CE016F
:1018E00001963C01F6019381F70193FD859193FFE9
:1018F00081917F01882309F4BAC1853239F493FDBF
:10190000859193FF81917F01853229F4B60190E0A2
:101910000E948A0BE7CF912C212C312CFFE1F3158B
:10192000D8F08B3279F038F4803279F08332A1F438
:10193000232D20611DC08D3261F0803369F4232D89
:10194000216016C0832D8260382EE32DE4603E2E88
:101950002AC0F32DF8601DC037FC2DC020ED280FE4
:101960002A3040F08E32B9F436FC81C1232D206438
:10197000322E19C036FE06C08AE0989E200D112432
:10198000922E11C0EAE02E9E200D1124222EF32D5E
:10199000F0623F2E08C08C3621F4832D8068382EEB
:1019A00002C0883641F4F70193FD859193FF819140
:1019B0007F018111B3CF982F9F7D9554933028F4E8
:1019C0000C5F1F4F9FE399830DC0833631F083373F
:1019D00071F0833509F059C021C0F80180818983F5
:1019E0000E5F1F4F88248394912C530113C028014C
:1019F000F2E04F0E511CF801A080B18036FE03C00A
:101A0000692D70E002C06FEF7FEFC5010E94610E8B
:101A10004C018201F32DFF773F2E16C0280122E0F2
:101A2000420E511CF801A080B18036FE03C0692D22
:101A300070E002C06FEF7FEFC5010E94560E4C01AF
:101A4000F32DF0683F2E820133FC1BC0822D90E005
:101A500088169906B0F4B60180E290E00E948A0BE5
:101A60002A94F4CFF50137FC859137FE81915F010F
:101A7000B60190E00E948A0B21102A9421E0821A7C
:101A800091088114910471F7E8C0843611F0893609
:101A900041F5F80137FE07C0608171818281938131
:101AA0000C5F1F4F08C060817181072E000C880BEE
:101AB000990B0E5F1F4FF32DFF763F2E97FF09C046
:101AC00090958095709561957F4F8F4F9F4FF068EF
:101AD0003F2E2AE030E0A3010E946C0E882E86186B
:101AE00045C0853731F4232D2F7EB22E2AE030E019
:101AF00025C0932D997FB92E8F36C1F018F4883503
:101B000079F0B5C0803719F0883721F0B0C0E92FDF
:101B1000E061BE2EB4FE0DC0FB2DF460BF2E09C0E7
:101B200034FE0AC0292F2660B22E06C028E030E01D
:101B300005C020E130E002C020E132E0F801B7FE4C
:101B400007C060817181828193810C5F1F4F06C045
:101B50006081718180E090E00E5F1F4FA3010E94C1
:101B60006C0E882E8618FB2DFF773F2E36FE0DC09B
:101B7000232D2E7FA22E891458F434FE0BC032FC84
:101B800009C0832D8E7EA82E05C0B82CA32C03C0BF
:101B9000B82C01C0B92CA4FE0FC0FE01E80DF11D48
:101BA0008081803321F49A2D997EA92E09C0A2FE4E
:101BB00006C0B394B39404C08A2D867809F0B39418
:101BC000A3FC11C0A0FE06C0B21488F4280C922C0D
:101BD0009B180EC0B21460F4B60180E290E00E943F
:101BE0008A0BB394F7CFB21418F42B1802C0982CB8
:101BF000212CA4FE10C0B60180E390E00E948A0B65
:101C0000A2FE17C0A1FC03C088E790E002C088E5EF
:101C100090E0B6010CC08A2D867859F0A1FE02C072
:101C20008BE201C080E2A7FC8DE2B60190E00E9449
:101C30008A0B891438F4B60180E390E00E948A0B85
:101C40009A94F7CF8A94F301E80DF11D8081B601D3
:101C500090E00E948A0B8110F5CF222009F442CE39
:101C6000B60180E290E00E948A0B2A94F6CFF6013A
:101C70008681978102C08FEF9FEF2B960FB6F89465
:101C8000DEBF0FBECDBFDF91CF911F910F91FF90AF
:101C9000EF90DF90CF90BF90AF909F908F907F900C
:101CA0006F905F904F903F902F900895FC010590AA
:101CB000615070400110D8F7809590958E0F9F1F4E
:101CC0000895FC016150704001900110D8F7809593
:101CD00090958E0F9F1F0895FA01AA27283051F181
:101CE000203181F1E8946F936E7F6E5F7F4F8F4F4D
:101CF0009F4FAF4FB1E03ED0B4E03CD0670F781FAC
:101D0000891F9A1FA11D680F791F8A1F911DA11D90
:101D10006A0F711D811D911DA11D20D009F46894C9
:101D20003F912AE0269F11243019305D3193DEF671
:101D3000CF010895462F4770405D4193B3E00FD027
:101D4000C9F7F6CF462F4F70405D4A3318F0495D12
:101D500031FD4052419302D0A9F7EACFB4E0A695F5
:101D60009795879577956795BA95C9F70097610517
:101D7000710508959B01AC010A2E0694579547956D
:101D800037952795BA95C9F7620F731F841F951F62
:081D9000A01D0895F894FFCF97
:101D980008080808080808080000AA0D2000666955
:101DA8006E69736865642072656164696E67006254
:101DB80075666665726564206D6F6465007265633B
:101DC800656976656420554E56414C4944004F7309
:101DD80063696C6C6F73636F70696F006578747298
:101DE800616372206572726F723A2073697A652036
:101DF8006D69736D6174636820256420213D202519
:101E0800640A007072696E74696E672044415441B7
:101E1800504B470044617461205061636B61676592
:101E280020696E666F3A0A436865636B73756D3A2D
:101E38002025640A5369676E616C3A25640A506903
:101E48006E3A2025640A436F6D6D616E643A2025F1
:101E5800640A45706F63683A2025640A0A00707244
:101E6800696E74696E6720494E4954504B47004962
:101E78006E6974205061636B61676520696E666F77
:101E88003A0A4672657175656E63793A2025640A67
:101E98004368616E6E656C733A2025640A4D6F6401
:101EA800653A2025640A54696D653A2025640A5408
:101EB8007269676765723A2025640A0A0070726958
:101EC8006E74696E672054455854504B47005465EA
:101ED8007874205061636B61676520696E666F3A3C
:101EE800200A20746578743A2000426C616E6B2079
:0A1EF8007061636B6167652E0A00DC
:00000001FF
