:100000000C9472000C9493000C9493000C94930045
:100010000C9493000C9493000C9493000C94930014
:100020000C9493000C9493000C9493000C94930004
:100030000C9493000C9493000C9493000C949300F4
:100040000C9493000C9493000C9493000C949300E4
:100050000C9493000C9493000C9493000C949300D4
:100060000C9493000C94B2020C94E3020C94930051
:100070000C9493000C9493000C9493000C949300B4
:100080000C9493000C9493000C9493000C949300A4
:100090000C9493000C9493000C9493000C94930094
:1000A0000C9493000C9493000C9493000C94930084
:1000B0000C9493000C9493000C9493000C94950072
:1000C0000C9493000C9493000C9493000C94930064
:1000D0000C9493000C9493000C9493000C94930054
:1000E0000C94930011241FBECFEFD1E2DEBFCDBF31
:1000F00000E00CBF13E0A0E0B2E0E2E0FEE100E0CF
:100100000BBF02C007900D92AC30B107D9F72DE0BC
:10011000ACE0B3E001C01D92A135B207E1F70E9447
:10012000CC060C94FF0E0C9400001F920F920FB699
:100130000F9211240BB60F920F931F932F933F939F
:100140004F935F936F937F938F939F93AF93BF93DF
:10015000CF93DF93EF93FF9380910F039091100360
:1001600001969093100380930F0381E08093110315
:1001700080910E03811142C0809112038823C9F03F
:10018000D0E0ED2FF0E0E050FE4FC0811091240D43
:100190008C2F0E94DF01EC2FF0E0FE2FEE27E10F05
:1001A000F11DED5DFA4F8083DF5F80911203D81758
:1001B00040F38091250D9091260D01969093260D88
:1001C0008093250D8091240D8F5F8093240DFF91E6
:1001D000EF91DF91CF91BF91AF919F918F917F91DF
:1001E0006F915F914F913F912F911F910F910F90C0
:1001F0000BBE0F900FBE0F901F901895813039F7EE
:1002000080911203882319F110E001E0C12FD0E0A2
:10021000C050DE4F88810E94DF019091240DE8815B
:10022000F0E0FE2FEE27E90FF11DED5DFA4F808320
:1002300090910C03911106C090910D03891710F055
:1002400000930C031F5F809112031817F8F280913E
:100250000C03882309F4BBCF8091250D9091260DC6
:1002600001969093260D8093250D8091250D9091F8
:10027000260D8115914041F08091240D8F5F809370
:10028000240D8091240DA3CF80E00E94D604F4CFEA
:10029000EF92FF920F931F93CF93DF93CDB7DEB70B
:1002A00068970FB6F894DEBF0FBECDBF7C01142F48
:1002B000CE0102960E94C60B198302E028E130E0CD
:1002C00040E050E0BE016F5F7F4FC7010E947B039B
:1002D0002FEF81EE94E0215080409040E1F700C084
:1002E000000068960FB6F894DEBF0FBECDBFDF9159
:1002F000CF911F910F91FF90EF900895282F30E03C
:10030000982F917080FF03C01092000291E021FFAE
:1003100007C0E92FF0E0E050FE4F81E080839F5F4F
:1003200022FF07C0E92FF0E0E050FE4F82E080831B
:100330009F5F23FF07C0E92FF0E0E050FE4F83E00E
:1003400080839F5F24FF07C0E92FF0E0E050FE4F5D
:1003500084E080839F5F25FF07C0E92FF0E0E05035
:10036000FE4F85E080839F5F26FF07C0E92FF0E006
:10037000E050FE4F86E080839F5F220F232F221FD5
:10038000330B232B39F0E92FF0E0E050FE4F87E0EC
:1003900080839F5F90931203089510927E00E4E69D
:1003A000F0E080818E7F8083EAE7F0E086E0808362
:1003B00080818068808380E680937C0008958770C8
:1003C000806680937C0080917A00806480937A00BC
:1003D00080917A0086FDFCCF80917900089510927B
:1003E0007E00909164009E7F9093640090E89093CB
:1003F0007A0090917B00282F2870977F922B909302
:100400007B008770806480937C0080917A00806498
:1004100080937A0080917A0086FDFCCF80917900EC
:10042000089510927E00E4E6F0E090819E7F908334
:10043000EAE7F0E090E89083ABE7B0E09C91282FEA
:100440002870977F922B9C938770806480937C00A8
:100450008081806280838C91887F8C93808180648E
:1004600080830895EAE7F0E080818F7580830895A6
:1004700010921C0510921B051092C50080E180931C
:10048000C4001092130410921404109215041092D8
:100490001605109217051092180586E08093C20089
:1004A00088E98093C100789483E193E0089580E027
:1004B00091E0089580E091E00895FC01EB5FFD4F2D
:1004C000808190E00895FC01EE5FFE4F808190E016
:1004D0000895FC01EE5FFE4F908120E031E0A9011C
:1004E000491B5109CA010895CF93DF93DC01AE5F28
:1004F000BE4F2C91F894FC01EF5FFE4F2081EC0180
:10050000C20FD11D688380818F5F808380818C9131
:100510008F5F8C937894E1ECF0E08081806280833F
:10052000DF91CF910895CF93DF939C01FC01EB5FA6
:10053000FD4F90819923E9F3F894E901CD5FDD4FF8
:100540008881280F311DD901AD5FBE4F8C919881F4
:100550009F5F988398819081915090837894DF91E8
:10056000CF9108951F920F920FB60F9211240BB6E0
:100570000F928F939F93AF93BF93CF93DF93EF939C
:10058000FF938091C600C8E1D5E09881A7E1B5E06E
:10059000EC91F0E0EA5EFB4F80838C918F5F8C934F
:1005A0008C9188818F5F8883FF91EF91DF91CF914C
:1005B000BF91AF919F918F910F900BBE0F900FBE87
:1005C0000F901F9018951F920F920FB60F92112443
:1005D0000BB60F928F93EF93FF93809115048823AE
:1005E000F1F0E0911304F0E0ED5EFC4F8081809328
:1005F000C600809113048F5F8093130480911304CD
:1006000080911504815080931504FF91EF918F9193
:100610000F900BBE0F900FBE0F901F9018958091FA
:10062000C1008F7D8093C100F0CFAF92BF92CF9277
:10063000DF92EF92FF920F931F93CF93DF9300D03F
:100640001F92CDB7DEB78C017A018DE0E80EF11C68
:10065000C7014B835C8369837A830E948C0A6C0197
:100660008DE0EFE1F2E0D60101900D928A95E1F77D
:100670004B815C8169817A81C6010D960E94C60B0F
:10068000E114F10439F19601EC0CFD1CD801AE5FC8
:10069000BE4F5D01F801EF5FFE4FD9014D919D0105
:1006A000D5018C91F8948081B801680F711DDB0130
:1006B0004C9390819F5F90838081D5019C919F5F37
:1006C0009C9378949091C10090629093C1002E15F4
:1006D0003F0519F7C6010F900F900F900F90DF9113
:1006E000CF911F910F91FF90EF90DF90CF90BF902F
:1006F000AF900C94210BCF92DF92EF92FF920F9369
:10070000CF93DF93CDB7DEB7A0970FB6F894DEBFD7
:100710000FBECDBF7C01CE0101960E9441058DE246
:1007200090E00E948C0A2DE0EFE1F2E0DC01019004
:100730000D922A95E1F720E2FE013196DC011D962B
:1007400001900D922A95E1F79C01BC01635D7F4FFA
:10075000A7014E5F5E4F6A01F701EF5FFE4FD901BF
:100760000D919D01D6014C91F8944081D701A40FC1
:10077000B11D0C9340814F5F40834081D6014C9165
:100780004F5F4C9378944091C10040624093C10008
:100790002617370721F7A0960FB6F894DEBF0FBED5
:1007A000CDBFDF91CF910F91FF90EF90DF90CF9071
:1007B0000C94210BEF92FF920F931F93CF93DF9333
:1007C000F89420E030E0FC01E20FF31FED5FFE4FF4
:1007D000E081EF3409F0D1C0D9011196FC01EA0F94
:1007E000F11DED5FFE4FE081E33709F0BEC0F90176
:1007F00032967C01EE0EF11CF701ED5FFE4FE081B9
:10080000E33609F0B2C0F9013396EC01CE0FD11DE9
:10081000FE01ED5FFE4FE081E93609F0A6C0F90167
:1008200034967C01EE0EF11CF701ED5FFE4FE08186
:10083000EC3609F09AC0F9013596EC01CE0FD11DC6
:10084000FE01ED5FFE4FE081EC3609F08EC0F9014C
:1008500036967C01EE0EF11CF701ED5FFE4FE08154
:10086000EF3609F082C0F9013796EC01CE0FD11DA9
:10087000FE01ED5FFE4FE081E33709F076C0F9013C
:1008800038967C01EE0EF11CF701ED5FFE4FE08122
:10089000E33609F06AC0F9013996EC01CE0FD11D9B
:1008A000FE01ED5FFE4FE081EF3609F05EC0F90119
:1008B0003A967C01EE0EF11CF701ED5FFE4FE081F0
:1008C000E03709F052C0F9013B96EC01CE0FD11D83
:1008D000FE01ED5FFE4FE081E93609F046C0F90107
:1008E0003C967C01EE0EF11CF701ED5FFE4FE081BE
:1008F000EF36D9F5235F3F4F3327DC01AC5FBD4FA7
:10090000EC91F0E0E901C40FD51FEC17FD0798F159
:1009100041155105B1F0E0E0F0E010E0EF01C20F49
:10092000D31F7C01EC0EF11CE701CD5FDE4FC881C7
:10093000E60FF71FC0831F5FE12FF0E0E417F50714
:1009400068F31C92FC01ED5FFE4F80E091E0DF0157
:10095000EC011D922197E9F781E07894DF91CF9126
:100960001F910F91FF90EF9008959D01211501E0D7
:10097000300709F028CF80E0F0CF2F5F3F4FF6CF50
:10098000109220012CE0209321010E94FE099B017E
:10099000AC0160E074E284E797E40E945D090E9484
:1009A000CF0970932901609328010895811106C031
:1009B000809173008D7F8093730008958091730000
:1009C0008260809373000895AF92BF92CF92DF92BE
:1009D000EF92FF920F931F93CF93DF937C015B0104
:1009E0008A01CA01880F991F0E948C0A6C01A80114
:1009F000B7010E94C60BA801B701C601800F911F65
:100A00000E94C60B01151105C9F1C0E0D0E004C079
:100A10002196C017D10759F04DE050E06FE172E028
:100A2000C6018C0F9D1F0E94B90B892B89F70C17EB
:100A30001D0721F1CE010D96E8012D9779F0F50102
:100A4000CA0DDB1DB8010E942F09D701A80FB91FDD
:100A50002C9121930196EC17FD07A1F7C6010E9486
:100A6000210B81E090E0DF91CF911F910F91FF90DA
:100A7000EF90DF90CF90BF90AF9008958FEF9FEFF2
:100A8000F2CFCF92DF92EF92FF920F931F93CF930B
:100A9000DF93CDB7DEB7A0970FB6F894DEBF0FBED9
:100AA000CDBF6C01CE0101967C0180E2F70111926D
:100AB0008A95E9F729833A834B835C830D8321155B
:100AC00031054105510599F1DA01C9010197A109E3
:100AD000B1098C010F5F1F4FA801CE0106960E943D
:100AE000C60B0B31110561F04BE150E0401B510B7F
:100AF000C801059660E070E08E0D9F1D0E94CF0B2F
:100B000080E2F701D60101900D928A95E1F7C601C6
:100B1000A0960FB6F894DEBF0FBECDBFDF91CF9188
:100B20001F910F91FF90EF90DF90CF90089500E01C
:100B300010E0DACFCF92DF92EF92FF92CF93DF9364
:100B4000EC01FB0188819981AA81BB8182179307FF
:100B5000A407B50739F0DF91CF91FF90EF90DF90B8
:100B6000CF900895892B8A2B8B2BA9F3DE01159644
:100B700020E030E08D9181932F5F3F4F6901E12CA0
:100B8000F12C488159816A817B81C416D506E6061D
:100B9000F70680F3DF91CF91FF90EF90DF90CF9039
:100BA00008950F931F93CF93DF93EC019C819130B5
:100BB00009F45DC0992359F0923009F492C0933042
:100BC00009F445C0DF91CF911F910F9108958FE6F1
:100BD00092E00E94600C88E090E00E948C0A4881BC
:100BE00059816A817B81483051056105710509F49D
:100BF000B8C0FC0127811F922F9326811F922F934B
:100C000025811F922F9324811F922F9323812F934D
:100C100022812F9321812F9380818F9380E892E00E
:100C20009F938F9380914E0D8F9380914D0D8F9355
:100C30000E94D60B8DB79EB740960FB6F8949EBF14
:100C40000FBE8DBFDF91CF911F910F91089520911D
:100C50004D0D30914E0D4FE050E061E070E08BEFB4
:100C600092E0DF91CF911F910F910C941E0C8DE2B9
:100C700092E00E94600C86E090E00E948C0A48811D
:100C800059816A817B81463051056105710509F4FE
:100C900071C0FC0123812F9322812F9321812F93F7
:100CA00020812F9325811F922F9384811F928F93F0
:100CB0008EE392E09F938F9380914E0D8F9380915E
:100CC0004D0D8F930E94D60B8DB79EB70C960FB625
:100CD000F8949EBF0FBE8DBFDF91CF911F910F91F2
:100CE00008958EEC92E00E94600C88E190E00E94F2
:100CF0008C0A8C0188819981AA81BB814897A105C2
:100D0000B10509F440C0E801219620914D0D3091C4
:100D10004E0D4BE150E061E070E08FED92E00E94FB
:100D20001E0C209791F0F8018081882371F08E01CC
:100D3000080F111D899160914D0D70914E0D90E03D
:100D40000E94E60BC017D107A9F760914D0D709175
:100D50004E0D8AE090E0DF91CF911F910F910C949E
:100D6000E60BFE01359628E0DC0101900D922A95F4
:100D7000E1F73FCFFE01359626E0DC0101900D92B0
:100D80002A95E1F786CFFE01359688E1D8010190DA
:100D90000D928A95E1F7B7CFCF93DF93CDB7DEB74A
:100DA000A5970FB6F894DEBF0FBECDBF0E943802E4
:100DB0001C010E94CD0178942FEF81EE94E0215028
:100DC00080409040E1F700C000002DE1622E25E058
:100DD000722E36E0432E40E250E067E27DE0C10132
:100DE0000E94DA03182F8130B1F7AFEFB1EEE4E0E3
:100DF000A150B040E040E1F700C0000080912B0D11
:100E0000811187C128E030E040E050E0BE016F5F13
:100E10007F4F87E29DE00E949A0548E050E068E03D
:100E200070E080E092E00E94CF0BD301E42D1D9290
:100E3000EA95E9F7E3E2F5E0DF0180E091E01D9259
:100E40000197E9F7F3959DE0E332F907A9F7898067
:100E50009A80AB80BC802F8129A32D811092120330
:100E6000C22ED12C20FF38C11092000281E0809365
:100E7000120388E08E8F97E09F8F18A2A7E0A98FBA
:100E8000B6E0BD8F512C86E0E82E95E0F92E00E00B
:100E9000E5E0EAA3F4E0FDA3F0E0E4E073E060E065
:100EA00053E042E030E012E081E090E021FF1BC01F
:100EB000DC01A050BE4F91E09C9310931203152FBC
:100EC0005E2FEAA1EAA2E98CBE8DB98F842F932F01
:100ED000472F362F7DA16F2FFDA2F02FFD8C052D02
:100EE000AF8DAD8F58A022FF16C0DC01A050BE4FC1
:100EF00092E09C9310931203152F5E2FEAA1EAA2B1
:100F0000E98C842F932F472F362F7DA16F2FFDA2C1
:100F1000F02FFD8C052D23FF14C080509E4FA3E0C1
:100F20005A2EDC015C9210931203152F5E2FEAA15A
:100F3000EAA2842F932F472F362F7DA16F2FFDA27A
:100F4000F02F24FF10C080509E4F04E0DC010C9372
:100F500010931203152F5E2FEAA1842F932F472F92
:100F6000362F7DA16F2F25FF0DC0DC01A050BE4F95
:100F7000F5E0FC9310931203152F5E2F842F932F0F
:100F8000472F362F26FF09C0FC01E050FE4F40825C
:100F900010931203152F842F932F9601220F232FC6
:100FA000221F330B232B39F0FC01E050FE4F27E0CA
:100FB0002083109312031092100310920F031092CB
:100FC000240D1092230D1092260D1092250D8E8166
:100FD00080930E03882309F4BCC0813009F0FBCE56
:100FE000888580930D03C501B4010E94C00481E08F
:100FF0000E94D6048091250D9091260D8F3F91057A
:10100000C9F3C0F38091250D9091260D892B09F429
:10101000E2CE80911203812C912C5401882309F493
:101020003FC080E0C82E82E0D82EE12CF12CD30105
:10103000E42D1D92EA95E9F7D6018D916D0190910D
:10104000230DE82FF0E0FE2FEE27E90FF11DED5DF7
:10105000FA4F9081909321058093220580921D057F
:1010600090921E05A0921F05B092200501E026E097
:1010700030E040E050E06DE175E0C1010E947B038B
:10108000EFE3FCE93197F1F700C00000FFEFEF1A42
:10109000FF0A80911203282F30E0E216F3063CF29B
:1010A0009091230D9F5F9093230D2091250D3091FA
:1010B000260D215031093093260D2093250D2FEF59
:1010C000821A920AA20AB20A2091250D3091260DA9
:1010D000232B09F0A3CF7FCE87E08E8F96E09F8FE2
:1010E00018A2A6E0A98FB5E0BD8F512CB5E0EB2E7C
:1010F00004E0F02E00E0E4E0EAA3F3E0FDA3F0E07A
:10110000E3E072E060E052E041E030E080E090E057
:10111000CDCE81E1EEE0F2E0DE01129601900D927B
:101120008A95E1F781E1898302E028E130E040E03F
:1011300050E0BE016F5F7F4FC1010E947B038FEFC4
:1011400091EEA4E081509040A040E1F700C0000083
:1011500042CEC501B4010E94C00481E00E94D604C1
:1011600029A1A22FB0E0A50194010E944309698F33
:101170007A8F8B8F9C8F812C912C5401DC01CB01B9
:1011800088169906AA06BB0609F465C08091250D4C
:101190009091260D892BD1F3809112038823F1F1D0
:1011A00040E0C42E42E0D42EE12CF12CD301E42DFA
:1011B0001D92EA95E9F7D6018D916D019091230D6D
:1011C000E82FF0E0FE2FEE27E90FF11DED5DFA4F5D
:1011D0009081909321058093220580921D05909225
:1011E0001E05A0921F05B092200501E026E030E028
:1011F00040E050E06DE175E0C1010E947B03EFE14A
:10120000FEE43197F1F700C00000FFEFEF1AFF0A8C
:101210008091120390E0E816F90644F28091230DC4
:101220008F5F8093230D8091250D9091260D01975E
:101230009093260D8093250D2FEF821A920AA20A11
:10124000B20A898D9A8DAB8DBC8D88169906AA0637
:10125000BB0609F09BCF80E00E94D604BCCDAA1B40
:10126000BB1B51E107C0AA1FBB1FA617B70710F091
:10127000A61BB70B881F991F5A95A9F780959095C3
:10128000BC01CD0108950E944E09A59F900DB49F09
:10129000900DA49F800D911D11240895A29FB0016F
:1012A000B39FC001A39F700D811D1124911DB29F9A
:1012B000700D811D1124911D08950E9471090C94D7
:1012C000520A0E944B0A58F00E94440A40F029F446
:1012D0005F3F29F00C943B0A51110C94860A0C9440
:1012E000410A0E94630A68F39923B1F3552391F3ED
:1012F000951B550BBB27AA2762177307840738F085
:101300009F5F5F4F220F331F441FAA1FA9F335D0E1
:101310000E2E3AF0E0E832D091505040E695001C95
:10132000CAF72BD0FE2F29D0660F771F881FBB1F4F
:10133000261737074807AB07B0E809F0BB0B802D2D
:10134000BF01FF2793585F4F3AF09E3F510578F059
:101350000C943B0A0C94860A5F3FE4F3983ED4F366
:10136000869577956795B795F7959F5FC9F7880F2D
:10137000911D9695879597F90895E1E0660F771F7F
:10138000881FBB1F621773078407BA0720F0621B10
:10139000730B840BBA0BEE1F88F7E09508950E943B
:1013A0006B0A88F09F5798F0B92F9927B751B0F082
:1013B000E1F0660F771F881F991F1AF0BA95C9F7D9
:1013C00014C0B13091F00E94850AB1E008950C94E8
:1013D000850A672F782F8827B85F39F0B93FCCF39B
:1013E000869577956795B395D9F73EF49095809556
:1013F000709561957F4F8F4F9F4F0895E89409C076
:1014000097FB3EF490958095709561957F4F8F4F37
:101410009F4F9923A9F0F92F96E9BB279395F6954D
:10142000879577956795B795F111F8CFFAF4BB0FCB
:1014300011F460FF1BC06F5F7F4F8F4F9F4F16C02F
:10144000882311F096E911C0772321F09EE8872FB9
:10145000762F05C0662371F096E8862F70E060E075
:101460002AF09A95660F771F881FDAF7880F9695EE
:10147000879597F9089597F99F6780E870E060E095
:1014800008959FEF80EC089500240A94161617061D
:1014900018060906089500240A9412161306140665
:1014A00005060895092E0394000C11F4882352F0C8
:1014B000BB0F40F4BF2B11F460FF04C06F5F7F4F80
:1014C0008F4F9F4F089557FD9058440F551F59F067
:1014D0005F3F71F04795880F97FB991F61F09F3F21
:1014E00079F087950895121613061406551FF2CF4A
:1014F0004695F1DF08C0161617061806991FF1CF9A
:1015000086957105610508940895E894BB276627C0
:101510007727CB0197F90895CF93DF938230910518
:1015200010F482E090E0E091490DF0914A0D20E046
:1015300030E0C0E0D0E0309711F140815181481790
:101540005907C0F04817590761F4828193812097A9
:1015500019F09B838A832BC090934A0D8093490D89
:1015600026C02115310519F04217530718F49A01C6
:10157000BE01DF01EF010280F381E02DDCCF2115F8
:10158000310509F1281B390B2430310590F41296EE
:101590008D919C9113976115710521F0FB01938347
:1015A000828304C090934A0D8093490DFD013296C9
:1015B00044C0FD01E20FF31F819391932250310942
:1015C0002D933C933AC02091470D3091480D232B29
:1015D00041F420910A0230910B023093480D209380
:1015E000470D20910802309109022115310541F47F
:1015F0002DB73EB740910C0250910D02241B350BC4
:10160000E091470DF091480DE217F307A0F42E1B6F
:101610003F0B2817390778F0AC014E5F5F4F241756
:10162000350748F04E0F5F1F5093480D4093470D0C
:101630008193919302C0E0E0F0E0CF01DF91CF9180
:1016400008950F931F93CF93DF93009709F48CC0F5
:10165000FC013297138212820091490D10914A0DBC
:101660000115110581F420813181820F931F209192
:10167000470D3091480D2817390779F5F093480D3B
:10168000E093470D71C0D80140E050E0AE17BF07AE
:1016900050F412962D913C911397AD01211531050F
:1016A00009F1D901F3CF9D01DA01338322836081EF
:1016B0007181860F971F8217930769F4EC012881C7
:1016C0003981260F371F2E5F3F4F318320838A8158
:1016D0009B8193838283452B29F4F0934A0DE093F9
:1016E000490D42C01396FC93EE931297ED01499178
:1016F00059919E01240F351FE217F30771F4808181
:101700009181840F951F029611969C938E938281EE
:10171000938113969C938E931297E0E0F0E0D801AA
:1017200012968D919C911397009719F0F8018C01F6
:10173000F6CF8D919C9198012E5F3F4F820F931FA2
:101740002091470D3091480D2817390769F43097DB
:1017500029F410924A0D1092490D02C01382128290
:101760001093480D0093470DDF91CF911F910F917A
:101770000895FB01DC0104C08D910190801921F4D2
:1017800041505040C8F7881B990B0895FB01DC01BC
:1017900002C001900D9241505040D8F70895DC01ED
:1017A00001C06D9341505040E0F70895CF93DF930F
:1017B000CDB7DEB7AE01465F5F4F688579858E8114
:1017C0009F810E94900CDF91CF9108950F931F93FA
:1017D000CF93DF93FB01238121FD03C08FEF9FEFA8
:1017E00028C022FF16C046815781248135814217C7
:1017F000530744F4A081B1819D012F5F3F4F318396
:1018000020838C93268137812F5F3F4F3783268338
:1018100010C0EB01092F182F0084F185E02D1995D8
:10182000892BE1F68E819F8101969F838E83812F84
:10183000902FDF91CF911F910F9108958F929F92DA
:10184000AF92BF92CF92DF92EF92FF920F931F93CE
:10185000CF93DF935B014A017901D90113962C9153
:1018600021FF1DC0C0E0D0E0C815D905D9F08C011A
:101870006C01CA0CDB1CC8010C151D0571F00F5F53
:101880001F4FD7011896ED91FC911997B701DC0114
:101890008C911995892B79F305C02196E5CF80E0CD
:1018A00090E001C0CE01DF91CF911F910F91FF9089
:1018B000EF90DF90CF90BF90AF909F908F90089562
:1018C0000F931F93CF93DF93E0914D0DF0914E0D49
:1018D000238121FF1BC08C01D0E0C0E0F801819181
:1018E0008F0160914D0D70914E0DDB011896ED91B9
:1018F000FC911997882331F01995892B79F3DFEF43
:10190000CFEFECCF8AE01995892B19F08FEF9FEF7D
:1019100002C08D2F9C2FDF91CF911F910F910895C1
:101920002F923F924F925F926F927F928F929F92EF
:10193000AF92BF92CF92DF92EF92FF920F931F93DD
:10194000CF93DF93CDB7DEB72C970FB6F894DEBFF9
:101950000FBECDBF7C016B018A01FC01178216828C
:10196000838181FFBDC1CE0101964C01F7019381B6
:10197000F60193FD859193FF81916F01882309F40E
:10198000ABC1853239F493FD859193FF81916F014D
:10199000853229F4B70190E00E94E60BE7CF512C85
:1019A000312C20E02032A0F48B3269F030F4803208
:1019B00059F0833269F420612CC08D3239F08033C4
:1019C00039F4216026C02260246023C0286021C031
:1019D00027FD27C030ED380F3A3078F426FF06C0D7
:1019E000FAE05F9E300D1124532E13C08AE0389E1A
:1019F000300D1124332E20620CC08E3221F426FDCE
:101A00006BC1206406C08C3611F4206802C0883691
:101A100041F4F60193FD859193FF81916F0181114E
:101A2000C1CF982F9F7D9554933028F40C5F1F4FA2
:101A3000FFE3F9830DC0833631F0833771F08335CE
:101A400009F05BC022C0F801808189830E5F1F4FBF
:101A500044244394512C540115C03801F2E06F0E18
:101A6000711CF801A080B18026FF03C0652D70E0D5
:101A700002C06FEF7FEFC5012C870E94960E2C01EC
:101A800083012C852F77222E17C03801F2E06F0ECC
:101A9000711CF801A080B18026FF03C0652D70E0A5
:101AA00002C06FEF7FEFC5012C870E948B0E2C01C7
:101AB0002C852068222E830123FC1BC0832D90E0FF
:101AC00048165906B0F4B70180E290E00E94E60B98
:101AD0003A94F4CFF50127FC859127FE81915F01AF
:101AE000B70190E00E94E60B31103A94F1E04F1AF2
:101AF00051084114510471F7E5C0843611F089365C
:101B000039F5F80127FF07C06081718182819381D7
:101B10000C5F1F4F08C060817181072E000C880B7D
:101B2000990B0E5F1F4F2F76722E97FF09C090956D
:101B30008095709561957F4F8F4F9F4F2068722ED3
:101B40002AE030E0A4010E94A10EA82EA81844C0EB
:101B5000853729F42F7EB22E2AE030E025C0F22FFF
:101B6000F97FBF2E8F36C1F018F4883579F0B4C0F4
:101B7000803719F0883721F0AFC02F2F2061B22EA7
:101B8000B4FE0DC08B2D8460B82E09C024FF0AC09E
:101B90009F2F9660B92E06C028E030E005C020E1F6
:101BA00030E002C020E132E0F801B7FE07C06081FA
:101BB0007181828193810C5F1F4F06C060817181AA
:101BC00080E090E00E5F1F4FA4010E94A10EA82E9E
:101BD000A818FB2DFF777F2E76FE0BC0372D3E7F9A
:101BE000A51450F474FE0AC072FC08C0372D3E7E66
:101BF00005C0BA2C372D03C0BA2C01C0B52C34FF58
:101C00000DC0FE01EA0DF11D8081803311F4397E93
:101C100009C032FF06C0B394B39404C0832F867802
:101C200009F0B39433FD13C030FF06C05A2CB3142F
:101C300018F4530C5B18B32CB31468F4B70180E2AA
:101C400090E03C870E94E60BB3943C85F5CFB3143B
:101C500010F43B1801C0312C34FF12C0B70180E3EF
:101C600090E03C870E94E60B3C8532FF17C031FDB7
:101C700003C088E790E002C088E590E0B7010CC09F
:101C8000832F867859F031FF02C08BE201C080E2D9
:101C900037FD8DE2B70190E00E94E60BA51438F401
:101CA000B70180E390E00E94E60B5A94F7CFAA9424
:101CB000F401EA0DF11D8081B70190E00E94E60B6E
:101CC000A110F5CF332009F451CEB70180E290E0A6
:101CD0000E94E60B3A94F6CFF7018681978102C005
:101CE0008FEF9FEF2C960FB6F894DEBF0FBECDBFDF
:101CF000DF91CF911F910F91FF90EF90DF90CF90E8
:101D0000BF90AF909F908F907F906F905F904F901B
:101D10003F902F900895FC01059061507040011094
:101D2000D8F7809590958E0F9F1F0895FC01615004
:101D3000704001900110D8F7809590958E0F9F1FED
:101D40000895FA01AA27283051F1203181F1E89451
:101D50006F936E7F6E5F7F4F8F4F9F4FAF4FB1E09E
:101D60003ED0B4E03CD0670F781F891F9A1FA11D99
:101D7000680F791F8A1F911DA11D6A0F711D811D9A
:101D8000911DA11D20D009F468943F912AE0269F5F
:101D900011243019305D3193DEF6CF010895462FBE
:101DA0004770405D4193B3E00FD0C9F7F6CF462F9F
:101DB0004F70405D4A3318F0495D31FD4052419308
:101DC00002D0A9F7EACFB4E0A695979587957795C5
:101DD0006795BA95C9F700976105710508959B014C
:101DE000AC010A2E06945795479537952795BA95D5
:101DF000C9F7620F731F841F951FA01D0895F894E3
:021E0000FFCF12
:101E020008080808080808080000510D200072653B
:101E120063656976656420554E56414C4944004FCE
:101E22007363696C6C6F73636F70696F0070726952
:101E32006E74696E672044415441504B47004461BF
:101E42007461205061636B61676520696E666F3AE9
:101E52000A5369676E616C3A25640A50696E3A20CA
:101E620025640A45706F63683A2025640A0A007087
:101E720072696E74696E6720494E4954504B47002F
:101E8200496E6974205061636B61676520696E6693
:101E92006F3A0A4672657175656E63793A202564F8
:101EA2000A4368616E6E656C733A2025640A4D6F51
:101EB20064653A2025640A54696D653A2025640AEE
:101EC200547269676765723A2025640A0A00707263
:101ED200696E74696E672054455854504B470054DC
:101EE200657874205061636B61676520696E666F07
:101EF2003A200A20746578743A2000426C616E6B55
:0C1F0200207061636B6167652E0A0000AF
:040000050080030C68
:00000001FF
